:100000003FC100006EC100006CC100006AC1000069
:1000100068C1000066C1000064C1000062C1000048
:1000200060C100005EC100005CC100005AC1000058
:1000300058C100000C94AB1754C1000052C100001D
:1000400050C100000C9495144CC100004AC100003E
:1000500048C1000046C1000044C100000C94C21811
:1000600040C100000C94DC160C94B3163AC1000099
:1000700038C1000036C1000034C1000032C10000A8
:100080000C9468142EC100002CC100002AC100008D
:1000900028C1000026C1000024C100000C943212C7
:1000A00020C100001EC100000C943B141AC10000C6
:1000B00018C1000016C1000014C100000C940E14F9
:1000C00010C100000EC100000CC100000AC10000F8
:1000D00008C1000006C1000004C1000002C1000008
:1000E00000C10000320337033C0346035003C90339
:1000F0005A0362036A0374037E0388039703A10310
:10010000C903AB03B503BF038206A7067006BA0690
:10011000D5061F07FD061F0717071F07480791068B
:1001200010070907D811DD11E511F011F211F711CF
:10013000FF110A1218121A127616791668166C1622
:100140007216B0167D16811687168B168F169516A9
:1001500099169D16B016A316A716AB16000021001F
:10016000240027002A002D00300033000101000088
:10017000040107010A0100002200250028002B00CD
:100180002E003100340002010000050108010B01BE
:10019000000020002300260029002C002F00320040
:1001A0000001000003010601090105050505070519
:1001B00008080808020202020A0A080804040404E3
:1001C000010101010101010103030303030303030F
:1001D000040707070C0C0C0C0C0C0C0C020202029E
:1001E00006060606060606060B0B0B0B0B0B0B0B87
:1001F0000102102020080810204010204080020139
:10020000020108040201010204081020408080401D
:10021000201008040201800402018040201008041C
:1002200002010804020101020408102040800102BA
:1002300004081020408000000A0B02090C0D0E0873
:10024000070304010000000000000000000000009F
:10025000000000000000000000000000000000009E
:10026000000012111000000000000000000000005B
:1002700000000000000000000000000002007421E7
:1002800011241FBECFEFD1E2DEBFCDBF00E00CBF17
:1002900014E0A0E0B2E0EEEFF9E400E00BBF02C032
:1002A00007900D92AA33B107D9F729E0AAE3B4E089
:1002B00001C01D92A934B207E1F711E0C0E4D1E01A
:1002C00000E006C021970109802FFE010E94CB2289
:1002D000CF33D10780E00807A9F70E94801A0C9459
:1002E000FD248ECECF93803180F540917E045091D5
:1002F0007F0421E030E0672B81F4B90102C0660F72
:10030000771F8A95E2F7CB018095909584239523FA
:1003100090937F0480937E0418C0082E02C0220FA1
:10032000331F0A94E2F7242B352B30937F0420935C
:100330007E0490918605911108C0C82F0E9446182E
:10034000BC018C2FCF910C944B19CF9108958F92B3
:100350009F92AF92BF92CF92DF92EF92FF920F9354
:100360001F93CF93DF93893008F09AC0982F990F8D
:10037000990F990F58E0C52EC90E96E49C1510F4FC
:1003800046E4C42E8B01C82FCC0FCC0FCC0FDC2E33
:10039000D0E0992493945B01BB24DC1430F58EEFFC
:1003A0008D0D8434F8F44D2D50E0FA01ED5CF84FDA
:1003B00020812230B8F4892D90E08A219B21882465
:1003C0008394009709F4812C7A01EE0CFF1C2130F4
:1003D00009F056C0D929F701E758F84F882D90E069
:1003E00091838083990CD394D8CFD0FF05C0602F20
:1003F00061708C2F0E943A17D1FF06C0602F627087
:1004000081E08C0F0E943A17D2FF06C0602F647003
:1004100082E08C0F0E943A17D3FF06C0602F6870ED
:1004200083E08C0F0E943A17D4FF06C0602F6071E2
:1004300084E08C0F0E943A17D5FF06C0602F6072CF
:1004400085E08C0F0E943A17D6FF06C0602F6074BB
:1004500086E08C0F0E943A17D7FF22C0602F607889
:1004600087E08C0FDF91CF911F910F91FF90EF905C
:10047000DF90CF90BF90AF909F908F900C943A17E1
:10048000892B09F4A8CFF701E758F84F80819181B3
:10049000019709F4A0CF62E08D2D0E940A189BCF2E
:1004A000DF91CF911F910F91FF90EF90DF90CF9050
:1004B000BF90AF909F908F9008958F929F92AF9230
:1004C000BF92CF92DF92EF92FF920F931F93CF9341
:1004D000DF93EB01863408F068C1082F10E0F801C3
:1004E000ED5CF84F9081933009F490C0943009F09E
:1004F0005CC18250843408F051C1F801EA5CFA4FC3
:10050000E080F12C6701CC0CDD1C603282E07807C2
:100510000CF042C077FD05C0653B710524F4DB019A
:1005200004C0A0E001C0A4EBB0E0F601EE0DFF1D99
:10053000EB54F74F818128E830E04901881A91088F
:1005400087FD9394880C991C880C991C092C000C2D
:10055000AA08BB08828128E532E0281B310987FD03
:100560003395220F331F220F331FA901330F660B60
:10057000770B9A01AB01281939094A095B090E94D6
:10058000612224EB30E040E050E00E943B22820EEA
:10059000931EA41EB51E01C04B01F601EE0DFF1DFA
:1005A000EB54F74F2081203308F0F8C0318188E800
:1005B00090E0831B910937FD9395880F991F880F51
:1005C000991F8816990684F0828148E552E0481BFD
:1005D000510987FD5395440F551F440F551FC40102
:1005E000481559050CF4CA010297880F991F4FB797
:1005F000F89430E0F901EE0FFF1F2E0F3F1FF901B5
:10060000EC5DF74F928381834FBFC8C0F82E8EEF09
:10061000800F8C3028F084ED800F833008F0BEC04E
:1006200061E08F2D0E940A18209711F460E004C049
:10063000CF3FD10529F461E08F2D0E943A17AEC05B
:10064000F801EA5CFD4FE4918E2F90E0FC013197B8
:10065000E231F10508F09DC08827EE58FF4F8F4F1B
:100660000C94CB2284B5806884BDC7BD97C084B587
:10067000806284BDC8BD92C08091800080688093F4
:100680008000D0938900C093880088C0809180004A
:10069000806280938000D0938B00C0938A007EC0DC
:1006A00080918000886080938000D0938D00C093FB
:1006B0008C0074C08091B00080688093B000C093BB
:1006C000B3006CC08091B00080628093B000C09392
:1006D000B40064C080919000806880939000D093B3
:1006E0009900C09398005AC08091900080628093D6
:1006F0009000D0939B00C0939A0050C080919000CE
:10070000886080939000D0939D00C0939C0046C069
:100710008091A00080688093A0008091A0008F7BD2
:100720008093A000D093A900C093A80037C0809107
:10073000A00080628093A000D093AB00C093AA0079
:100740002DC08091A00088608093A000D093AD0060
:10075000C093AC0023C08091200180688093200169
:10076000D0932901C093280119C080912001806293
:1007700080932001D0932B01C0932A010FC0809158
:100780002001886080932001D0932D01C0932C011B
:1007900005C0C038D1050CF04ECF48CF000F111F57
:1007A000F801E758F84FD183C083DF91CF911F91B3
:1007B0000F91FF90EF90DF90CF90BF90AF909F9000
:1007C0008F9008959EEF980F943480F4E82FF0E016
:1007D000DF01AD5CB84F9C91913041F4EE0FFF1FEB
:1007E000E758F84F608371830C943A1708950F937C
:1007F0001F93CF93082F10E0F801E65CFB4F908128
:10080000C62FC92304581A4F411104C0D8019C9126
:10081000C91771F1682F8091E8069091E9066F7011
:100820006069DC01ED91FC910190F081E02D19955A
:100830008091E8069091E9066C2F6F77DC01ED91CD
:10084000FC910190F081E02D19958091E80690913E
:10085000E9066C2F70E0660F672F661F770BDC01CF
:10086000ED91FC910190F081E02D1995F801C08384
:10087000CF911F910F9108950F931F93CF93DF9303
:10088000893008F079C0282F30E0F901ED5BFB4F8B
:100890006083672B09F470C0082FF901E65CFB4FF9
:1008A0001081D22FDD0FDD0FDD0F8EEF8D0F843421
:1008B00008F052C010FF50C08D2F0E941217892BD4
:1008C00009F44AC0C1E08FEF8D0F843448F411FF62
:1008D00007C081E08D0F0E941217892B09F03EC0DE
:1008E00012FF06C082E08D0F0E941217892BC1F5FE
:1008F00013FF06C083E08D0F0E941217892B91F51C
:1009000014FF06C084E08D0F0E941217892B61F539
:1009100015FF06C085E08D0F0E941217892B31F557
:10092000D03491F016FF06C086E08D0F0E9412179A
:10093000892BF1F4DF3341F017FF06C087E08D0FFC
:100940000E941217892BB1F441E06C2F802FDF91A8
:10095000CF911F910F914BCFC0E0B5CFC260C0CFF8
:10096000C460C6CFC860CCCFC061D2CFC062D8CF80
:10097000C064E0CFC068E8CFDF91CF911F910F91A5
:100980000895EF92FF920F931F93CF93DF93082F59
:10099000EB01142FF22E6F3F8FEF7807F9F081E013
:1009A00080932706009349061092280610924A0663
:1009B00088E198E00E9418108F2D0E94091A8091FA
:1009C0001505909116058230910550F0880F991FFA
:1009D000880F991F05970197F1F702C0C0E0D0E09A
:1009E000809126068111FCCF912F113208F090E200
:1009F00081E080932606809325062FEF209324061E
:100A000010922306290F20932206809301068091DD
:100A10000106202F220F822B809301068091000671
:100A2000813061F410920006809101068093BB0032
:100A30008091BC0083FDF8CF85EC01C085EE8093EA
:100A4000BC00809126068130E1F38091230689174E
:100A500010F490912306E2E0F6E0A7E8B5E080E02C
:100A6000891721F021912D938F5FFACF1092A8055D
:100A70008093A705E12EF12C90E0E816F9061CF40E
:100A800086EA92E005C08E159F0524F483EC92E07F
:100A90000E948A190093D504C093D604C5EDD4E012
:100AA000CE01855D94408E159F056CF42196909142
:100AB000A7058091A805981731F088E198E00E9479
:100AC000D00F8983EDCF62E0610F45ED54E087E7F9
:100AD000DF91CF911F910F91FF90EF900C946119CE
:100AE000A82FB0E0AA5CBA4F9C91292F30E0F90101
:100AF000EE0FFF1F2E0F3F1FF901EB54F74FE08160
:100B0000F0E09F01220F331FE20FF31FEC5DF74F60
:100B100080818F7B808380913405981306C0992350
:100B200079F09150909334050BC0882349F0E091FF
:100B30003505EF5FE0933505F0E0EC55FB4F908312
:100B40008FEF8C930895DB01909134059033A8F5D5
:100B500030913505682F70E0332369F0E32FF0E022
:100B6000EC55FB4F8081FB01EA5CFA4F80833150EA
:100B70003093350507C0FB01EA5CFA4F90839F5F15
:100B800090933405FB01EA5CFA4F808190E09C0170
:100B9000220F331F820F931F1A161B0634F41416EC
:100BA00015061CF49A01AD0104C020E639E040E2CC
:100BB00052E08B54974F0C9463138FED92E00C949A
:100BC0008A198F929F92BF92CF92DF92EF92FF92FB
:100BD0000F931F93CF93DF93C82ED12CE601C851FA
:100BE000D94FFE01E55BFF4F90819F3709F450C15B
:100BF000963041F490918505992321F06630710576
:100C000009F02CC17B01182F0EEF080F0434F8F403
:100C100064307105E1F0F601EA5CFA4F80818033BF
:100C2000B0F490E0FC01EE0FFF1F8E0F9F1FFC0140
:100C3000EB54F74F808190E0FC01EE0FFF1F8E0F09
:100C40009F1FFC01EC5DF74F808186FD0DC15AECC2
:100C5000B52EB10E8FE08B1550F061E070E082E0B0
:100C6000E816F10411F060E070E08B2D3BDB0434FA
:100C700018F5E12FE695E695E695212F2770F0E02F
:100C8000E65CFB4FE114F10421F08BE0E816F1047F
:100C900049F481E090E001C0880F2A95EAF790813D
:100CA000892B09C081E090E001C0880F2A95EAF7FE
:100CB00080959081892380834601880C991CF401DA
:100CC000E758F84F118210828EE0E816F10408F020
:100CD000B6C0F7018827EC57FF4F8F4F0C94CB22FB
:100CE0008FE08B1508F4D4C0043420F460E0812F29
:100CF0000E940A18C55BDF4F88818F3709F4C8C08E
:100D000082E09BC0043408F0C3C060E0812F0E94E1
:100D10000A18C55BDF4F88818F3709F4B9C0188284
:100D2000B7C0043408F0B4C062E0812F0E940A18F2
:100D3000C55BDF4F88818F3711F08BE08883F4012A
:100D4000E758F84F81E090E091838083A1C004349C
:100D500008F09EC060E0812F0E943A1761E0812F69
:100D60000E940A18C55BDF4F88818F3709F490C055
:100D700081E063C00C3028F084ED810F833008F0EF
:100D800087C061E0812F0E940A1861E0812F0E94D4
:100D90000A1860E0812F0E943A17C55BDF4F8881F7
:100DA0008F3709F475C083E048C0043408F070C080
:100DB000C55BDF4F88818F3711F084E08883F601AF
:100DC000EA5CFA4F80818F3F09F451C090E0FC014A
:100DD000EE0FFF1F8E0F9F1FFC01EB54F74F80811A
:100DE00090E0FC01EE0FFF1F8E0F9F1FFC01EC5DDA
:100DF000F74F808186FD4CC03AC01451123008F084
:100E000047C0C55BDF4F88818F3709F441C086E05A
:100E100014C0C55BDF4F88818F37D1F18DE00DC0E5
:100E2000C55BDF4F88818F3799F18CE006C0C55BC9
:100E3000DF4F88818F3761F188E0888329C083EF95
:100E400092E0DF91CF911F910F91FF90EF90DF9093
:100E5000CF90BF909F908F900C948A191092850527
:100E60009FEF90930002CECE812F3ADEF0CE4FEF6F
:100E70005FEF6FEF7FEF812FDF91CF911F910F9188
:100E8000FF90EF90DF90CF90BF909F908F905BCEC0
:100E9000DF91CF911F910F91FF90EF90DF90CF9056
:100EA000BF909F908F9008952F923F924F925F92A4
:100EB0006F927F928F929F92AF92BF92CF92DF926A
:100EC000EF92FF920F931F93CF93DF93162FEA01B8
:100ED0008D3609F468C2D0F4823609F44EC540F468
:100EE000803509F4AEC18F3509F4AFC20C94790F87
:100EF000893609F498C28B3609F0FBC780EF0E944F
:100F0000FC198CE60E94FC19CEEF3BC2823709F433
:100F1000C1C538F48F3609F4D4C1803709F441C112
:100F2000E8C7883709F4E9C08A3709F4AAC18637C7
:100F300009F0DFC72981922F987125FF03C084E053
:100F400093E014C7888126FB222720F931E023276C
:100F5000983071F168F49111CCC791E09093270615
:100F6000809349061092280610924A0602E007C0B4
:100F7000903109F447C0983109F472C0BAC701171B
:100F800078F4FE01E00FF11D618167956627679592
:100F90008081680F88E198E00E9418100E5FEFCF03
:100FA00081E00E94091A83E191E00197F1F7A1C75E
:100FB0004B816A81163069F470E030E8439F600D20
:100FC000711D11244D814795442747959C81490FF8
:100FD00006C0479544274795460F6FEF7FEFDF9197
:100FE000CF911F910F91FF90EF90DF90CF90BF9026
:100FF000AF909F908F907F906F905F904F903F90B9
:101000002F90BFCCE0910002E7301CF084E293E027
:10101000ADC69B813A81663071F4632F70E040E881
:10102000949F600D711D11249D8197959927979527
:101030004C81940F06C0979599279795930F6FEF62
:101040007FEFEF5FE093000235E0E302F00111244F
:10105000EA5AFB4F8083728361839383248349C759
:101060002091000212163CF490E0622F022E000C38
:10107000770B35E00FC08FEF809300023AC7349FA3
:10108000F001359FF00D1124EA5AFB4F408184177F
:1010900039F09F5F492F50E06417750784F790E09F
:1010A00085E022C09830F8F4FA0131968E9FD00185
:1010B0008F9FB00D1124AA5ABB4F3C91849FF00121
:1010C000859FF00D1124EA5AFB4F308311964D9104
:1010D0005C9112975283418313963C91139733830B
:1010E00014963C9134839F5F492F50E06417750735
:1010F000CCF6215020930002FCC62981888190E023
:1011000040E8249F800D911D1124009721F09093B9
:10111000160580931505809185058111EAC6C0E00A
:101120008CEE8C0F823020F466E070E08C2F49DD6D
:10113000CF5FC634A9F781E0809385051092A8059A
:101140001092A7051092280610924A0610922606C1
:10115000809325061092000661E084E10E943A1710
:1011600061E085E10E943A178091B9008E7F8093FB
:10117000B9008091B9008D7F8093B90088E4809395
:10118000B80085E48093BC008EEB9FE09093AA05A5
:101190008093A9058FEB9FE09093AC058093AB05FE
:1011A000A8C6653008F4A5C618818EEF810F843477
:1011B00008F09FC60981EA80FB80CC81E12FF0E036
:1011C000EA5CFA4F80818033B0F490E0FC01EE0FCE
:1011D000FF1F8E0F9F1FFC01EB54F74F808190E0A3
:1011E000FC01EE0FFF1F8E0F9F1FFC01EC5DF74F00
:1011F000808186FDCFC54F2D50E080E8C89F400D0F
:10120000511D1124602F70E090E8E99E600D711D62
:101210001124812F98DC64E070E0812FDF91CF9161
:101220001F910F91FF90EF90DF90CF90BF90AF9004
:101230009F908F907F906F905F904F903F902F90F6
:10124000C0CC2981888190E0E0E82E9F800D911D1F
:10125000112490935504809354042FB7F8948091EF
:101260004C0490914D04A0914E04B0914F042FBFB7
:101270008093500490935104A0935204B09353046C
:1012800038C6623008F435C62981888190E0F0E8DC
:101290002F9F800D911D1124009711F481E090E0A3
:1012A0009093020280930102609101027091020208
:1012B00088E290E00E94A4227093950460939404C5
:1012C00018C6623008F415C6698170E0123091F0DA
:1012D0008A8120E8829FC0011124682B792B13306A
:1012E00049F08B8190E090E4899F902D882711240C
:1012F000682B792B8881DF91CF911F910F91FF90FF
:10130000EF90DF90CF90BF90AF909F908F907F90A5
:101310006F905F904F903F902F90CFC8CC30E0F10E
:1013200086ED8C0F8330C0F1C43430F484E00E9429
:10133000FC198EE00E94FC198EEE8C0F823030F486
:1013400086E00E94FC1981E00E94FC198FE70E9450
:10135000FC19CF5FC43409F4EFC4C43490F480E0C6
:101360000E94FC1981E00E94FC198BE00E94FC198C
:1013700081E00E94FC1981E00E94FC1981E00E943A
:10138000FC198CEC8C0F803148F682E00E94FC192D
:101390008AE00E94FC19C4CF83E00E94FC1988E017
:1013A0000E94FC19C1CF662309F4A3C5C88180EF50
:1013B0000E94FC198EE60E94FC198C2F0E94FC19D9
:1013C000C63408F0B9C4D0E0FE01ED5CF84F80816E
:1013D0000E94FC19CC0FDD1F8E010758184FF80131
:1013E00080818F770E94FC19F801808191819C0196
:1013F0002078232B39F0880F892F881F990B8F773E
:101400000E94FC19C758D84F888199819C012227D6
:10141000307C232B09F490C4990F880B990F982FD7
:10142000881F8F7787C480EF0E94FC198AE60E948C
:10143000FC19CAECC03110F48C2F01C08FE70E9458
:10144000FC19CF5FC031B1F777C4988189819111C0
:101450007DC29B810A8110E01801F0E89F9F200C5B
:10146000311C11249D81CC81D0E020E8929FC00DD9
:10147000D11D112490910302981721F09F3F09F08C
:1014800038C504C0ECE7F2E01491EBC0809303028E
:10149000ECE7F2E0E491EF3F09F42BC5E23009F408
:1014A00072C048F5EE2309F451C0E13009F0D8C00C
:1014B000109280001092810090918100986090932A
:1014C000810090918100916090938100282F30E0FD
:1014D000F901E655FE4FE491F0E0EE0FFF1FEA58E8
:1014E000FE4F45915491F901E051FE4FE491E09394
:1014F0001A0511E03BC1E43009F48FC008F46AC05A
:10150000E53009F0ADC010922001109221019091B8
:101510002101986090932101909121019160909315
:101520002101282F30E0F901E655FE4FE491F0E06B
:10153000EE0FFF1FEA58FE4F45915491F901E0511B
:10154000FE4FE491E093170515E010C114BC15BCE3
:1015500094B5926094BD95B5916095BD282F30E00B
:10156000F901E655FE4FE491F0E0EE0FFF1FEA5857
:10157000FE4F45915491F901E051FE4FE491E09303
:101580001B0510E0B2C41092B0001092B10090910F
:10159000B00092609093B0009091B10091609093F0
:1015A000B100282F30E0F901E655FE4FE491F0E05C
:1015B000EE0FFF1FEA58FE4F459154915093F505E9
:1015C0004093F405F901E051FE4FE491E093F605F4
:1015D00012E08BC4109290001092910090919100B3
:1015E00098609093910090919100916090939100F8
:1015F000282F30E0F901E655FE4FE491F0E0EE0FC0
:10160000FF1FEA58FE4F45915491F901E051FE4FFA
:10161000E491E093190513E0A9C01092A000109284
:10162000A1009091A10098609093A1009091A100D9
:1016300091609093A100282F30E0F901E655FE4F0C
:10164000E491F0E0EE0FFF1FEA58FE4F45915491F0
:10165000F901E051FE4FE491E093180514E086C0D3
:101660001E2F17FD46C461E00E940A18812F8D7F4E
:1016700009F07FC04101032C000CAA08BB0860E000
:1016800072E18AE790E0A50194010E943B222901C2
:101690003A0169017A0131E0C31AD108E108F10881
:1016A0004FEFC416D104E104F10409F008F44CC072
:1016B00060E472E48FE090E0A50194010E943B2277
:1016C00069017A0181E0C81AD108E108F1081230F5
:1016D00009F59FEFC916D104E104F10409F008F4FB
:1016E000CDC360E970ED83E090E0A50194010E9414
:1016F0003B2269017A01E1E0CE1AD108E108F10844
:10170000FFEFCF16D104E104F10411F008F046C355
:1017100083E025C02FEFC216D104E104F104B1F03B
:10172000A8F068E478EE81E090E0A50194010E94C1
:101730003B2269017A0181E0C81AD108E108F10869
:10174000112309F49FC369C381E001C082E0111134
:1017500006C095B5987F892B85BD6FC085E09091B7
:10176000B100987F892B8093B10067C061E00E942F
:101770000A184101032C000CAA08BB0860E072E1C2
:101780008AE790E0A50194010E943B2269017A0159
:1017900081E0C81AD108E108F108C114D10491E030
:1017A000E906F10488F068E478EE81E090E0A501B4
:1017B00094010E943B2269017A01E1E0CE1AD1082E
:1017C000E108F10883E001C081E0113061F49091FB
:1017D0008100987F892B80938100209781F52FEFDE
:1017E0003FEFA9015BC0133061F490919100987FA5
:1017F000892B80939100209711F52FEF3FEFA901DE
:101800006FC0143061F49091A100987F892B809370
:10181000A1002097A1F42FEF3FEFA90173C015306D
:1018200061F490912101987F892B80932101209769
:1018300031F42FEF3FEFA90177C0209769F09101B4
:10184000220F331FDE010E94D32228EE33E040E056
:1018500050E00E94672203C02FEF3FEFA901123032
:1018600079F12CF4112359F01130C1F042C3143036
:1018700009F448C0ACF1153009F456C03AC3C7BCEE
:1018800020932C0530932D0540932E0550932F0562
:1018900080916E00826080936E002BC3D09289008D
:1018A000C0928800209328053093290540932A058B
:1018B00050932B0580916F00826080936F0019C355
:1018C000C092B3002093F7053093F8054093F905D3
:1018D0005093FA058091700082608093700009C374
:1018E000D0929900C092980020932405309325054A
:1018F0004093260550932705809171008260809364
:101900007100F7C2D092A900C092A80020932005D0
:101910003093210540932205509323058091720056
:10192000826080937200E5C2D0922901C0922801A2
:1019300020931C0530931D0540931E0550931F05F1
:1019400080917300826080937300D3C2913009F05C
:10195000D0C2DF91CF911F910F91FF90EF90DF9058
:10196000CF90BF90AF909F908F907F906F905F903F
:101970004F903F902F900C946817209192043091D3
:101980009304263031050CF082C0888180933105A4
:101990009981909330059C81CB81D0E0F0E89F9FA6
:1019A000C00DD11D1124F901E058FB4F80836CE07C
:1019B00070E007D96CE070E08091300502D982E1D7
:1019C00090E00E94D922DC01209130058091310500
:1019D00090E0FC01E051FE4FE4911496EC931497D3
:1019E00030E0F901E051FE4FE4911596EC93159724
:1019F00086559E4FFC014491E42FF0E0EE0FFF1F4F
:101A0000EA58FE4F4591549117965C934E93169762
:101A1000F901E655FE4FE491F0E0EE0FFF1FE057AD
:101A2000FE4F259134911B963C932E931A97FC01FF
:101A30008491E82FF0E0EE0FFF1FE45AFE4F8591EE
:101A4000949119969C938E931897C53FF1E0DF0708
:101A500014F0C4EFD1E029E32C9FC0012D9F900D1D
:101A600011244C961D969C938E931C978091920402
:101A700090919304FC01EE0FFF1FEA57FB4FB183D7
:101A8000A0830196909393048093920432C285E3DD
:101A900093E06CC18881811189C08A81E980F12C31
:101AA00020E8829FE00CF11C11247B80A72CB12C34
:101AB000CC80D12C653021F58AE190E00E94D922BA
:101AC000EC011B861A86198218821E8A1F8A188EBC
:101AD000198EFF82EE82BD86AC86DF86CE8661E0FF
:101AE000872D0E940A1861E08E850E940A18198AC3
:101AF000188A1B8A1A8A1D8A1C8A82E090E032C0EA
:101B00006730B9F50D8110E0CE818C2E912C8AE1E1
:101B100090E00E94D922EC011B861A861982188255
:101B20001E8A1F8A188E198EFF82EE82BD86AC86B1
:101B3000DF86CE86198B088B9B8A8A8A61E0872D87
:101B40000E940A1861E08E850E940A1861E0888967
:101B50000E940A1861E08A890E940A181D8A1C8A5C
:101B600084E090E099878887D0933305C09332054D
:101B7000C0C182E793E00E948A19412F50E060E0E3
:101B800070E082EA93E0DF91CF911F910F91FF9077
:101B9000EF90DF90CF90BF90AF909F908F907F900D
:101BA0006F905F904F903F902F90ECC6813009F07E
:101BB000AFC0CA80D12CE12CF12C57E0CC0CDD1C3D
:101BC000EE1CFF1C5A95D1F78B8190E0A0E0B0E0AD
:101BD0006EE0880F991FAA1FBB1F6A95D1F7C82A0C
:101BE000D92AEA2AFB2A8981C82A8D810C8110E032
:101BF00030E8839F000D111D1124BE80C091320575
:101C0000D0913305209709F480C02E813F81032EA7
:101C1000000C440B550B60E077E883E993E00E94E9
:101C20003B22CA01B901A70196010E943B222A83E7
:101C30003B834C835D83B11003C01195019511095D
:101C4000780117FF04C0EE24FF24E01AF10A1016F1
:101C500011062CF481E090E09983888304C0012B65
:101C600011F01982188204E010E04AE0C42ED12C51
:101C7000E114F10409F43DC10E9465188E889F8823
:101C8000A88CB98C2B013C01481859086A087B08BC
:101C90008A809B80AC80BD80481459046A047B0410
:101CA00038F36E8B7F8B888F998F288139818A8555
:101CB0009B852130310559F401969B878A872E81B7
:101CC0003F818217930771F41B861A860BC0892BFC
:101CD00021F48E819F819B878A878A859B850197C6
:101CE0009B878A8741E0E41AF108288539858A852F
:101CF0009B852530310511F4B60101C0B8010E9461
:101D0000B822BC01CE01EDD2B3CF8AEA93E02EC057
:101D1000823051F58091320590913305892B09F17C
:101D200080EF0E94FC1982E70E94FC1985E00E9466
:101D3000FC1980E00E94FC1987EFDF91CF911F9181
:101D40000F91FF90EF90DF90CF90BF90AF909F905A
:101D50008F907F906F905F904F903F902F900C945A
:101D6000FC1986ED93E002C08BE094E0DF91CF9107
:101D70001F910F91FF90EF90DF90CF90BF90AF90A9
:101D80009F908F907F906F905F904F903F902F909B
:101D90000C948A19812F0E9470052DCA68E478EE90
:101DA00081E090E0A50194010E943B2269017A0143
:101DB00081E0C81AD108E108F1089FEFC916D104E3
:101DC000E104F10441F138F164E274EF80E090E065
:101DD000A50194010E943B2269017A0191E0C91A90
:101DE000D108E108F108EFEFCE16D104E104F104C7
:101DF00009F008F4B3CC62E17AE780E090E0A50155
:101E000094010E943B2269017A01F1E0CF1AD108C6
:101E1000E108F10818C084E0A2CC9FEFC916D104F4
:101E2000E104F10469F160F162E17AE780E090E0B9
:101E3000A50194010E943B2269017A0181E0C81A40
:101E4000D108E108F1082FEFC216D104E104F10432
:101E500099F090F0D301C2012AE0B595A795979526
:101E600087952A95D1F76C017D01F1E0CF1AD10851
:101E7000E108F10887E073CC86E071CC82E06FCC9A
:101E800084E065CC2FEFC216D104E104F10459F1CE
:101E900050F162E17AE780E090E0A50194010E94B0
:101EA0003B2269017A01E1E0CE1AD108E108F1088C
:101EB000FFEFCF16D104E104F10499F090F0D301C3
:101EC000C2013AE0B595A795979587953A95D1F7D0
:101ED0006C017D01E1E0CE1AD108E108F10885E04E
:101EE00038CC84E036CC83E034CC61E00E940A1820
:101EF000C1CBDF91CF911F910F91FF90EF90DF90B9
:101F0000CF90BF90AF909F908F907F906F905F9099
:101F10004F903F902F90089585ED8093BC00809165
:101F2000BC0084FDFCCF1092260608954091D10597
:101F3000262F30E0240F311D21323105DCF42091B1
:101F400026062430C9F4FC0180E090E0861758F49E
:101F50003091D1052191DC01AF54BA4FA30FB11DCF
:101F60002C930196F3CF8091D105680F6093D10532
:101F700080E0089581E0089582E00895089508952D
:101F80000895E091A8058091A705E81730F4F0E0E6
:101F9000E957FA4F808190E008958FEF9FEF089501
:101FA0009091A8058091A705981750F4E92FF0E0CB
:101FB000E957FA4F208130E09F5F9093A80502C057
:101FC0002FEF3FEFC90108958091A70590E0209180
:101FD000A805821B91090895CF92DF92EF92FF929C
:101FE0000F931F93CF93DF937C01CB018A01209144
:101FF0002706222389F0EB016B01C40ED51ECC15F8
:10200000DD0561F06991D701ED91FC910190F081BE
:10201000E02DC7011995F3CF642F88DFC801DF9148
:10202000CF911F910F91FF90EF90DF90CF90089587
:10203000CF93DF931F92CDB7DEB769832091270638
:102040002223D1F020914A06203240F021E030E0F6
:10205000FC013383228380E090E014C08091280645
:10206000E82FF0E0E75DF94F998190838F5F8093CF
:10207000280680934A0604C061E0CE01019656DF2F
:1020800081E090E00F90DF91CF910895089580E076
:1020900090E00895CF92DF92EF92FF920F931F93FB
:1020A000CF93DF936C018B017A01EC01C355DA4FBA
:1020B000888187FF04C0FB011182108224C02CE0BC
:1020C0002C9DC0012D9D900D11242881AC01420F43
:1020D000511D27FD5A952091B40830E0421753074F
:1020E00094F42881AC01420F511D27FD5A959A01A5
:1020F000FA01EE0FFF1F2E0F3F1FF901EC5DF74FA6
:10210000208126FD19C088818F5F88832CE02C9D5B
:10211000C0012D9D900D11242881AC01420F511D4D
:1021200027FD5A952091B40830E042175307B4F4C4
:1021300028812C303CF112C02881820F911D27FD8F
:102140009A95FC01EE0FFF1F8E0F9F1FFC01EC5DA7
:10215000F74F808160E08F738DD6D5CFF8018081F5
:102160009181049680349C4918F480E49CE904C071
:10217000F801808191810496F701918380838FEF2C
:10218000888344C0F801408151812881BC01620FDD
:10219000711D27FD7A959B01FB01EE0FFF1F2E0F8E
:1021A0003F1FF901EC5DF74F21813281240F351F6C
:1021B000F701318320832881AC01420F511D27FD97
:1021C0005A959A01FA01EE0FFF1F2E0F3F1FF901DA
:1021D000EC5DF74F208126FF19C02881820F911DE9
:1021E00027FD9A95FC01EE0FFF1F8E0F9F1FFC012C
:1021F000EC5DF74F808161E08F73DF91CF911F918C
:102200000F91FF90EF90DF90CF9034C6DF91CF9188
:102210001F910F91FF90EF90DF90CF9008950F9353
:102220001F93CF93DF9381E080938605809185058E
:10223000882329F0109285058FEF80930002E3E454
:10224000F4E0CAE3D4E0ACE7B5E0119219921D9234
:1022500084E0EC34F807C9F706E315E0C0E0DFEFEF
:102260008AEC8C0F803118F462E070E009C08EEFC8
:102270008C0F843418F48C2F2BD605C061E070E0ED
:102280008C2F0E94E105F801D1938F01CF5FC634F6
:1022900039F71092930410929204A0E8B4E0E6E8B3
:1022A000F4E08FE78D9320813181232B11F011828F
:1022B0001082329694E0E239F907A1F710927F0478
:1022C00010927E0410923505109234051092330559
:1022D0001092320510928605DF91CF911F910F91D8
:1022E00008950F931F93CF93DF93EC018B018885A3
:1022F00099850297D9F46130710569F024F4672B50
:10230000A9F460E009C06230710551F063307105D5
:1023100069F460E006C061E08C85ACD561E004C082
:1023200061E08C85A7D560E08E85A4D588859985E8
:10233000049771F501301105A1F044F40115110560
:1023400039F561E08C8596D560E00FC0023011054B
:1023500099F003301105E1F461E08C858BD560E0E4
:102360000FC060E08C8586D561E08E8583D561E005
:10237000888980D560E00AC060E08C857BD561E00B
:102380008E8578D560E0888975D561E08A8972D5B7
:1023900088859985059709F060C00A30110508F015
:1023A0005CC0F8018827EE56FF4F8F4F0C94CB226C
:1023B00060E08C855FD561E041C060E08C855AD5D6
:1023C00061E08E8557D560E03CC060E08C8552D5D9
:1023D00061E08E854FD560E088894CD561E034C0DE
:1023E00060E001C061E08C8545D561E004C061E03A
:1023F0008C8540D560E08E853DD560E007C061E00A
:102400008C8538D560E08E8535D561E0888932D5F8
:1024100061E00AC061E08C852DD560E08E852AD50B
:1024200061E0888927D560E08A8924D560E00FC003
:1024300061E001C060E08C851DD560E08E851AD515
:1024400061E0888917D560E08A8914D561E08C89BC
:10245000DF91CF911F910F910DC5DF91CF911F910A
:102460000F9108951F920F920FB60F9211240BB681
:102470000F922F933F934F935F936F937F938F931D
:102480009F93AF93BF93EF93FF938091B900887FA1
:10249000803609F49CC068F5883209F45BC090F47A
:1024A000803109F454C038F4882309F4F6C0883028
:1024B00009F44DC0F5C0883109F44CC0803209F4EC
:1024C0005DC0EEC0803409F468C048F4803309F47C
:1024D00055C0883309F0E4C080932406D8C0803505
:1024E00009F44FC0883509F45DC0883409F0D8C0BC
:1024F000D6C0883909F4C7C0A8F4883709F467C082
:1025000038F4883609F463C0803709F460C0C8C065
:10251000883809F4B8C0803909F45FC0803809F000
:10252000BFC05BC0803B09F486C038F4803A09F430
:1025300066C0883A09F47FC0B3C0803C09F4A7C0E4
:10254000883C09F4A4C0883B09F48AC0A9C08091E2
:10255000010610C09091230680912206981770F50D
:10256000E091230681E08E0F80932306F0E0EE5F7A
:10257000F94F80818093BB0085EC86C08093240650
:102580008EC0E091230681E08E0F80932306809118
:10259000BB00F0E0EE5FF94F8083909123068091BD
:1025A00022066EC0E091230681E08E0F8093230601
:1025B0008091BB00F0E0EE5FF94F808380912506AB
:1025C00081116DC081E08093000684EA61C083E0E0
:1025D000809326061092F305CFCF8091F3058032C9
:1025E00008F051C0E091F30581E08E0F8093F30570
:1025F0008091BB00F0E0ED52FA4F8083BDCF85ECB7
:102600008093BC00109226068091F305803230F44E
:10261000E091F305F0E0ED52FA4F10826091F3057E
:1026200070E0E091AB05F091AC0583ED95E0199574
:102630001092F30535C084E0809326061092D205EF
:102640001092D105E091A905F091AA051995809104
:10265000D105811105C081E08093D1051092B105AB
:10266000E091D20581E08E0F8093D205F0E0EF5427
:10267000FA4F80818093BB009091D2058091D10563
:10268000981708F479CF85E88093BC0009C085ECE1
:102690008093BC001092260603C0109224063CDCF6
:1026A000FF91EF91BF91AF919F918F917F916F912A
:1026B0005F914F913F912F910F900BBE0F900FBEE6
:1026C0000F901F901895DF92EF92FF920F931F9338
:1026D000CF93DF93EC01D62E7A0189018881803374
:1026E00008F067C061E08D2D95D48881E82FF0E077
:1026F0009F01220F331FE20FF31FEC5DF74F9D2D5B
:102700009F732081207CD22ED92AD08220E232E011
:102710002E193F0937FF02C02D5F3F4F3595279592
:1027200035952795298320E639E0201B310B37FFAB
:1027300002C02D5F3F4F35952795359527952A8304
:102740006CE00E9498229CE0899FB001112440E037
:1027500050E09B01240F351FF901EE0FFF1F2E0FD4
:102760003F1FF901EC5DF74F908196FD16C04F5F5A
:102770005F4F4C30510569F7813021F51092800090
:1027800082E0809381001092850010928400B19ABB
:1027900080916F00826080936F00E881F0E0CF014C
:1027A000880F991FE80FF91FEC5DF74F8081806457
:1027B00080838881DF91CF911F910F91FF90EF90DF
:1027C000DF900895823061F4109290008093910020
:1027D000109295001092940088BB80937100DDCF19
:1027E000833069F41092A00082E08093A1001092DF
:1027F000A5001092A40089BB80937200CECF8111F6
:10280000CCCF1092200182E080932101109225010B
:10281000109224018ABB80937300BFCF1F920F9246
:102820000FB60F9211240BB60F922F933F934F9335
:102830005F936F937F938F939F93AF93BF93EF9328
:10284000FF9348E251E064E271E080E090E022DC36
:10285000FF91EF91BF91AF919F918F917F916F9178
:102860005F914F913F912F910F900BBE0F900FBE34
:102870000F901F9018951F920F920FB60F92112470
:102880000BB60F922F933F934F935F936F937F936A
:102890008F939F93AF93BF93EF93FF9348EA50E0DA
:1028A00064EA70E083E090E0F5DBFF91EF91BF9187
:1028B000AF919F918F917F916F915F914F913F91D8
:1028C0002F910F900BBE0F900FBE0F901F90189579
:1028D0001F920F920FB60F9211240BB60F922F93E7
:1028E0003F934F935F936F937F938F939F93AF9398
:1028F000BF93EF93FF9348E950E064E970E082E012
:1029000090E0C8DBFF91EF91BF91AF919F918F91C4
:102910007F916F915F914F913F912F910F900BBEDF
:102920000F900FBE0F901F9018951F920F920FB629
:102930000F9211240BB60F922F933F934F935F93F7
:102940006F937F938F939F93AF93BF93EF93FF9377
:1029500048E850E064E870E081E090E09BDBFF91A4
:10296000EF91BF91AF919F918F917F916F915F9107
:102970004F913F912F910F900BBE0F900FBE0F9074
:102980001F901895AF92BF92CF92DF92EF92FF9275
:102990000F931F93CF93DF93CDB7DEB7C054D10908
:1029A0000FB6F894DEBF0FBECDBF6C01CB01BA01EC
:1029B0002AE0AE014F5F5F4F7A010E94FC21F701D0
:1029C00001900020E9F731978F010E191F09B80116
:1029D0006F5F7F4F80E090E00E94FA235C010097D8
:1029E00031F0FC011082B7010E94E72402C000E030
:1029F00010E00115110511F419820EC00F331105F5
:102A000010F00FE310E0A801B501C7010E94EE2409
:102A1000F701E00FF11F1082C6017CD4C7017AD400
:102A2000C501C05CDF4F0FB6F894DEBF0FBECDBF4F
:102A3000DF91CF911F910F91FF90EF90DF90CF909A
:102A4000BF90AF900C947123CF92DF92EF92FF92E0
:102A50000F931F93CF93DF936C017A018B01C0E03A
:102A6000D0E0CE15DF0581F0D8016D918D01D60142
:102A7000ED91FC910190F081E02DC6011995892B13
:102A800011F02196EECF7E01C701DF91CF911F910A
:102A90000F91FF90EF90DF90CF900895FC01538D40
:102AA000448D252F30E0842F90E0821B930B541728
:102AB00010F0CF96089501970895FC01918D828DB5
:102AC000981761F0828DDF01A80FB11D5D968C9182
:102AD000928D9F5F9F73928F90E008958FEF9FEF8D
:102AE0000895FC01918D828D981731F0828DE80F49
:102AF000F11D858D90E008958FEF9FEF0895FC0103
:102B0000918D228D892F90E0805C9F4F821B9109CF
:102B10008F73992708958BE496E0F1DF21E0892BEC
:102B200009F420E0822F0895FC01848DDF01A80FB5
:102B3000B11DA35ABF4F2C91848D90E001968F73E5
:102B40009927848FA689B7892C93A089B1898C9104
:102B5000837080648C93938D848D981306C0028853
:102B6000F389E02D80818F7D80830895EF92FF921D
:102B70000F931F93CF93DF93EC0181E0888F9B8DA0
:102B80008C8D981305C0E889F989808185FD25C061
:102B9000F62E0B8D10E00F5F1F4F0F731127E02EE5
:102BA0008C8DE8120BC00FB607FCFACFE889F989C3
:102BB000808185FFF5CFCE01B7DFF2CF8B8DFE018F
:102BC000E80FF11DE35AFF4FF0829FB7F8940B8F87
:102BD000EA89FB89808180620AC09FB7F894EE89F8
:102BE000FF896083E889F9898081837080648083AC
:102BF0009FBF81E090E0DF91CF911F910F91FF90F7
:102C0000EF900895CF93DF93EC01888D8823C1F076
:102C1000EA89FB89808185FD05C0A889B9898C91E5
:102C200086FD0EC00FB607FCF5CF808185FFF2CF81
:102C3000A889B9898C9185FFEDCFCE0175DFE8CFEA
:102C4000DF91CF91089580E090E0892B19F063DF48
:102C5000811125C080E090E0892B41F080E090E078
:102C6000892B21F00E94000081111CC080E090E0BF
:102C7000892B41F080E090E0892B21F00E94000038
:102C8000811113C080E090E0892BA1F080E090E0FA
:102C9000892B81F00E94000081110AC008950E94D2
:102CA0000000D8CF0E940000E1CF0E940000EACFD0
:102CB0000C940000089590E0FC013197E231F10599
:102CC00008F04EC08827E456FF4F8F4F0C94CB225C
:102CD000809180008F7703C0809180008F7D8093EA
:102CE0008000089580918000877FF9CF84B58F7729
:102CF00002C084B58F7D84BD08958091B0008F7728
:102D000003C08091B0008F7D8093B00008958091C2
:102D100090008F7707C0809190008F7D03C08091D5
:102D20009000877F8093900008958091A0008F7716
:102D300007C08091A0008F7D03C08091A000877F95
:102D40008093A0000895809120018F7707C0809123
:102D500020018F7D03C080912001877F8093200117
:102D600008950E94DA241F920F920FB60F92112439
:102D70000BB60F922F933F934F935F936F937F9375
:102D80008F939F93AF93BF93EF93FF938BE496E062
:102D9000CBDEFF91EF91BF91AF919F918F917F918A
:102DA0006F915F914F913F912F910F900BBE0F90BC
:102DB0000FBE0F901F9018951F920F920FB60F9293
:102DC00011240BB60F922F938F939F93EF93FF9342
:102DD000E0915B06F0915C068081E0916106F091E4
:102DE000620682FD12C09081809164068F5F8F73AE
:102DF00020916506821751F0E0916406F0E0E55BF2
:102E0000F94F958F8093640601C08081FF91EF9107
:102E10009F918F912F910F900BBE0F900FBE0F902F
:102E20001F901895CF93DF93282F30E0F901EA5CCB
:102E3000FD4F8491F901E051FE4FD491F901E6551F
:102E4000FE4FC491CC2389F0811135DFEC2FF0E0E7
:102E5000EE0FFF1FE057FE4FA591B491EC91ED23CB
:102E600081E090E021F480E002C080E090E0DF911A
:102E7000CF9108951F93CF93DF93282F30E0F9016E
:102E8000EA5CFD4F8491F901E051FE4FD491F901C4
:102E9000E655FE4FC491CC23B9F0162F81110BDFFC
:102EA000EC2FF0E0EE0FFF1FEA58FE4FA591B49112
:102EB0009FB7F894111104C08C91D095D82302C00B
:102EC000EC91DE2BDC939FBFDF91CF911F91089592
:102ED0009091030289133DC0ECE7F2E0E4919FEF8B
:102EE00090930302E230C9F050F4EE2399F0E13000
:102EF00081F590916F009D7F90936F002AC0E43020
:102F000019F1E0F0E53029F5909173009D7F9093E1
:102F100073001FC010926E001CC0909170009D7FC6
:102F20009093700091E09093B0009091B100987FE1
:102F300094609093B1001092B3000BC09091710017
:102F40009D7F9093710005C0909172009D7F90933A
:102F5000720060E08FCF1F920F920FB60F92112474
:102F60000BB60F922F933F934F935F936F937F9383
:102F70008F939F93AF93BF93EF93FF938091F70548
:102F80009091F805A091F905B091FA05892B8A2B4B
:102F90008B2B51F19091F605E091F405F091F50538
:102FA0008081892780838091F7059091F805A09111
:102FB000F905B091FA05181619061A061B06BCF495
:102FC0008091F7059091F805A091F905B091FA0567
:102FD0000197A109B1098093F7059093F805A09393
:102FE000F905B093FA0503C08091030271DFFF91E8
:102FF000EF91BF91AF919F918F917F916F915F9171
:103000004F913F912F910F900BBE0F900FBE0F90DD
:103010001F901895CF93DF9390E0FC01E051FE4F95
:103020002491FC01E655FE4F8491882361F190E0E4
:10303000880F991FFC01E45AFE4FC591D491FC0101
:10304000EA58FE4FA591B491611109C09FB7F89459
:103050008881209582238883EC912E230BC06230D7
:1030600061F49FB7F8948881322F30958323888349
:10307000EC912E2B2C939FBF06C08FB7F894E8815C
:103080002E2B28838FBFDF91CF910895863308F0D0
:10309000865390917B00282F2870977F922B9093D6
:1030A0007B008770806480937C0080917A008064CC
:1030B00080937A0080917A0086FDFCCF8091780021
:1030C0002091790090E0922B08953FB7F894809179
:1030D000FC059091FD05A091FE05B091FF0526B578
:1030E000A89B05C02F3F19F00196A11DB11D3FBF40
:1030F000BA2FA92F982F8827820F911DA11DB11DCE
:10310000BC01CD0142E0660F771F881F991F4A95C9
:10311000D1F708958F929F92AF92BF92CF92DF9294
:10312000EF92FF926B017C01D0DF4B015C01C11477
:10313000D104E104F104E9F0C8DFDC01CB01881916
:103140009909AA09BB09883E9340A105B10578F306
:1031500021E0C21AD108E108F10888EE880E83E068
:10316000981EA11CB11CC114D104E104F10421F783
:10317000DECFFF90EF90DF90CF90BF90AF909F9009
:103180008F9008951F920F920FB60F9211242F93D4
:103190003F938F939F93AF93BF9380914C049091F3
:1031A0004D04A0914E04B0914F043091FB0523E0F3
:1031B000230F2D3720F40196A11DB11D05C026E86F
:1031C000230F0296A11DB11D2093FB0580934C0493
:1031D00090934D04A0934E04B0934F048091FC054E
:1031E0009091FD05A091FE05B091FF050196A11DEE
:1031F000B11D8093FC059093FD05A093FE05B0934F
:10320000FF05BF91AF919F918F913F912F910F90AB
:103210000FBE0F901F9018950F931F93CF93DF93BE
:10322000EC0108EE16E0D8018D919C916C2F6F7720
:10323000DC01ED91FC910190F081E02D1995F801F0
:1032400080819181CC0FCD2FCC1FDD0B6C2F6F7740
:10325000DC01ED91FC910190F081E02DDF91CF91A7
:103260001F910F9119948091E8069091E906DC0175
:10327000ED91FC910190F081E02D67EF1994809120
:10328000E8069091E906DC01ED91FC910190F08156
:10329000E02D60EF1994CF93DF93EB01A091E80646
:1032A000B091E9068F70682F606EED91FC911197D7
:1032B0000190F081E02DCD011995CE01DF91CF91E4
:1032C000ABCFFF920F931F93CF93DF93C82F162F8F
:1032D000F42E052FD4DF8091E8069091E906DC01F9
:1032E000ED91FC910190F081E02D6C2F1995CF2D7F
:1032F000D02FCE01810F911D8C01C017D10721F075
:10330000899190E089DFF9CFDF91CF911F910F91E3
:10331000FF90A9CFFC0101900020E9F73197BF0190
:10332000681B790BAC0181E7CCCFCF93DF93A7DF8C
:103330008091E8069091E906DC01ED91FC91019005
:10334000F081E02D69E719958091E8069091E906F2
:10335000A091EB06B091EC06EC01E881F9810190B7
:10336000F081E02D6C9119958091E8069091E90625
:10337000A091EB06B091EC06EC01E881F981019097
:10338000F081E02D11966C911995C2E08091EA06CA
:10339000C81758F4E091EB06F091EC06EC0FF11D24
:1033A000808190E039DFCF5FF1CFDF91CF915BCFAC
:1033B000CF93DF93C8EED6E088819981DC01ED914F
:1033C000FC910190F081E02D69EF19958881998138
:1033D000DC01ED91FC910190F081E02D62E0199506
:1033E00088819981DC01ED91FC910190F081E02DC3
:1033F00065E0DF91CF911994A091E806B091E906BC
:10340000ED91FC9111970190F081E02D682FCD0195
:103410001994282F30914A06313208F04AC0809121
:1034200026068111FCCF9091490642E04093260682
:10343000209325062FEF2093240610922306309325
:103440002206E9E2F6E0A2E0B6E020E0321721F041
:1034500041914D932F5FFACF109201062091010602
:10346000990F922B9093010690910006913061F490
:1034700010920006909101069093BB009091BC00C1
:1034800093FDF8CF95EC01C095EE9093BC00909120
:1034900026069230E1F3909124069F3F79F08091C7
:1034A0002406803241F080912406803331F084E09C
:1034B00005C081E003C082E001C083E010922806CD
:1034C00010924A061092270608951092ED06109267
:1034D000EE061092EF06E0EFF6E0119287E0E0339F
:1034E000F807D9F71092300710923207109231077F
:1034F000E0911108F0911208309709F0199408959D
:10350000789484B5826084BD84B5816084BD85B5BE
:10351000826085BD85B5816085BD80916E008160CA
:1035200080936E0010928100809181008260809370
:103530008100809181008160809381008091800072
:103540008160809380008091B10084608093B1009D
:103550008091B00081608093B00080919100826082
:10356000809391008091910081608093910080917F
:1035700090008160809390008091A1008260809390
:10358000A1008091A10081608093A1008091A000A2
:1035900081608093A000809121018260809321014D
:1035A00080912101816080932101809120018160BF
:1035B0008093200180917A00846080937A008091CA
:1035C0007A00826080937A0080917A008160809393
:1035D0007A0080917A00806880937A001092C1000E
:1035E00086E18093EA068091EB069091EC060E94BA
:1035F0007123C091EA06D0E0CE010196DAD790930C
:10360000EC068093EB06FC01EC0FFD1F108212E02C
:10361000DC011C9325E011962C93AE014250510918
:103620006FE872E002960E94EE248DE592E090939E
:1036300006088093050887EA91E090930808809334
:10364000070882E791E090930A08809309088CE3C9
:1036500094E090930C0880930B0881EE95E0909392
:103660000E0880930D0882EE93E0909310088093EB
:103670000F0884E597E090931608809315088FE073
:1036800091E19093120880931108E0915B06F0910C
:103690005C061083E0915B06F0915C061082E0917D
:1036A0005706F09158061082E0915906F0915A069B
:1036B00080E1808310926306E0915F06F0916006DE
:1036C00086E08083E0915D06F0915E0680818061F6
:1036D0008083E0915D06F0915E0680818860808342
:1036E000E0915D06F0915E06808180688083E091C4
:1036F0005D06F0915E0680818F7D80838BE496E08D
:103700009093E9068093E80680911708811135C0EF
:1037100061E08DE07FDCC0E062ED70E080E090E091
:10372000F9DC61E08DE0A6DB68E270E080E090E02B
:10373000F1DC60E08DE09EDBCF5FC23069F76AEFBD
:1037400070E080E090E0E6DCC0E062ED70E080E0F8
:1037500090E0E0DC61E08DE08DDB68E270E080E02D
:1037600090E0D8DC60E08DE085DBCF5FC53069F7A5
:103770006DE770E080E090E0CDDC1ADE8091EA0633
:103780008111D3DD0E940F117724739452E0652ECE
:1037900068EEE62E63E0F62E7BE0C72ED12CE3E246
:1037A000AE2EB12CF9E38F2E912C80914304882307
:1037B00091F1D0913A04D2FF0FC582E033DB892B1F
:1037C00009F40AC5C4E0D3FF05C083E02BDB892BD5
:1037D00009F004C5D4FF05C084E024DB892B09F07F
:1037E000FFC4D5FF05C085E01DDB892B09F0FAC4B5
:1037F000D6FF05C086E016DB892B09F0F5C4D7FF9C
:1038000005C087E00FDB892B09F0F0C440E06C2F86
:1038100080E00E94F70380914404882309F440C0AB
:10382000D0913B04D0FFE4C488E0FCDA892B09F492
:10383000DFC4C1E0D1FF05C089E0F4DA892B09F0CB
:10384000D9C4D2FF05C08AE0EDDA892B09F0D4C4CF
:10385000D3FF05C08BE0E6DA892B09F0CFC4D4FF93
:1038600005C08CE0DFDA892B09F0CAC4D5FF05C09A
:103870008DE0D8DA892B09F0C5C4D6FF05C08EE0EB
:10388000D1DA892B09F0C0C4D7FF05C08FE0CADAAE
:10389000892B09F0BBC440E06C2F81E00E94F70344
:1038A00080914504882309F440C0D0913C04D0FFA6
:1038B000AFC480E1B7DA892B09F4AAC4C1E0D1FF13
:1038C00005C081E1AFDA892B09F0A4C4D2FF05C09D
:1038D00082E1A8DA892B09F09FC4D3FF05C083E1F8
:1038E000A1DA892B09F09AC4D4FF05C084E19ADAE1
:1038F000892B09F095C4D5FF05C085E193DA892BA2
:1039000009F090C4D6FF05C086E18CDA892B09F056
:103910008BC4D7FF05C087E185DA892B09F086C4FF
:1039200040E06C2F82E00E94F703809146048823D8
:1039300009F440C0D0913D04D0FF7AC488E172DA26
:10394000892B09F475C4C1E0D1FF05C089E16ADAA9
:10395000892B09F06FC4D2FF05C08AE163DA892B95
:1039600009F06AC4D3FF05C08BE15CDA892B09F04A
:1039700065C4D4FF05C08CE155DA892B09F060C419
:10398000D5FF05C08DE14EDA892B09F05BC4D6FF67
:1039900005C08EE147DA892B09F056C4D7FF05C070
:1039A0008FE140DA892B09F051C440E06C2F83E0AD
:1039B0000E94F70380914704882309F440C0D09106
:1039C0003E04D0FF45C480E22DDA892B09F440C4BF
:1039D000C1E0D1FF05C081E225DA892B09F03AC4A4
:1039E000D2FF05C082E21EDA892B09F035C4D3FF6D
:1039F00005C083E217DA892B09F030C4D4FF05C073
:103A000084E210DA892B09F02BC4D5FF05C085E2CA
:103A100009DA892B09F026C4D6FF05C086E202DA4E
:103A2000892B09F021C4D7FF05C087E2FBD9892B78
:103A300009F01CC440E06C2F84E00E94F7038091E1
:103A40004804882309F440C0D0913F04D0FF10C43B
:103A500088E2E8D9892B09F40BC4C1E0D1FF05C085
:103A600089E2E0D9892B09F005C4D2FF05C08AE2BA
:103A7000D9D9892B09F000C4D3FF05C08BE2D2D974
:103A8000892B09F0FBC3D4FF05C08CE2CBD9892B6D
:103A900009F0F6C3D5FF05C08DE2C4D9892B09F022
:103AA000F1C3D6FF05C08EE2BDD9892B09F0ECC366
:103AB000D7FF05C08FE2B6D9892B09F0E7C340E0F4
:103AC0006C2F85E00E94F70380914904882309F454
:103AD00040C0D0914004D0FFDBC380E3A3D9892B41
:103AE00009F4D6C3C1E0D1FF05C081E39BD9892B7E
:103AF00009F0D0C3D2FF05C082E394D9892B09F025
:103B0000CBC3D3FF05C083E38DD9892B09F0C6C38E
:103B1000D4FF05C084E386D9892B09F0C1C3D5FF42
:103B200005C085E37FD9892B09F0BCC3D6FF05C04A
:103B300086E378D9892B09F0B7C3D7FF05C087E39F
:103B400071D9892B09F0B2C340E06C2F86E00E9446
:103B5000F70380914A04882309F440C0D0914104BE
:103B6000D0FFA6C388E35ED9892B09F4A1C3C1E0C5
:103B7000D1FF05C089E356D9892B09F09BC3D2FF39
:103B800005C08AE34FD9892B09F096C3D3FF05C03E
:103B90008BE348D9892B09F091C3D4FF05C08CE38E
:103BA00041D9892B09F08CC3D5FF05C08DE33AD9E3
:103BB000892B09F087C3D6FF05C08EE333D9892B43
:103BC00009F082C3D7FF05C08FE32CD9892B09F0F8
:103BD0007DC340E06C2F87E00E94F70380914B0487
:103BE000882391F1D0914204D0FF72C380E41AD9A6
:103BF000892B09F46DC3C1E0D1FF05C081E412D95E
:103C0000892B09F067C3D2FF05C082E40BD9892B49
:103C100009F062C3D3FF05C083E404D9892B09F0FE
:103C20005DC3D4FF05C084E4FDD8892B09F058C3D7
:103C3000D5FF05C085E4F6D8892B09F053C340E0D1
:103C40006C2F88E00E94F7038091E8069091E906C6
:103C5000DC01ED91FC910084F185E02D1995892B13
:103C600009F428C18091E8069091E906DC01ED9104
:103C7000FC910284F385E02D19958F3FBFEF9B07E0
:103C800019F3382F20913007222309F466C0873FAB
:103C900009F054C0109230078091F006813749F046
:103CA000893709F03DC08091EA06882369F23DDB3F
:103CB000CBCFE0911308F0911408309729F280914E
:103CC000310790913207DC011197B7FDDC01BD018E
:103CD00075956795562FC8EED6E0CE0130E0029676
:103CE0002196351770F4DC0117962C9117972F83C6
:103CF00018964C91479544274795240F2F833F5F93
:103D0000EECFDB01BB27A851B94F17968C911797BF
:103D1000882311F018961C9280EF96E0199594CFA5
:103D2000E0911508F0911608309709F48DCF609155
:103D30003107615041EF56E0199586CF2091310748
:103D400030913207F901E851F94F80872F5F3F4FDB
:103D5000309332072093310777CF2091ED0622234D
:103D600009F469C087FD67C09FEF920F9093ED063D
:103D7000E92FF0E0E851F94F8087911165CF8091EC
:103D8000EE06882309F460CF803D09F445C050F465
:103D9000803901F1803C09F04BC0E0910908F091B5
:103DA0000A083EC0843F39F1853F51F1803E09F059
:103DB0003FC0E0910508F09106083097C9F1809165
:103DC000F0066091F10670E0B0E88B9F600D711D08
:103DD00011242BC0E0910708F0910808309741F1B9
:103DE0008091F0066091F10670E020E8829F600DFE
:103DF000711D11241AC0E0910D08F0910E0804C045
:103E0000E0910F08F0911008309791F06091F00662
:103E100070E08091F1060BC0E0910B08F0910C0866
:103E2000309731F06091F00670E08091EF061995BF
:103E30001092EE0609CF303F38F4282F207F30E073
:103E40008F708093EF0602C09C013327203F31051D
:103E500041F17CF4203C3105F9F024F4203931059E
:103E6000C1F0F2CE203D3105B9F0203E310589F098
:103E7000EBCE293F3105E1F034F4C901845F9109AB
:103E8000029738F0E1CE2F3F310509F0DDCE1DDB82
:103E9000DBCE6092ED0602C07092ED062093EE0636
:103EA000D3CE709230071092320710923107CCCEE9
:103EB0007FDACACE8FB7F89440914C0450914D04EC
:103EC00060914E0470914F048FBF20909D043090FC
:103ED0009E0440909F045090A004209101023091D4
:103EE0000202C901A0E0B0E0421953096409750952
:103EF00084179507A607B70708F06BC1820D931DBD
:103F0000A41DB51D80939D0490939E04A0939F04CF
:103F1000B093A00480919B0490919C049C012F5F1E
:103F20003F4F30939C0420939B0420919404309144
:103F30009504281739070CF0CAC010929C041092FF
:103F40009B048091920490919304892B09F4BFC043
:103F50000091990410919A04F801EE0FFF1FEA579F
:103F6000FB4FC081D181E885F98590818C81892BB7
:103F70008083EE81FF8190818C818095892380836D
:103F8000C6010197F1F7EE81FF8190818C81892B29
:103F90008083C5010197F1F7EE81FF8190818C81CB
:103FA000809589238083E885F98590818C8180952F
:103FB000892380838AD8DC01CB01805B994BAF4F8A
:103FC000BF4F8E879F87A88BB98BEA85FB85908131
:103FD0008D81892351F079D82E853F85488959896B
:103FE000261737074807590780F7EA85FB85908130
:103FF0008D81892369F469D82E853F85488959893F
:10400000261737074807590780F780E090E02AC055
:104010005CD82C853D85DC01CB01820F931FA11D4F
:10402000B11D8E879F87A88BB98BEA85FB85908110
:104030008D81892359F049D82E853F854889598932
:10404000261737074807590780F7DFCF3ED82C855A
:104050003D85255031094E855F85241B350BC901EF
:10406000860F971FB40170D2CB010093980498017A
:104070002F5F3F4F30939A0420939904209192042C
:1040800030919304215031090217130724F0109244
:104090009A04109299046F7760939704880F892F80
:1040A000881F990B8093960480EFA6D983E6A4D944
:1040B000E0919804F0E0E058FB4F80819DD9809119
:1040C00097049AD98091960497D987EF95D9C3E33D
:1040D000D7E01AEC1031A8F48881823091F48091F5
:1040E0007E0490917F04012E02C0959587950A94D5
:1040F000E2F780FF06C0812F0E944618BC01812F85
:10410000CAD81F5F2196103129F78091000287FDE0
:104110001CC0C0E02C2F30E080910002082E000C63
:10412000990B821793078CF085E0829FF001839FA3
:10413000F00D1124EA5AFB4F618172812481438181
:1041400080810E94C104CF5FE5CF8091540490919B
:104150005504892B09F43DC08FB7F89440914C0465
:1041600050914D0460914E0470914F048FBF809127
:10417000500490915104A0915204B0915304481BF3
:10418000590B6A0B7B0B20915404309155042E9DE2
:10419000C0012F9D900D3E9D900D1124A0E0B0E038
:1041A00084179507A607B707A0F40E940F1140E0F7
:1041B00050E0BA0184EA92E00E94C21498E088E1DB
:1041C0000FB6F894A895809360000FBE909360009E
:1041D000FFCF0E942316E9CAC0E0F5CAC860FACA38
:1041E000C061FFCAC06204CBC06409CBC0680ECBFB
:1041F000C0E020CBC26025CBC4602ACBC8602FCBE7
:10420000C06134CBC06239CBC0643ECBC06843CB05
:10421000C0E055CBC2605ACBC4605FCBC86064CBF2
:10422000C06169CBC0626ECBC06473CBC06878CB11
:10423000C0E08ACBC2608FCBC46094CBC86099CBFE
:10424000C0619ECBC062A3CBC064A8CBC068ADCB1D
:10425000C0E0BFCBC260C4CBC460C9CBC860CECB0A
:10426000C061D3CBC062D8CBC064DDCBC068E2CB29
:10427000C0E0F4CBC260F9CBC460FECBC86003CC15
:10428000C06108CCC0620DCCC06412CCC06817CC31
:10429000C0E029CCC2602ECCC46033CCC86038CC1E
:1042A000C0613DCCC06242CCC06447CCC0684CCC3D
:1042B000C0E05ECCC26063CCC46068CCC8606DCC2A
:1042C000C06172CCC06277CCC0647CCCC06881CC49
:1042D000C0E092CCC26097CCC4609CCCC860A1CC3A
:1042E000C061A6CCC062ABCCCF92DF92EF92FF92BE
:1042F00010924E0610924D0678EEC72E73E0D72E20
:10430000E12CF12CC0924F06D0925006E09251065B
:10431000F09252068EE092E090934C0680934B060A
:1043200085EC90E0909358068093570684EC90E0DB
:1043300090935A068093590680EC90E090935C0627
:1043400080935B0681EC90E090935E0680935D061F
:1043500082EC90E09093600680935F0686EC90E09C
:10436000909362068093610610926406109265062F
:104370001092660610926706109217081092EA06CD
:104380001092EC061092EB06A0D810921B08109227
:104390001A08C0921C08D0921D08E0921E08F092E4
:1043A0001F0880E292E0909319088093180880918A
:1043B000B408A5EBB8E09FEF48EB5BE0803378F4FE
:1043C0008C93282F30E0F901EE0FFF1F2E0F3F1FB7
:1043D000F901EC5DF74F528341838F5F01C09C93DD
:1043E000139629E0A534B20749F78093B408FF90EB
:1043F000EF90DF90CF900895BB272A3051F4992396
:1044000042F4BDE290958095709561957F4F8F4FF6
:104410009F4F01C0BB27FA01A62F621771058105C6
:104420009105330B30FB66F0AA27660F771F881FB4
:10443000991FAA1FA21710F0A21B63953850A9F765
:10444000A05DAA3308F0A95DA19336F7B111B1932D
:104450001082CA0100C0DC01FC01672F7191772333
:10446000E1F7329704C07C916D9370836291AE172F
:10447000BF07C8F30895052E97FB16F400940FD0DC
:1044800057FD05D024D007FC02D046F408C0509553
:104490004095309521953F4F4F4F5F4F0895909530
:1044A0008095709561957F4F8F4F9F4F089531D0C4
:1044B000A59F900DB49F900DA49F800D911D112478
:1044C0000895B7FFF4CFF3DF821B930B0895A1E2A9
:1044D0001A2EAA1BBB1BFD010DC0AA1FBB1FEE1F7E
:1044E000FF1FA217B307E407F50720F0A21BB30BC9
:1044F000E40BF50B661F771F881F991F1A9469F745
:1045000060957095809590959B01AC01BD01CF01A0
:104510000895A29FB001B39FC001A39F700D811D9C
:104520001124911DB29F700D811D1124911D0895BC
:10453000991B79E004C0991F961708F0961B881FF5
:104540007A95C9F780950895AA1BBB1B51E107C056
:10455000AA1FBB1FA617B70710F0A61BB70B881F13
:10456000991F5A95A9F780959095BC01CD010895A2
:1045700097FB072E16F4009406D077FD08D0E4DFF1
:1045800007FC05D03EF4909581959F4F0895709556
:1045900061957F4F0895EE0FFF1F881F8BBF079017
:1045A000F691E02D1994B5DFB7FF0895821B930BA8
:1045B00008950F931F93CF93DF938230910510F4EA
:1045C00082E090E0E0914709F091480920E030E076
:1045D000A0E0B0E0309719F1408151810281138150
:1045E00048175907C8F08417950769F4109731F0F8
:1045F00012960C93129713961C9327C000934709A9
:104600001093480922C02115310519F042175307AC
:1046100018F49A01BD01EF01DF01F801DBCF21158C
:104620003105F9F0281B390B2430310580F48A81DB
:104630009B816115710521F0FB019383828304C086
:104640009093480980934709FE01329644C0FE01C9
:10465000E20FF31F8193919322503109398328830C
:104660003AC02091450930914609232B41F420910D
:1046700006023091070230934609209345092091A4
:104680000402309105022115310541F42DB73EB7E2
:104690004091080250910902241B350BE091450915
:1046A000F0914609E217F307A0F42E1B3F0B2817E1
:1046B000390778F0AC014E5F5F4F2417350748F09B
:1046C0004E0F5F1F50934609409345098193919384
:1046D00002C0E0E0F0E0CF01DF91CF911F910F9198
:1046E0000895CF93DF93009709F481C0FC013297BE
:1046F00013821282A0914709B0914809109781F462
:1047000020813181820F931F209145093091460904
:104710002817390751F5F0934609E093450967C01A
:10472000ED0120E030E0CE17DF0740F44A815B81E5
:104730009E0141155105F1F0EA01F5CFD383C28303
:1047400040815181840F951FC817D90759F488817A
:104750009981840F951F0296918380838A819B8122
:10476000938382832115310529F4F0934809E0935E
:1047700047093DC0E901FB83EA8349915991C40F80
:10478000D51FEC17FD0761F480819181840F951F7F
:104790000296E90199838883828193819B838A832E
:1047A000E0E0F0E012968D919C911397009719F03C
:1047B000FD01DC01F7CF8D919C9111979D012E5F3A
:1047C0003F4F820F931F20914509309146092817CA
:1047D000390769F4309729F4109248091092470973
:1047E00002C013821282B0934609A0934509DF915B
:1047F000CF9108956F927F928F929F92AF92BF92C6
:10480000CF92DF92EF92FF920F931F93CF93DF939C
:10481000009781F4CB01DF91CF911F910F91FF9011
:10482000EF90DF90CF90BF90AF909F908F907F9050
:104830006F90BFCEFC01E60FF71F9C01225031099B
:10484000E217F30708F4A5C0EC01D9010D911C9102
:10485000119706171707A8F00530110508F497C03F
:10486000C80104978617970708F491C002501109F0
:10487000061B170B019311936D937C93CF0131DFCE
:1048800086C05B01A01AB10A4C01800E911EA09156
:104890004709B0914809612C712CE12CF12C10973B
:1048A00009F446C08D919C911197A815B905B1F5F1
:1048B0006C0142E0C40ED11CCA14DB0478F14C0137
:1048C0008A189B08640142E0C40ED11C1296BC9069
:1048D00012971396AC91B5E0CB16D10440F0B2829A
:1048E000A38391828082D9016D937C9309C00E5F6E
:1048F0001F4F800F911FF90191838083EB2DFA2FB9
:10490000E114F10431F0D7011396FC93EE93129762
:104910003EC0F0934809E093470939C0681679060C
:1049200008F43C017D0112960D90BC91A02DB7CFEB
:10493000809145099091460988169906E1F466161A
:104940007706C8F48091040290910502009741F423
:104950008DB79EB74091080250910902841B950BB8
:10496000E817F907B0F4F0934609E0934509F90117
:10497000718360830CC0CB011CDE7C01009749F081
:10498000A801BE011BD0CE01ACDEC70104C0CE0120
:1049900002C080E090E0DF91CF911F910F91FF90D6
:1049A000EF90DF90CF90BF90AF909F908F907F90CF
:1049B0006F90089581E090E0F8941FC0FB01DC0146
:1049C00002C001900D9241505040D8F70895FB016C
:1049D000DC0101900D920020E1F70895FB01DC015C
:1049E0004150504048F001900D920020C9F701C09D
:0E49F0001D9241505040E0F70895F894FFCF1B
:1049FE00FF1300FF00004909800000000000B615FB
:104A0E0024154E1502167F155D1571150000000058
:104A1E001810EC0F4710C00FE40FD00FC10F463A1D
:104A2E005C4C6F67696369656C735C50726F6A6525
:104A3E0074735C626C6F636B6C7940726475696ED3
:104A4E006F5F41494F5F656C656374726F6E5C4456
:104A5E00656275675F4275696C645C4240656C6542
:104A6E006374726F6E5C61726475696E6F5C4669B9
:104A7E00726D617461506C75732D333275345C4692
:104A8E0069726D617461506C75732D333275342E8D
:104A9E00696E6F0078004932433A20546F6F206D73
:104AAE00616E7920627974657320726563656976CB
:104ABE006564004932433A20546F6F206665772053
:104ACE006279746573207265636569766564004DFD
:104ADE00617820736572766F732061747461636898
:104AEE00656400556E6B6E6F776E2070696E206D0B
:104AFE006F64650031302D62697420616464726583
:104B0E007373696E67206E6F7420737570706F7239
:104B1E0074656400746F6F206D616E7920717565B8
:104B2E00726965730050494E475F434F4E46494781
:104B3E00204572726F723A204578636565646564CC
:104B4E00206E756D626572206F6620737570706F62
:104B5E00727465642070696E67206465766963653A
:104B6E0073005354455050455220434F4E464947CB
:104B7E00204572726F723A2057726F6E67204E75B3
:104B8E006D626572206F6620617267756D656E74F9
:104B9E00730061726763203D2000535445505045A9
:104BAE0052204F504552415445204572726F723A11
:104BBE00204D4F544F52204E4F5420434F4E464996
:104BCE00475552454400535445505045522046498E
:104BDE00524D574152452056455253494F4E20454E
:104BEE0072726F723A204E4F204D4F544F525320D7
:104BFE00434F4E4649475552454400535445505035
:104C0E00455220434F4E464947204572726F723AC5
:104C1E0020554E4B4E4F574E2053544550504552F3
:0A4C2E0020434F4D4D414E4400005D
:00000001FF
