:100000000C9410010C9438010C9438010C943801B4
:100010000C9438010C9438010C9438010C9438017C
:100020000C9438010C9438010C944C0B0C94BE0BBE
:100030000C9438010C9438010C9438010C9438015C
:100040000C9438010C940A190C9438010C94380162
:100050000C9438010C9438010C9438010C9432162D
:100060000C9438010C9438010C9438010C9438012C
:100070000C9438010C9438010C9438010C9438011C
:100080000C94FC0D0C9438010C9438010C9438013C
:100090000C945C170C9438010C9438010C943801C2
:1000A0000C9438010C9438010C943801AD0AB00A54
:1000B0009F0AA30AA90AD10AD10AD10AB40AB80A26
:1000C000BC0AC20AC60AD10ACC0AA911AE11B311E0
:1000D000BD11C711111211121112D111DB11E5114D
:1000E000EF11FC1111120412411466143214791428
:1000F0009A14E414C214E414DC14E4140B15501420
:10010000D514CE14ED16F316FD160B170D17131795
:100110001D172B173D173F17070605040100080A96
:100120000B0C0D0900000000240027002A002D0000
:10013000300000000000250028002B002E003100B8
:10014000000000002300260029002C002F000404DA
:100150000404040304050202020204030202020270
:100160000606060606060404020202040404080247
:10017000011040804010204080408008020401802F
:10018000402010020110801020404020000000029A
:1001900000090F0000030401000C00000000000033
:1001A000000000000000000000000003080B000237
:1001B00002020100090400000102020000052400FF
:1001C0001001052401010104240206052406000192
:1001D0000705810310004009040100020A00000025
:1001E00007050202400000070583024000000403E7
:1001F000090412010002EF0201404123378000018F
:100200000102030141726475696E6F204C4C43001A
:1002100041726475696E6F204D6963726F009E2133
:1002200011241FBECFEFDAE0DEBFCDBF13E0A0E0A8
:10023000B1E0E4E5FAE402C005900D92AC34B107F8
:10024000D9F726E0ACE4B3E001C01D92A137B207B4
:10025000E1F711E0C0E1D1E004C02197FE010E9466
:100260001023CF30D107C9F70E94FE1B0C9428251C
:100270000C9400002F923F924F925F926F927F9268
:100280008F929F92AF92BF92CF92DF92EF92FF92A6
:100290000F931F93CF93DF93162FEA018D3609F446
:1002A0006CC2C8F4823609F41AC538F4803509F4F2
:1002B000AFC18F3509F4B3C277C7893609F49DC23F
:1002C0008B3609F071C780EF0E94271B8CE60E94D5
:1002D000271BC0E02AC2823709F490C538F48F3654
:1002E00009F4D6C1803709F443C15EC7883709F4E1
:1002F000EAC08A3709F4ACC1863709F055C72981AD
:10030000922F987125FF03C089EB91E0E5C68881A3
:1003100026FB222720F931E02327983071F168F479
:10032000911142C791E09093E004809302051092EE
:10033000E1041092030502E007C0903109F448C0BF
:10034000983109F473C030C7011778F4FE01E00F4B
:10035000F11D61816795662767958081680F8CE044
:1003600096E00E94A3150E5FEFCF81E00E94341B40
:1003700083E191E00197F1F717C74B816A8116304D
:1003800069F470E030E8439F600D711D11244D81C8
:100390004795442747959C81490F06C047954427B8
:1003A0004795460F6FEF7FEFDF91CF911F910F9130
:1003B000FF90EF90DF90CF90BF90AF909F908F9085
:1003C0007F906F905F904F903F902F900C9482128F
:1003D000E0910801E7301CF089ED91E07DC69B813A
:1003E0003A81663071F4632F70E040E8949F600DAD
:1003F000711D11249D819795992797954C81940F94
:1004000006C0979599279795930F6FEF7FEFEF5F52
:10041000E093080135E0E302F0011124E05AFC4FBB
:1004200080837283618393832483BEC620910801F5
:1004300012163CF490E0622F022E000C770B35E090
:100440000FC08FEF80930801AFC6349FF001359F36
:10045000F00D1124E05AFC4F4081841739F09F5F62
:10046000492F50E06417750784F790E085E022C0BB
:100470009830F8F4FA0131968E9FD0018F9FB00D1D
:100480001124A05ABC4F3C91849FF001859FF00D30
:100490001124E05AFC4F308311964D915C911297D4
:1004A0005283418313963C911397338314963C9166
:1004B00034839F5F492F50E064177507CCF62150B5
:1004C0002093080171C62981888190E040E8249F2B
:1004D000800D911D1124009721F09093AC0380931F
:1004E000AB0380914A0481115FC6C0E08EEF8C0F90
:1004F000823028F466E070E08C2F0E94A213CF5F58
:10050000CE31A1F781E080934A0410926D041092DD
:100510006C041092E104109203051092DF048093A2
:10052000DE041092B90461E082E00E94800E61E076
:1005300083E00E94800E8091B9008E7F8093B90085
:100540008091B9008D7F8093B90088E48093B800D2
:1005500085E48093BC0088E495E190936F048093D8
:100560006E0489E495E190937104809370041CC635
:10057000653008F419C618811E3108F015C60981C6
:10058000EA80FB80CC81E12FF0E0E85DFB4F8081C9
:100590008C30B0F490E0FC01EE0FFF1F8E0F9F1F18
:1005A000FC01E35CF94F808190E0FC01EE0FFF1F3E
:1005B0008E0F9F1FFC01E85EF94F808186FDA0C56C
:1005C0004F2D50E080E8C89F400D511D1124602F31
:1005D00070E090E8E99E600D711D1124812F0E944A
:1005E000641364E070E0812FDF91CF911F910F9130
:1005F000FF90EF90DF90CF90BF90AF909F908F9043
:100600007F906F905F904F903F902F900C94A2132B
:100610002981888190E0E0E82E9F800D911D1124B2
:1006200090935F0380935E032FB7F89480915603F5
:1006300090915703A0915803B09159032FBF809315
:100640005A0390935B03A0935C03B0935D03ACC526
:10065000623008F4A9C52981888190E0F0E82F9FD5
:10066000800D911D1124009711F481E090E090938A
:100670000A01809309016091090170910A0188E2E1
:1006800090E00E94E82270939F0360939E038CC5C4
:10069000623008F489C5698170E0123091F08A8176
:1006A00020E8829FC0011124682B792B133049F078
:1006B0008B8190E090E4899F902D88271124682BEE
:1006C000792B8881DF91CF911F910F91FF90EF904F
:1006D000DF90CF90BF90AF909F908F907F906F9062
:1006E0005F904F903F902F900C94D510C330C9F578
:1006F00083E00E94271B88E00E94271B84E00E9461
:10070000271B8EE00E94271B8EEF8C0F823030F467
:1007100086E00E94271B81E00E94271B8FE70E9432
:10072000271BCF5FCE3109F4BDC480E00E94271B98
:1007300081E00E94271B8BE00E94271B81E00E9422
:10074000271B81E00E94271B81E00E94271B8EEE61
:100750008C0F8C3058F682E00E94271B8AE00E94A2
:10076000271B8BEF8C0F823018F287EF8C0F8330B2
:1007700008F4BECFCD3011F6BBCF662309F414C503
:10078000C88180EF0E94271B8EE60E94271B8C2FBA
:100790000E94271BCE3108F085C4D0E0FE01E1564F
:1007A000FA4F80810E94271BCC0FDD1F8E0103545E
:1007B0001A4FF80180818F770E94271BF8018081F2
:1007C00091819C012078232B39F0880F892F881F75
:1007D000990B8F770E94271BC354DA4F8881998128
:1007E0009C012227307C232B09F45CC4990F880BD1
:1007F000990F982F881F8F7753C480EF0E94271B73
:100800008AE60E94271BCEEECC3010F48C2F01C05C
:100810008FE70E94271BCF5FCC30B1F743C498818C
:100820008981911145C29B810A8110E01801F0E88D
:100830009F9F200C311C11249D81CC81D0E020E8A9
:10084000929FC00DD11D112490910B01981721F09A
:100850009F3F09F0A9C404C0EBEAF1E014919DC0E8
:1008600080930B01EBEAF1E0E491EF3F09F49CC4C3
:10087000E13009F447C048F1E33009F466C0E430E0
:1008800009F08AC01092C0001092C1009091C1007E
:1008900098609093C1009091C10091609093C100C5
:1008A000282F30E0F901E25BFE4FE491F0E0EE0F1B
:1008B000FF1FEE5CFE4F45915491F901E359FE4F45
:1008C000E491E093AD0314E0E4C014BC15BC94B50E
:1008D000926094BD95B5916095BD282F30E0F901E7
:1008E000E25BFE4FE491F0E0EE0FFF1FEE5CFE4F87
:1008F00045915491F901E359FE4FE491E093AF0320
:1009000010E04DC010928000109281009091810003
:100910009860909381009091810091609093810004
:10092000282F30E0F901E25BFE4FE491F0E0EE0F9A
:10093000FF1FEE5CFE4F45915491F901E359FE4FC4
:10094000E491E093AE0311E0A4C0109290001092E5
:1009500091009091910098609093910090919100F6
:10096000916090939100282F30E0F901E25BFE4FF7
:10097000E491F0E0EE0FFF1FEE5CFE4F45915491C5
:100980005093C3034093C203F901E359FE4FE4912E
:10099000E093C40313E07DC01E2F17FD05C461E082
:1009A0000E94D70E812F8D7F09F076C04101032C64
:1009B000000CAA08BB0860E072E18AE790E0A5019C
:1009C00094010E94422229013A0169017A0131E031
:1009D000C31AD108E108F1084FEFC416D104E104AD
:1009E000F10409F008F44BC060E472E48FE090E099
:1009F000A50194010E94422269017A0181E0C81A8E
:100A0000D108E108F108123001F59FEFC916D104B1
:100A1000E104F10409F008F477C360E970ED83E0C4
:100A200090E0A50194010E94422269017A01E1E06F
:100A3000CE1AD108E108F108FFEFCF16D104E10486
:100A4000F10411F008F082C0D4C02FEFC216D10417
:100A5000E104F104B1F0A8F068E478EE81E090E000
:100A6000A50194010E94422269017A0181E0C81A1D
:100A7000D108E108F108112309F463C349C381E0F7
:100A800001C082E01111B5C095B5987F892B85BD55
:100A9000B0C061E00E94D70E4101032C000CAA08EF
:100AA000BB0860E072E18AE790E0A50194010E9432
:100AB000422269017A0181E0C81AD108E108F108EF
:100AC000C114D10491E0E906F10488F068E478EEFD
:100AD00081E090E0A50194010E94422269017A011F
:100AE000E1E0CE1AD108E108F10883E001C081E01D
:100AF000113069F490918100987F892B8093810057
:100B0000209709F078C02FEF3FEFA9019DC0133067
:100B100069F490919100987F892B809391002097A0
:100B200009F069C02FEF3FEFA901A0C0143009F010
:100B300060C09091C100987F892B8093C10020975D
:100B400009F059C02FEF3FEFA901A2C068E478EE89
:100B500081E090E0A50194010E94422269017A019E
:100B600081E0C81AD108E108F1089FEFC916D10445
:100B7000E104F10409F008F4C7C264E274EF80E014
:100B800090E0A50194010E94422269017A0191E05E
:100B9000C91AD108E108F108EFEFCE16D104E1043B
:100BA000F10439F130F162E17AE780E090E0A501EB
:100BB00094010E94422269017A01F1E0CF1AD10822
:100BC000E108F1082FEFC216D104E104F10489F025
:100BD00080F0D301C2012AE0B595A7959795879536
:100BE0002A95D1F76C017D01F1E0CF1AD108E10817
:100BF000F108209769F09101220F331FDE010E9456
:100C0000162328EE33E040E050E00E94AB2203C000
:100C10002FEF3FEFA9011130B9F08CF41111C4C2CC
:100C2000C7BC2093B8033093B9034093BA035093E1
:100C3000BB0380916E00826080936E00B5C213305A
:100C4000A9F0143029F1B0C2D0928900C092880076
:100C50002093B4033093B5034093B6035093B70386
:100C600080916F00826080936F009EC2D092990045
:100C7000C09298002093C5033093C6034093C703E6
:100C80005093C803809171008260809371008CC280
:100C9000C092CF002093B0033093B1034093B203CE
:100CA0005093B303809172008064809372007CC281
:100CB000913009F079C2DF91CF911F910F91FF9090
:100CC000EF90DF90CF90BF90AF909F908F907F90EC
:100CD0006F905F904F903F902F900C94AF0E2091AB
:100CE0009C0330919D03263031050CF084C088812F
:100CF0008093BD0399819093BC039C81CB81D0E00C
:100D0000F0E89F9FC00DD11D1124F901E657FC4F5B
:100D100080836CE070E00E94A2136CE070E0809130
:100D2000BC030E94A21382E190E00E941D23DC011B
:100D30002091BC038091BD0390E0FC01E359FE4F7C
:100D4000E4911496EC93149730E0F901E359FE4FC7
:100D5000E4911596EC931597825B9E4FFC014491AC
:100D6000E42FF0E0EE0FFF1FEE5CFE4F4591549133
:100D700017965C934E931697F901E25BFE4FE49150
:100D8000F0E0EE0FFF1FE05CFE4F259134911B96C3
:100D90003C932E931A97FC018491E82FF0E0EE0F1C
:100DA000FF1FEC5DFE4F8591949119969C938E9355
:100DB0001897C53FF1E0DF0714F0C4EFD1E029E355
:100DC0002C9FC0012D9F900D11244C961D969C9335
:100DD0008E931C9780919C0390919D03FC01EE0FD4
:100DE000FF1FE057FC4FB183A083019690939D03B2
:100DF00080939C03D9C18AEE91E06EC188818111F4
:100E00008AC08A81E980F12C20E8829FE00CF11CE5
:100E100011247B80A72CB12CCC80D12C653021F5FE
:100E20008AE190E00E941D23EC011B861A8619823C
:100E300018821E8A1F8A188E198EFF82EE82BD8646
:100E4000AC86DF86CE8661E0872D0E94D70E61E0FA
:100E50008E850E94D70E198A188A1B8A1A8A1D8AC3
:100E60001C8A82E090E032C06730B9F50D8110E055
:100E7000CE818C2E912C8AE190E00E941D23EC0102
:100E80001B861A86198218821E8A1F8A188E198E4E
:100E9000FF82EE82BD86AC86DF86CE86198B088BFC
:100EA0009B8A8A8A61E0872D0E94D70E61E08E8539
:100EB0000E94D70E61E088890E94D70E61E08A897E
:100EC0000E94D70E1D8A1C8A84E090E0998788874B
:100ED000D0932504C093240467C187E292E00E9466
:100EE000B11A412F50E060E070E087E592E0DF91B9
:100EF000CF911F910F91FF90EF90DF90CF90BF9017
:100F0000AF909F908F907F906F905F904F903F90A9
:100F10002F900C94CB19813009F0B0C0CA80D12C2D
:100F2000E12CF12C57E0CC0CDD1CEE1CFF1C5A957B
:100F3000D1F78B8190E0A0E0B0E06EE0880F991FC0
:100F4000AA1FBB1F6A95D1F7C82AD92AEA2AFB2A09
:100F50008981C82A8D810C8110E030E8839F000DC3
:100F6000111D1124BE80C0912404D0912504209726
:100F700009F481C02E813F81032E000C440B550BD8
:100F800060E077E883E993E00E944222CA01B90158
:100F9000A70196010E9442222A833B834C835D83F2
:100FA000B11003C0119501951109780117FF04C014
:100FB000EE24FF24E01AF10A101611062CF481E049
:100FC00090E09983888304C0012B11F01982188264
:100FD00004E010E04AE0C42ED12CE114F10409F43D
:100FE000E3C00E943E0F8E889F88A88CB98C2B018D
:100FF0003C01481859086A087B088A809B80AC80AD
:10100000BD80481459046A047B0438F36E8B7F8BCF
:10101000888F998F288139818A859B852130310578
:1010200059F401969B878A872E813F818217930707
:1010300071F41B861A860BC0892B21F48E819F8147
:101040009B878A878A859B8501979B878A8741E052
:10105000E41AF108288539858A859B852530310574
:1010600011F4B60101C0B8010E94FC22BC01CE01FE
:101070000E947C16B2CF8FE592E02EC0823051F5EF
:101080008091240490912504892B09F180EF0E941E
:10109000271B82E70E94271B85E00E94271B80E018
:1010A0000E94271B87EFDF91CF911F910F91FF9037
:1010B000EF90DF90CF90BF90AF909F908F907F90F8
:1010C0006F905F904F903F902F900C94271B8BE870
:1010D00092E002C080EC92E0DF91CF911F910F91DE
:1010E000FF90EF90DF90CF90BF90AF909F908F9048
:1010F0007F906F905F904F903F902F900C94B11A1B
:10110000812F0E9431135CCA209709F074CD4CC026
:101110009FEFC916D104E104F10489F080F062E187
:101120007AE780E090E0A50194010E9442226901E3
:101130007A0181E0C81AD108E108F10843CD84E0C2
:10114000A1CC2FEFC216D104E104F10459F150F102
:1011500062E17AE780E090E0A50194010E944222DA
:1011600069017A01E1E0CE1AD108E108F108FFEF48
:10117000CF16D104E104F10499F090F0D301C2013B
:101180003AE0B595A795979587953A95D1F76C0173
:101190007D01E1E0CE1AD108E108F10885E074CCC8
:1011A00084E072CC83E070CCDF91CF911F910F91DE
:1011B000FF90EF90DF90CF90BF90AF909F908F9077
:1011C0007F906F905F904F903F902F9008950F9376
:1011D0001F93CF93DF93843008F071C0282F30E045
:1011E000F901EE5AFC4F6083672B09F468C0082FA1
:1011F000F901E25BFC4F1081D22FDD0FDD0FDD0F17
:1012000010FF4DC08D2F0E94570E892B09F447C047
:10121000C1E011FF07C081E08D0F0E94570E892B9E
:1012200009F03FC012FF06C082E08D0F0E94570EEA
:10123000892BC9F513FF06C083E08D0F0E94570E5E
:10124000892B99F514FF06C084E08D0F0E94570E7C
:10125000892B69F515FF06C085E08D0F0E94570E9A
:10126000892B39F5D83191F016FF06C086E08D0F35
:101270000E94570E892BF9F4D73141F017FF06C0B1
:1012800087E08D0F0E94570E892BB9F441E06C2F37
:10129000802FDF91CF911F910F910C943D12C0E0F0
:1012A000B8CFC260BFCFC460C5CFC860CBCFC0616C
:1012B000D1CFC062D7CFC064DFCFC068E7CFDF91A6
:1012C000CF911F910F910895CF938C3080F540916D
:1012D00088035091890321E030E0672B81F4B90144
:1012E00002C0660F771F8A95E2F7CB018095909533
:1012F00084239523909389038093880318C0082E34
:1013000002C0220F331F0A94E2F7242B352B3093AF
:1013100089032093880390914B04911108C0C82F32
:101320000E94130FBC018C2FCF910C946E1ACF9199
:1013300008954091CB035091CC032091C903309183
:10134000CA0342175307B4F49091E8009570E1F393
:101350009091E80092FD19C08093F1008091CB0339
:101360009091CC0301968F739927892B19F48EEFF6
:101370008093E8008091CB039091CC0301969093E9
:10138000CC038093CB0381E0089580E00895DF9241
:10139000EF92FF920F931F93CF93DF93D82EF92EE6
:1013A000E42E062F10E0C8010196880F0E949909CB
:1013B00083E00E949909CD2DDF2D0C0F1D1FC01752
:1013C000D10789F0E7FE03C0FE01849101C0888146
:1013D0000E949909F82E80E00E9499098F21219698
:1013E0008111EDCF01C081E0DF91CF911F910F916D
:1013F000FF90EF90DF900895DF92EF92FF920F93AE
:101400001F93CF93DF93D82E8A017B01E40EF51E44
:10141000EB01CE15DF0571F0D7FE03C0FE0184910C
:1014200001C088810E94990921968111F2CF8FEF26
:101430009FEF01C0C801DF91CF911F910F91FF90E5
:10144000EF90DF900895615030F02091F100FC01A1
:1014500020830196F8CF289A84E68093B7040895F4
:10146000CF92DF92EF92FF920F931F93CF93DF9370
:101470006C017A018B01C0E0D0E0CE15DF0581F070
:10148000D8016D918D01D601ED91FC910190F08113
:10149000E02DC6010995892B11F02196EECF7E0132
:1014A000C701DF91CF911F910F91FF90EF90DF90D7
:1014B000CF900895CF93DF931F92CDB7DEB76983A6
:1014C000DC01ED91FC910280F381E02D41E050E0E0
:1014D000BE016F5F7F4F09950F90DF91CF91089507
:1014E00083E08093E9008091F200882319F08AE379
:1014F0008093E8000895FC018485958597FD0BC0D5
:101500009FB7F89482E08093E9008091F2009FBF3A
:1015100090E0019608959FB7F89482E08093E900E7
:101520008091F2009FBF90E0089590E0FC01319718
:10153000EF30F105B0F5EA5AFF4F0C94102380917B
:1015400080008F7703C0809180008F7D8093800022
:10155000089580918000877FF9CF84B58F7702C08E
:1015600084B58F7D84BD0895809190008F7707C0EA
:10157000809190008F7D03C080919000877F809341
:10158000900008958091C0008F7703C08091C000C3
:101590008F7D8093C00008958091C200877F8093E3
:1015A000C20008950E9404250F931F93CF93DF93E9
:1015B0001F92CDB7DEB782E0898342E450E06CEA47
:1015C00071E080E80E94FC090E94EA1BDC0112968F
:1015D0000D911C9113970115110589F0D801ED911A
:1015E000FC910280F381E02DBE016F5F7F4FC80147
:1015F000099597FD04C0F80100851185ECCF89811C
:101600000F90DF91CF911F910F9108950E94D91BE8
:1016100090E008950F931F93CF93DF931F92CDB760
:10162000DEB78C01FC018485958597FF0EC0CE0145
:1016300001960E94AB1B019719F4898190E002C0CA
:101640008FEF9FEFF80195878487F8018485958552
:101650000F90DF91CF911F910F910895CF93DF935A
:101660001F92CDB7DEB7FC018485958597FD05C037
:101670002FEF3FEF358724870BC0CE0101960E94E4
:10168000AB1B019719F4898190E002C08FEF9FEFA7
:101690000F90DF91CF9108951F920F920FB60F9286
:1016A00011248F939F938091E1009091E100937FAB
:1016B0009093E10083FF0FC01092E90091E09093B6
:1016C000EB001092EC0092E39093ED001092B804BE
:1016D00098E09093F00082FF20C093E09093E9009F
:1016E0009091F200992319F09AE39093E800909179
:1016F000CE03992339F09091CE0391509093CE036D
:10170000992389F19091B704992339F09091B70406
:1017100091509093B704992341F184FF10C08091B8
:10172000E2008E7E81608093E2008091E1008F7EF6
:101730008093E10080914C038E7E806111C080FF18
:1017400016C08091E2008E7E80618093E2008091DD
:10175000E1008E7E8093E10080914C038E7E81605B
:1017600080934C0304C05D98CDCF2898D6CF9F912D
:101770008F910F900FBE0F901F9018951F920F9290
:101780000FB60F921124CF92DF92EF92FF920F9338
:101790001F932F933F934F935F936F937F938F93F9
:1017A0009F93AF93BF93EF93FF93CF93DF93CDB707
:1017B000DEB76C97DEBFCDBF1092E9008091E800E4
:1017C00083FFFBC168E0CE0145960E94230A82EFA9
:1017D0008093E8008D8987FF05C09091E80090FF15
:1017E000FCCF03C09EEF9093E800982F907609F00D
:1017F000C6C09E894F89588D2F89F88C91110CC0D5
:10180000803829F480914D038093F10002C010923A
:10181000F1001092F10045C1913051F4811141C1A4
:101820004130510509F03DC180914D038D7F0BC0C2
:10183000933061F4811135C14130510509F031C156
:1018400080914D03826080934D032BC1953049F404
:101850008091E80080FFFCCF822F80688093E300B6
:1018600020C1963009F05EC00B8D1C8D22E01092D5
:10187000E9001092CC031092CB03F21232C0109206
:10188000CA031092C9030E94D40A99E0BE016F5F97
:101890007F4FDB01E92F1D92EA95E9F79983FA82E0
:1018A00091E09E8390EA98879AEF99872091CB03E5
:1018B0003091CC03275F3F4F3C832B838D83109265
:1018C000E9001092CC031092CB031093CA0300934B
:1018D000C90349E050E080E00E94FC090E94D40A5C
:1018E000E0C01093CA030093C9030E94EA1BDC0105
:1018F00012960D911C9113970115110509F4BBC0A7
:10190000D801ED91FC910480F581E02DBE016B5E64
:101910007F4FC8010995009709F0C7C0F8010085FD
:101920001185EACF973009F445C1983021F481E060
:101930008093F100B6C0993009F0B3C0837009F00C
:1019400039C1E7E1F1E081E031E096E32081211146
:1019500009C08EE78093EA001092EA008F89809395
:10196000B8049FC08093E9003093EB00219120934D
:10197000EC009093ED008F5F873041F7EACF8B8DBD
:101980009C8D1092E9001092CC031092CB0390939F
:10199000CA038093C903898D811153C08E899D89A3
:1019A000913A49F4813209F005C147E050E060E026
:1019B00071E080E0BBC0913209F0FCC0833269F471
:1019C0008F89988DA0E0B0E080930C0190930D0179
:1019D000A0930E01B0930F0164C0803269F480912E
:1019E000E80082FFFCCF67E080E091E00E94230ADC
:1019F0008BEF8093E80055C0823209F052C08F8986
:101A000080930701EEEFFFE7859194918B3F9C4D0A
:101A100019F0E0E0F8E002C0EEEFFAE0809100019A
:101A200090910101A0910201B0910301803B94408B
:101A3000A105B10509F09EC08091070180FF79C022
:101A400099C00E94EA1BFC01028113810115110556
:101A500009F4B0C0D801ED91FC910190F081E02D26
:101A6000BE016B5E7F4FC801099581111AC0F80154
:101A700000851185EBCFF1E0FF1609F44EC0F3E0CD
:101A8000FF1298C08F89882309F44AC0823089F4F4
:101A900040E86DE080E192E00E94C709882309F4E4
:101AA00089C08EEF8093E80088C018161906CCF321
:101AB00081C0813029F440E86BE084E092E0ECCF13
:101AC000833009F077C00E94EA1BDC011296ED908A
:101AD000FC9013978E010F5F1F4F6801E114F10412
:101AE00079F0D701ED91FC910680F781E02DB801E6
:101AF000C7010995080F111DF701E084F184EECFAD
:101B0000D8011C92F60101900020E9F73197BF013E
:101B10006C197D0940E0C601BFCF62EF71E002C0E1
:101B20006EEE71E0FB01449150E080E80E94FC09F8
:101B3000B8CFEE3F2AE0F20751F0808191818737DC
:101B4000A7E79A0721F09093FF0A8093FE0A87E7A0
:101B500097E791838083809160008093CD039BE021
:101B600088E10FB6F894A895809360000FBE90931B
:101B7000600097CF808191818737974709F091CF97
:101B8000A895809160008861809360008091CD036A
:101B900080936000EE3FBAE0FB0739F08091FE0AC7
:101BA0009091FF0A918380837CCF1092FF0A10925C
:101BB000FE0A77CF81E28093EB006C960FB6F89423
:101BC000DEBF0FBECDBFDF91CF91FF91EF91BF91EF
:101BD000AF919F918F917F916F915F914F913F91C5
:101BE0002F911F910F91FF90EF90DF90CF900F906A
:101BF0000FBE0F901F9018951F920F920FB60F9265
:101C000011248F939F93AF93BF93EF93FF93809192
:101C1000C5039091C603A091C703B091C803892B57
:101C20008A2B8B2B51F19091C403E091C203F09168
:101C3000C3038081892780838091C5039091C60367
:101C4000A091C703B091C803181619061A061B06FF
:101C50001CF58091C5039091C603A091C703B09174
:101C6000C8030197A109B1098093C5039093C603E6
:101C7000A093C703B093C8030FC0809171008D7FFC
:101C8000809371008091C403E091C203F091C3037B
:101C90009081809589238083FF91EF91BF91AF91CF
:101CA0009F918F910F900FBE0F901F901895CF931B
:101CB000DF93282F30E0F901E457FE4F8491F901BA
:101CC000E359FE4FD491F901E25BFE4FC491CC235E
:101CD00091F081110E94950AEC2FF0E0EE0FFF1FAA
:101CE000E05CFE4FA591B491EC91ED2381E090E092
:101CF00021F480E002C080E090E0DF91CF91089570
:101D00001F93CF93DF93282F30E0F901E457FE4F64
:101D10008491F901E359FE4FD491F901E25BFE4F42
:101D2000C491CC23C1F0162F81110E94950AEC2F8B
:101D3000F0E0EE0FFF1FEE5CFE4FA591B4919FB750
:101D4000F894111104C08C91D095D82302C0EC9165
:101D5000DE2BDC939FBFDF91CF911F91089590916F
:101D60000B01891321C0EBEAF1E0E4919FEF90931E
:101D70000B01E13071F050F0E33089F0E430A1F470
:101D8000909172009F7B909372000EC010926E0033
:101D90000BC090916F009D7F90936F0005C0909154
:101DA00071009D7F9093710060E00C94800ECF9342
:101DB000DF9390E0FC01E359FE4F2491FC01E25BCC
:101DC000FE4F8491882361F190E0880F991FFC01F8
:101DD000EC5DFE4FC591D491FC01EE5CFE4FA591E8
:101DE000B491611109C09FB7F8948881209582232E
:101DF0008883EC912E230BC0623061F49FB7F89476
:101E00008881322F309583238883EC912E2B2C935D
:101E10009FBF06C08FB7F894E8812E2B28838FBF11
:101E2000DF91CF910895823108F08251E82FF0E0E0
:101E3000E85EFE4FE49180917B00E3FB222720F9CE
:101E400030E095E0220F331F9A95E1F78F7D282B24
:101E500020937B00E770E064E0937C0080917A003F
:101E6000806480937A0080917A0086FDFCCF809117
:101E700078002091790090E0922B08953FB7F89474
:101E80008091BE039091BF03A091C003B091C103A4
:101E900026B5A89B05C02F3F19F00196A11DB11DC5
:101EA0003FBFBA2FA92F982F8827820F911DA11D00
:101EB000B11DBC01CD0142E0660F771F881F991F3D
:101EC0004A95D1F708958F929F92AF92BF92CF9289
:101ED000DF92EF92FF926B017C010E943E0F4B015B
:101EE0005C01C114D104E104F104F1F00E943E0F41
:101EF000DC01CB0188199909AA09BB09883E9340E6
:101F0000A105B10570F321E0C21AD108E108F1087A
:101F100088EE880E83E0981EA11CB11CC114D10468
:101F2000E104F10419F7DDCFFF90EF90DF90CF903F
:101F3000BF90AF909F908F9008958F929F92AF9295
:101F4000BF92CF92DF92EF92FF920F931F93CF93A6
:101F5000DF936C017B018A0180910701882309F4DA
:101F60005CC08091B804882309F457C080914C0369
:101F700080FF05C08091E00082608093E000E8016E
:101F8000B12C8AEFA82E93E0892E2AE3922E209777
:101F900011F4BB20D9F10E94D91B81110AC0AA9467
:101FA000AA20D9F161E070E080E090E00E94630F28
:101FB000EECF282F30E0C217D3070CF48C2F9FB739
:101FC000F8948092E9002091E80025FF1DC0282F99
:101FD00030E0C21BD30BF701815020F041914093B8
:101FE000F100FACFE20EF31EBB2019F09092E80048
:101FF0000AC08091E80085FD07C09092E800BB24EC
:10200000B394209709F0B12C9FBFC1CF5D9A84E6AD
:102010008093CE031016110644F081E090E0F601A3
:102020009383828380E090E001C0C801DF91CF916B
:102030001F910F91FF90EF90DF90CF90BF90AF90E6
:102040009F908F9008958F929F92AF92BF92CF9260
:10205000DF92EF92FF920F931F93CF93DF93843021
:1020600008F096C0982F990F990F990F58E0C52E38
:10207000C90E9EE19C1510F44EE1C42E8B01C82FB1
:10208000CC0FCC0FCC0FDC2ED0E0992493945B01C5
:10209000BB24DC1410F54D2D50E0FA01E156FA4F47
:1020A00020812230B8F4892D90E08A219B21882458
:1020B0008394009709F4812C7A01EE0CFF1C2130E7
:1020C00009F056C0D929F701E354FA4F882D90E062
:1020D00091838083990CD394DCCFD0FF05C0602F0F
:1020E00061708C2F0E94800ED1FF06C0602F62703D
:1020F00081E08C0F0E94800ED2FF06C0602F6470BA
:1021000082E08C0F0E94800ED3FF06C0602F6870A3
:1021100083E08C0F0E94800ED4FF06C0602F607198
:1021200084E08C0F0E94800ED5FF06C0602F607285
:1021300085E08C0F0E94800ED6FF06C0602F607471
:1021400086E08C0F0E94800ED7FF22C0602F60783F
:1021500087E08C0FDF91CF911F910F91FF90EF904F
:10216000DF90CF90BF90AF909F908F900C94800E97
:10217000892B09F4A8CFF701E354FA4F80819181AC
:10218000019709F4A0CF62E08D2D0E94D70E9BCF5E
:10219000DF91CF911F910F91FF90EF90DF90CF9043
:1021A000BF90AF909F908F9008958F929F92AF9223
:1021B000BF92CF92DF92EF92FF920F931F93CF9334
:1021C000DF93EB018E3108F038C1082F10E0F801E1
:1021D000E156FA4F9081933009F48CC0943009F0A5
:1021E0002CC1F801E85DFB4FE080F12C6701CC0CBD
:1021F000DD1C603282E078070CF042C077FD05C03C
:10220000653B710524F4DB0104C0A0E001C0A4EB30
:10221000B0E0F601EE0DFF1DE35CF94F818128E887
:1022200030E04901881A910887FD9394880C991C25
:10223000880C991C092C000CAA08BB08828128E58F
:1022400032E0281B310987FD3395220F331F220FFF
:10225000331FA901330F660B770B9A01AB012819C5
:1022600039094A095B090E946C2224EB30E040E006
:1022700050E00E944222820E931EA41EB51E01C091
:102280004B01F601EE0DFF1DE35CF94F20812C3070
:1022900008F0CCC0318188E890E0831B910937FDBC
:1022A0009395880F991F880F991F8816990684F0B7
:1022B000828148E552E0481B510987FD5395440F40
:1022C000551F440F551FC401481559050CF4CA0188
:1022D0000297880F991F4FB7F89430E0F901EE0F7D
:1022E000FF1F2E0F3F1FF901E85EF94F9283818394
:1022F0004FBF9CC0F82E83E0081759F08BEF800F7A
:10230000823038F087EF800F833018F08DE00813AB
:102310008DC061E08F2D0E94D70E209711F460E0F0
:1023200004C0CF3FD10529F461E08F2D0E94800EBB
:102330007DC0F801E457FE4FE4918E2F90E0FC0140
:102340003197EF30F10508F06CC0EB59FF4F0C945A
:10235000102384B5806884BDC7BD68C084B5806221
:1023600084BDC8BD63C08091800080688093800078
:10237000D0938900C093880059C08091800080620A
:1023800080938000D0938B00C0938A004FC08091CF
:102390008000886080938000D0938D00C0938C0073
:1023A00045C080919000806880939000D093990000
:1023B000C09398003BC08091900080628093900011
:1023C000D0939B00C0939A0031C0809190008860A8
:1023D00080939000D0939D00C0939C0027C0809173
:1023E000C00080688093C0008091C0008F7B809384
:1023F000C000C093CF001AC08091C000806280935B
:10240000C000C093D00012C08091C2008860809349
:10241000C2008091C2008B7F8093C200C093D20023
:1024200005C0C038D1050CF07FCF79CF000F111F48
:10243000F801E354FA4FD183C083DF91CF911F910C
:102440000F91FF90EF90DF90CF90BF90AF909F9053
:102450008F9008958E3180F4E82FF0E0DF01A156CF
:10246000BA4F9C91913041F4EE0FFF1FE354FA4FA5
:10247000608371830C94800E08950F931F93CF9304
:10248000082F10E0F801E25BFC4F9081C62FC923B2
:102490000A5B1B4F411104C0D8019C91C91771F10F
:1024A000682F80915405909155056F706069DC012B
:1024B000ED91FC910190F081E02D099580915405FA
:1024C000909155056C2F6F77DC01ED91FC91019097
:1024D000F081E02D099580915405909155056C2F60
:1024E00070E0660F672F661F770BDC01ED91FC91A2
:1024F0000190F081E02D0995F801C083CF911F91E3
:102500000F910895EF92FF920F931F93CF93DF9354
:10251000082FEB01142FF22E6F3F8FEF7807F9F0A1
:1025200081E08093E004009302051092E104109290
:1025300003058CE096E00E94A3158F2D0E94341BAA
:102540008091AB039091AC038230910550F0880FDD
:10255000991F880F991F05970197F1F702C0C0E0F6
:10256000D0E08091DF048111FCCF912F113208F06F
:1025700090E281E08093DF048093DE042FEF2093CC
:10258000DD041092DC04290F2093DB048093BA044D
:102590008091BA04202F220F822B8093BA0480915D
:1025A000B904813061F41092B9048091BA04809327
:1025B000BB008091BC0083FDF8CF85EC01C085EEA7
:1025C0008093BC008091DF048130E1F38091DC04D2
:1025D000891710F49091DC04EBEBF4E0ACE4B4E088
:1025E00080E0891721F021912D938F5FFACF10920F
:1025F0006D0480936C04E12EF12C90E0E816F9064E
:102600001CF48EEE92E005C08E159F0524F48BE03D
:1026100093E00E94B11A0093E403C093E503C4EE73
:10262000D3E0CE01845E93408E159F056CF4219615
:1026300090916C0480916D04981731F08CE096E0D5
:102640000E945A158983EDCF62E0610F44EE53E09A
:1026500087E7DF91CF911F910F91FF90EF900C943E
:10266000851AA82FB0E0A85DBB4F9C91292F30E0C0
:10267000F901EE0FFF1F2E0F3F1FF901E35CF94F29
:10268000E081F0E09F01220F331FE20FF31FE85EAD
:10269000F94F80818F7B808380912604981306C038
:1026A000992379F09150909326040BC0882349F028
:1026B000E0912704EF5FE0932704F0E0E952FC4F3C
:1026C00090838FEF8C930895DB01909126049C30CA
:1026D000A8F530912704682F70E0332369F0E32FC9
:1026E000F0E0E952FC4F8081FB01E85DFB4F808305
:1026F00031503093270407C0FB01E85DFB4F908306
:102700009F5F90932604FB01E85DFB4F808190E082
:102710009C01220F331F820F931F1A161B0634F4DD
:10272000141615061CF49A01AD0104C020E639E028
:1027300040E252E0835C994F0C948A1887E293E060
:102740000C94B11AAF92BF92CF92DF92EF92FF92A8
:102750000F931F93CF93DF93C82ED12CE601CC5A51
:10276000DA4FFE01E55BFF4F90819F3709F453C1BB
:102770007B01182F963069F480914A04882349F030
:102780006630710509F443C110924A048FEF8093BB
:1027900008011E3100F584E0E816F104E1F0F601CD
:1027A000E85DFB4F80818C30B0F490E0FC01EE0FCF
:1027B000FF1F8E0F9F1FFC01E35CF94F808190E0AB
:1027C000FC01EE0FFF1F8E0F9F1FFC01E85EF94F0B
:1027D000808186FD07C10EEE010F0C3060F461E0D0
:1027E00070E082E0E816F10411F060E070E0802F04
:1027F0000E94640902C01E3118F5E12FE695E695A6
:10280000E695212F2770F0E0E25BFC4FE114F10424
:1028100021F08BE0E816F10449F481E090E001C07A
:10282000880F2A95EAF79081892B09C081E090E012
:1028300001C0880F2A95EAF78095908189238083CB
:102840005601AA0CBB1CF501E354FA4F1182108209
:102850008EE0E816F10408F0B7C0F701EC58FF4F1E
:102860000C9410230C3008F0D6C060E0812F0E9439
:10287000D70EC55BDF4F88818F3709F4CCC082E06B
:10288000A1C01E3108F0C7C060E0812F0E94D70EA2
:10289000C55BDF4F88818F3709F4BDC01882BBC08C
:1028A0001E3108F0B8C062E0812F0E94D70EC55BD0
:1028B000DF4F88818F3711F08BE08883F501E35477
:1028C000FA4F81E090E091838083A5C01E3108F02B
:1028D000A2C060E0812F0E94800E61E0812F0E94E3
:1028E000D70EC55BDF4F88818F3709F494C081E034
:1028F00069C0133059F08BEF810F823038F087EFC9
:10290000810F833018F01D3009F085C061E0812F00
:102910000E94D70E61E0812F0E94D70E60E0812FC8
:102920000E94800EC55BDF4F88818F3709F473C02A
:1029300083E048C01E3108F06EC0C55BDF4F888160
:102940008F3711F084E08883F601E85DFB4F8081CA
:102950008F3F09F44BC090E0FC01EE0FFF1F8E0F7C
:102960009F1FFC01E35CF94F808190E0FC01EE0FBA
:10297000FF1F8E0F9F1FFC01E85EF94F808186FDCF
:102980004AC034C01250123008F045C0C55BDF4F5A
:1029900088818F3709F43FC086E014C0C55BDF4FE4
:1029A00088818F37C1F18DE00DC0C55BDF4F888115
:1029B0008F3789F18CE006C0C55BDF4F88818F3788
:1029C00051F188E0888327C08BE393E0DF91CF91BA
:1029D0001F910F91FF90EF90DF90CF90BF90AF903D
:1029E0000C94B11A812F0E943113F5CE4FEF5FEF97
:1029F0006FEF7FEF812FDF91CF911F910F91FF90AC
:102A0000EF90DF90CF90BF90AF900C9464131E3185
:102A100008F4C5CEE0CEDF91CF911F910F91FF90CA
:102A2000EF90DF90CF90BF90AF90089585ED8093A9
:102A3000BC008091BC0084FDFCCF1092DF0408959F
:102A400040919304262F30E0240F311D21323105AF
:102A5000DCF42091DF042430C9F4FC0180E090E034
:102A6000861758F4309193042191DC01AD58BB4F87
:102A7000A30FB11D2C930196F3CF80919304680F9F
:102A80006093930480E0089581E0089582E00895C2
:102A9000089508950895E0916D0480916C04E817FD
:102AA00030F4F0E0E45BFB4F808190E008958FEF1D
:102AB0009FEF089590916D0480916C04981750F4E5
:102AC000E92FF0E0E45BFB4F208130E09F5F9093C3
:102AD0006D0402C02FEF3FEFC901089580916C048F
:102AE00090E020916D04821B91090895CF92DF92AE
:102AF000EF92FF920F931F93CF93DF937C01CB0153
:102B00008A012091E004222389F0EB016B01C40EBD
:102B1000D51ECC15DD0569F06991D701ED91FC91C9
:102B20000190F081E02DC7010995F3CF642F0E9439
:102B30002015C801DF91CF911F910F91FF90EF9069
:102B4000DF90CF900895CF93DF931F92CDB7DEB77C
:102B500069832091E0042223D1F0209103052032E3
:102B600040F021E030E0FC013383228380E090E0FC
:102B700015C08091E104E82FF0E0EE51FB4F998100
:102B800090838F5F8093E1048093030505C061E02B
:102B9000CE0101960E94201581E090E00F90DF9118
:102BA000CF910895089580E090E008950F931F93CA
:102BB000CF93DF9381E080934B0480914A04882374
:102BC00029F010924A048FEF80930801E2E5F3E0C8
:102BD000CEE4D3E0A6E4B4E0119219921D9283E012
:102BE000E635F807C9F708E214E0C0E0DFEF8EEE43
:102BF0008C0F8C3030F462E070E08C2F0E94A213B6
:102C000003C08C2F0E94AF0EF801D1938F01CF5FCC
:102C1000CE3169F710929D0310929C03AAE8B3E0AD
:102C2000E0E9F3E08FE78D9320813181232B11F0D0
:102C300011821082329693E0EC39F907A1F71092D5
:102C40008903109288031092270410922604109290
:102C500025041092240410924B04DF91CF911F9110
:102C60000F9108951F920F920FB60F9211242F9378
:102C70003F938F939F93AF93BF938091560390910F
:102C80005703A0915803B09159033091B60423E043
:102C9000230F2D3720F40196A11DB11D05C026E894
:102CA000230F0296A11DB11D2093B60480935603F5
:102CB00090935703A0935803B09359038091BE0398
:102CC0009091BF03A091C003B091C1030196A11DD3
:102CD000B11D8093BE039093BF03A093C003B09334
:102CE000C103BF91AF919F918F913F912F910F9011
:102CF0000FBE0F901F9018950F931F93CF93DF93E4
:102D0000EC018B01888599850297F1F4613071059A
:102D100069F024F4672BC1F460E009C062307105EA
:102D200059F06330710581F460E007C061E08C8583
:102D30000E94800E61E005C061E08C850E94800EDB
:102D400060E08E850E94800E888599850497B9F58C
:102D500001301105B1F04CF40115110581F561E068
:102D60008C850E94800E60E011C002301105B9F020
:102D70000330110521F561E08C850E94800E60E032
:102D800013C060E08C850E94800E61E08E850E94F9
:102D9000800E61E088890E94800E60E00DC060E0D6
:102DA0008C850E94800E61E08E850E94800E60E01E
:102DB00088890E94800E61E08A890E94800E888541
:102DC0009985059709F073C00A30110508F06FC0A6
:102DD000F801EE57FF4F0C94102360E08C850E94A1
:102DE000800E61E051C060E08C850E94800E61E041
:102DF0008E850E94800E60E04BC060E08C850E9452
:102E0000800E61E08E850E94800E60E088890E94BD
:102E1000800E61E041C060E001C061E08C850E94ED
:102E2000800E61E005C061E08C850E94800E60E04C
:102E30008E850E94800E60E009C061E08C850E9452
:102E4000800E60E08E850E94800E61E088890E947D
:102E5000800E61E00DC061E08C850E94800E60E014
:102E60008E850E94800E61E088890E94800E60E05D
:102E70008A890E94800E60E013C061E001C060E0BA
:102E80008C850E94800E60E08E850E94800E61E03D
:102E900088890E94800E60E08A890E94800E61E02D
:102EA0008C89DF91CF911F910F910C94800EDF914F
:102EB000CF911F910F9108951F920F920FB60F920D
:102EC00011242F933F934F935F936F937F938F932F
:102ED0009F93AF93BF93EF93FF938091B900887F47
:102EE000803609F49CC068F5883209F45BC090F420
:102EF000803109F454C038F4882309F4F6C08830CE
:102F000009F44DC0F6C0883109F44CC0803209F490
:102F10005DC0EFC0803409F468C048F4803309F420
:102F200055C0883309F0E5C08093DD04D8C08035F2
:102F300009F44FC0883509F45DC0883409F0D9C060
:102F4000D6C0883909F4C7C0A8F4883709F467C027
:102F500038F4883609F463C0803709F460C0C9C00A
:102F6000883809F4B8C0803909F45FC0803809F0A6
:102F7000C0C05BC0803B09F486C038F4803A09F4D5
:102F800066C0883A09F47FC0B4C0803C09F4A7C089
:102F9000883C09F4A4C0883B09F48AC0AAC0809187
:102FA000BA0410C09091DC048091DB04981770F58E
:102FB000E091DC0481E08E0F8093DC04F0E0E554C6
:102FC000FB4F80818093BB0085EC86C08093DD043D
:102FD0008EC0E091DC0481E08E0F8093DC04809150
:102FE000BB00F0E0E554FB4F80839091DC048091BE
:102FF000DB046EC0E091DC0481E08E0F8093DC0482
:103000008091BB00F0E0E554FB4F80838091DE04AB
:1030100081116DC081E08093B90484EA61C083E0CE
:103020008093DF041092B504CFCF8091B504803235
:1030300008F051C0E091B50481E08E0F8093B50493
:103040008091BB00F0E0EB56FB4F8083BDCF85EC59
:103050008093BC001092DF048091B504803230F47C
:10306000E091B504F0E0EB56FB4F10826091B5049F
:1030700070E0E0917004F091710485E994E00995A5
:103080001092B50436C084E08093DF04109294045B
:1030900010929304E0916E04F0916F040995809171
:1030A0009304811105C081E080939304109273040E
:1030B000E091940481E08E0F80939404F0E0ED5849
:1030C000FB4F80818093BB00909194048091930486
:1030D000981708F479CF85E88093BC000AC085EC86
:1030E0008093BC001092DF0404C01092DD040E94A3
:1030F0001615FF91EF91BF91AF919F918F917F91A5
:103100006F915F914F913F912F910F900FBE0F9054
:103110001F901895DF92EF92FF920F931F93CF931A
:10312000DF93EC01D62E7A01890188818C3008F07A
:1031300068C061E08D2D0E94D70E8881E82FF0E0F5
:103140009F01220F331FE20FF31FE85EF94F9D2D01
:103150009F732081207CD22ED92AD08220E232E0B7
:103160002E193F0937FF02C02D5F3F4F3595279538
:1031700035952795298320E639E0201B310B37FF51
:1031800002C02D5F3F4F35952795359527952A83AA
:103190006CE00E94DC229CE0899FB001112440E099
:1031A00050E09B01240F351FF901EE0FFF1F2E0F7A
:1031B0003F1FF901E85EF94F908196FD16C04F5F01
:1031C0005F4F4C30510569F781110FC0109280009C
:1031D00082E0809381001092850010928400B19A61
:1031E00080916F00826080936F00E881F0E0CF01F2
:1031F000880F991FE80FF91FE85EF94F80818064FE
:1032000080838881DF91CF911F910F91FF90EF9084
:10321000DF9008951F920F920FB60F9211242F93F3
:103220003F934F935F936F937F938F939F93AF934E
:10323000BF93EF93FF938091720487FF05C01092B4
:103240008500109284001BC020917204022E000C95
:10325000330B80913C0690E02817390784F4809165
:103260007204082E000C990BFC01EE0FFF1F8E0F4D
:103270009F1FFC01E85EF94F808186FD15C080919B
:1032800072048F5F8093720420917204022E000CEE
:10329000330B80913C0690E028173907C4F48091E5
:1032A00072048C3064F113C080917204082E000CFB
:1032B000990BFC01EE0FFF1F8E0F9F1FFC01E85EB4
:1032C000F94F808160E08F730E94800ED8CF80918B
:1032D000840090918500049680349C4918F480E421
:1032E0009CE905C08091840090918500049690939C
:1032F0008900809388008FEF809372043BC02091F7
:1033000084003091850080917204082E000C990B86
:10331000FC01EE0FFF1F8E0F9F1FFC01E85EF94FAF
:1033200081819281820F931F9093890080938800FE
:1033300080917204082E000C990BFC01EE0FFF1F08
:103340008E0F9F1FFC01E85EF94F808186FF12C03F
:1033500080917204082E000C990BFC01EE0FFF1FE8
:103360008E0F9F1FFC01E85EF94F808161E08F7333
:103370000E94800EFF91EF91BF91AF919F918F912D
:103380007F916F915F914F913F912F910F900FBE61
:103390000F901F901895AF92BF92CF92DF92EF924D
:1033A000FF920F931F93CF93DF93CDB7DEB7C05437
:1033B000D1090FB6F894DEBF0FBECDBF6C01CB01B3
:1033C000BA012AE0AE014F5F5F4F7A010E940122ED
:1033D000F70101900020E9F731978F010E191F09BD
:1033E000B8016F5F7F4F80E090E00E943E245C0157
:1033F000009731F0FC011082B7010E94122502C033
:1034000000E010E00115110511F419820EC00F3310
:10341000110510F00FE310E0A801B501C7010E94EB
:103420001925F701E00FF11F1082C6010E94B11AA1
:10343000C7010E94B11AC501C05CDF4F0FB6F894F6
:10344000DEBF0FBECDBFDF91CF911F910F91FF90D7
:10345000EF90DF90CF90BF90AF900C94B5230F9377
:103460001F93CF93DF93EC0104E515E0D8018D9114
:103470009C916C2F6F77DC01ED91FC910190F081B4
:10348000E02D0995F80180819181CC0FCD2FCC1FC3
:10349000DD0B6C2F6F77DC01ED91FC910190F081D9
:1034A000E02DDF91CF911F910F91099480915405E8
:1034B00090915505DC01ED91FC910190F081E02D9A
:1034C00067EF09948091540590915505DC01ED91C9
:1034D000FC910190F081E02D60EF0994CF93DF9390
:1034E000EB01A0915405B09155058F70682F606E67
:1034F000ED91FC9111970190F081E02DCD0109959E
:10350000CE01DF91CF910C942F1AFF920F931F934E
:10351000CF93DF93C82F162FF42E052F0E94621A27
:103520008091540590915505DC01ED91FC9101903D
:10353000F081E02D6C2F0995CF2DD02FCE01810F7A
:10354000911D8C01C017D10729F0899190E00E944C
:103550002F1AF8CFDF91CF911F910F91FF900C940C
:10356000561AFC0101900020E9F73197BF01681B52
:10357000790BAC0181E70C94851ACF93DF930E94FD
:10358000621A8091540590915505DC01ED91FC91F2
:103590000190F081E02D69E70995809154059091A3
:1035A0005505A0915705B0915805EC01E881F981C6
:1035B0000190F081E02D6C910995809154059091D6
:1035C0005505A0915705B0915805EC01E881F981A6
:1035D0000190F081E02D11966C910995C2E08091E7
:1035E0005605C81760F4E0915705F0915805EC0FA7
:1035F000F11D808190E00E942F1ACF5FF0CFDF9104
:10360000CF910C94561ACF93DF93C4E5D5E088810F
:103610009981DC01ED91FC910190F081E02D69EF41
:10362000099588819981DC01ED91FC910190F081EF
:10363000E02D62E0099588819981DC01ED91FC9192
:103640000190F081E02D65E0DF91CF910994A09188
:103650005405B0915505ED91FC9111970190F081C1
:10366000E02D682FCD010994282F309103053132C8
:1036700008F04AC08091DF048111FCCF90910205CF
:1036800042E04093DF042093DE042FEF2093DD041B
:103690001092DC043093DB04E2EEF4E0ABEBB4E038
:1036A00020E0321721F041914D932F5FFACF109215
:1036B000BA042091BA04990F922B9093BA04909176
:1036C000B904913061F41092B9049091BA049093C6
:1036D000BB009091BC0093FDF8CF95EC01C095EE36
:1036E0009093BC009091DF049230E1F39091DD045F
:1036F0009F3F79F08091DD04803241F08091DD04BC
:10370000803331F084E005C081E003C082E001C075
:1037100083E01092E104109203051092E0040895F2
:103720001092590510925A0510925B05ECE5F5E0F0
:10373000119285E0EC39F807D9F710929C051092A8
:103740009E0510929D05E0910506F09106063097C2
:1037500009F0099408952091B804211103C08FEF56
:103760009FEF08955FB7F89422E02093E90020913D
:10377000F20030E01216130614F421E030E0422F7C
:10378000FC0184E6415038F0289A8093B704909168
:10379000F1009193F7CF2115310521F08091F200CE
:1037A000882319F05FBFC90108958BE68093E80074
:1037B000F9CF2FB7F89483E08093E9009091E80067
:1037C000892F807295FF04C09091F20080E4891BDC
:1037D0002FBF08958091650681110DC082E080930E
:1037E000610684E08093620610926406109263067C
:1037F00081E08093650681E696E00895789484B52B
:10380000826084BD84B5816084BD85B5826085BDDC
:1038100085B5816085BD80916E00816080936E006A
:10382000109281008091810082608093810080915C
:10383000810081608093810080918000816080930D
:10384000800080919100826080939100809191002E
:1038500081608093910080919000816080939000BE
:103860008091C10084608093C1008091C10082601A
:103870008093C1008091C10081608093C1008091DC
:10388000C30081608093C3008091C00082608093F8
:10389000C0008091C20081608093C20080917A0054
:1038A000846080937A0080917A00826080937A00AD
:1038B00080917A00816080937A0080917A0080689C
:1038C00080937A001092B80410924D0310924C032A
:1038D0008091D70081608093D70080EA8093D800E0
:1038E00089B5806189BD89B5826089BD09B400FE52
:1038F000FDCF61E070E080E090E00E94630F809176
:10390000D8008F7C80618093D8008091E000807F18
:103910008093E0008091E1008E7E8093E1008DE055
:103920008093E200559A209A5D98289886E18093CA
:10393000560580915705909158050E94B523C09176
:103940005605D0E0CE0101960E941D2390935805A4
:1039500080935705FC01EC0FFD1F108222E0DC0173
:103960002C9325E011962C93AE014250510962EA46
:1039700071E002960E94192585ED90E19093FA0579
:103980008093F90583E290E19093FC058093FB0519
:1039900084E699E09093FE058093FD0587EE98E01C
:1039A000909300068093FF0582EA93E190930206CC
:1039B000809301068AE292E19093040680930306C5
:1039C0008AE391E090930A068093090686ED95E1DB
:1039D00090930606809305068FEF9FEF9093110555
:1039E0008093100584E095E09093550580935405ED
:1039F00080910B06811140C061E08DE00E94D70EDE
:103A0000C0E062ED70E080E090E00E94630F61E052
:103A10008DE00E94800E68E270E080E090E00E94FD
:103A2000630F60E08DE00E94800ECF5FC23049F7E7
:103A30006AEF70E080E090E00E94630FC0E062ED0A
:103A400070E080E090E00E94630F61E08DE00E94F2
:103A5000800E68E270E080E090E00E94630F60E01A
:103A60008DE00E94800ECF5FC53049F76DE770E0B2
:103A700080E090E00E94630F0E94031B8091560536
:103A800081110E94BD1AC09107016AE070E080E0D8
:103A900090E00E94630FCC23B1F30E94D61578EE1C
:103AA000672E73E0772EEBE0EE2EF12CF3E2CF2EB3
:103AB000D12CA9E3AA2EB12CB0E08B2EB0E09B2E26
:103AC0005524539455E0352E62E0462E80915203E2
:103AD000882309F448C0D0914E03D0FFF3C380E09F
:103AE0000E94570E892B09F4EDC3C1E0D1FF06C037
:103AF00081E00E94570E892B09F0E6C3D2FF06C071
:103B000082E00E94570E892B09F0E0C3D3FF06C064
:103B100083E00E94570E892B09F0DAC3D4FF06C058
:103B200084E00E94570E892B09F0D4C3D5FF06C04C
:103B300085E00E94570E892B09F0CEC3D6FF06C040
:103B400086E00E94570E892B09F0C8C3D7FF06C034
:103B500087E00E94570E892B09F0C2C340E06C2F0A
:103B600080E00E943D1280915303882309F448C0ED
:103B7000D0914F03D0FFB6C388E00E94570E892B27
:103B800009F4B0C3C1E0D1FF06C089E00E94570E1E
:103B9000892B09F0A9C3D2FF06C08AE00E94570E04
:103BA000892B09F0A3C3D3FF06C08BE00E94570EF8
:103BB000892B09F09DC3D4FF06C08CE00E94570EEC
:103BC000892B09F097C3D5FF06C08DE00E94570EE0
:103BD000892B09F091C3D6FF06C08EE00E94570ED4
:103BE000892B09F08BC3D7FF06C08FE00E94570EC8
:103BF000892B09F085C340E06C2F81E00E943D12C3
:103C000080915403882309F448C0D0915003D0FF19
:103C100079C380E10E94570E892B09F473C3C1E078
:103C2000D1FF06C081E10E94570E892B09F06CC3B9
:103C3000D2FF06C082E10E94570E892B09F066C3AD
:103C4000D3FF06C083E10E94570E892B09F060C3A1
:103C5000D4FF06C084E10E94570E892B09F05AC395
:103C6000D5FF06C085E10E94570E892B09F054C389
:103C7000D6FF06C086E10E94570E892B09F04EC37D
:103C8000D7FF06C087E10E94570E892B09F048C371
:103C900040E06C2F82E00E943D1280915503882302
:103CA000C1F1D0915103D0FF3DC388E10E94570E6E
:103CB000892B09F437C3C1E0D1FF06C089E10E9416
:103CC000570E892B09F030C3D2FF06C08AE10E944B
:103CD000570E892B09F02AC3D3FF06C08BE10E943F
:103CE000570E892B09F024C3D4FF06C08CE10E9433
:103CF000570E892B09F01EC3D5FF06C08DE10E9427
:103D0000570E892B09F018C340E06C2F83E00E9406
:103D10003D128091540590915505DC01ED91FC9187
:103D20000084F185E02D0995892B09F429C1809142
:103D3000540590915505DC01ED91FC910284F385C9
:103D4000E02D09958F3FBFEF9B0719F3382F209186
:103D50009C05222309F465C0873F09F053C01092E7
:103D60009C0580915C05813749F08937E9F58091A0
:103D70005605882371F20E94BD1ACBCFE091070649
:103D8000F0910806309729F220919D0530919E050B
:103D9000C901019797FDC90195958795582FA4E50D
:103DA000B5E0ED0130E022961196351770F42F81C1
:103DB00017962C9317974885479544274795240FC6
:103DC00017962C9317973F5FEECF9927DC01AC5ADB
:103DD000BA4F17968C911797882311F018961C925A
:103DE0008CE595E0099595CFE0910906F0910A06DA
:103DF000309709F48ECF60919D0561504DE555E0F7
:103E0000099587CF20919D0530919E05F901EC5AC7
:103E1000FA4F80872F5F3F4F30939E0520939D057B
:103E200078CF20915905222309F469C087FD67C026
:103E30009FEF920F90935905E92FF0E0EC5AFA4F5B
:103E40008087911166CF80915A05882309F461CF4C
:103E5000803D09F445C050F4803901F1803C09F0FF
:103E60004BC0E091FD05F091FE053EC0843F39F165
:103E7000853F51F1803E09F03FC0E091F905F09196
:103E8000FA053097C9F180915C0560915D0570E09D
:103E900020E8829F600D711D11242BC0E091FB056D
:103EA000F091FC05309741F180915C0560915D05D2
:103EB00070E090E8899F600D711D11241AC0E09197
:103EC0000106F091020604C0E0910306F091040699
:103ED000309791F060915C0570E080915D050BC0BA
:103EE000E091FF05F0910006309731F060915C059C
:103EF00070E080915B05099510925A050ACF303F1A
:103F000038F4282F207F30E08F7080935B0502C04B
:103F10009C013327203F310549F17CF4203C3105D9
:103F200001F124F420393105C9F0F3CE203D3105EB
:103F3000C1F0203E310591F0ECCE293F3105E9F08A
:103F400034F4C901845F9109029740F0E2CE2F3F1B
:103F5000310509F0DECE0E94901BDBCE4092590560
:103F600002C05092590520935A05D3CE50929C0519
:103F700010929E0510929D05CCCE0E94031BC9CEC7
:103F80008FB7F894409156035091570360915803AE
:103F9000709159038FBF0091A7031091A80320913E
:103FA000A9033091AA038091090190910A01A0E030
:103FB000B0E0401B510B620B730B84179507A607EB
:103FC000B70708F078C1800F911FA21FB31F80931D
:103FD000A7039093A803A093A903B093AA03809189
:103FE000A5039091A6039C012F5F3F4F3093A6033A
:103FF0002093A50320919E0330919F032817390732
:104000000CF0D7C01092A6031092A50380919C03D8
:1040100090919D03892B09F4CCC00091A3031091CA
:10402000A403F801EE0FFF1FE057FC4FC081D181C0
:10403000E885F98590818C81892B8083EE81FF81D1
:1040400090818C81809589238083C7010197F1F746
:10405000EE81FF8190818C81892B8083C60101973D
:10406000F1F7EE81FF8190818C8180958923808397
:10407000E885F98590818C818095892380830E94D1
:104080003E0FDC01CB01805B994BAF4FBF4F8E875A
:104090009F87A88BB98BEA85FB8590818D818923C9
:1040A00059F00E943E0F2E853F8548895989261771
:1040B00037074807590778F7EA85FB8590818D8196
:1040C000892371F40E943E0F2E853F8548895989C6
:1040D000261737074807590778F780E090E02DC08A
:1040E0000E943E0F2C853D85DC01CB01820F931F82
:1040F000A11DB11D8E879F87A88BB98BEA85FB8593
:1041000090818D81892361F00E943E0F2E853F852D
:1041100048895989261737074807590778F7DDCFA7
:104120000E943E0F2C853D85255031094E855F85C7
:10413000241B350BC901860F971FB5010E94E82289
:10414000CB010093A20398012F5F3F4F3093A4034C
:104150002093A30320919C0330919D0321503109AA
:104160000217130724F01092A4031092A3036F7791
:104170006093A103880F892F881F990B8093A00358
:1041800080EF0E94271B83E60E94271BE091A20379
:10419000F0E0E657FC4F80810E94271B8091A1032D
:1041A0000E94271B8091A0030E94271B87EF0E947B
:1041B000271BCFE9D5E01EEE1C30B0F48881823099
:1041C00099F48091880390918903012E02C09595FE
:1041D00087950A94E2F780FF07C0812F0E94130F92
:1041E000BC01812F0E946E1A1F5F21961C3021F79F
:1041F0008091080187FD1BC0C0E02C2F30E080912A
:104200000801082E000C990B8217930784F0329E48
:10421000F001339EF00D1124E05AFC4F6181728150
:104220002481438180810E948212CF5FE6CF8091FA
:104230005E0390915F03892B09F43DC08FB7F8941A
:104240004091560350915703609158037091590360
:104250008FBF80915A0390915B03A0915C03B09152
:104260005D03481B590B6A0B7B0B20915E03309159
:104270005F03269DC001279D900D369D900D112452
:10428000A0E0B0E084179507A607B707A0F40E9446
:10429000D61540E050E0BA0187EB91E00E94CB19BF
:1042A00098E088E10FB6F894A895809360000FBE5F
:1042B00090936000FFCF8114910409F407CC0E9411
:1042C000000000CCC0E012CCC26018CCC4601ECC90
:1042D000C86024CCC0612ACCC06230CCC06436CC6B
:1042E000C0683CCCC0E04FCCC26055CCC4605BCC55
:1042F000C86061CCC06167CCC0626DCCC06473CC57
:10430000C06879CCC0E08CCCC26092CCC46098CC40
:10431000C8609ECCC061A4CCC062AACCC064B0CC42
:10432000C068B6CCC0E0C8CCC260CECCC460D4CC2F
:10433000C860DACCC061E0CCC062E6CCCF92DF923C
:10434000EF92FF92109207051092060578EEC72EA5
:1043500073E0D72EE12CF12CC0920805D09209050C
:10436000E0920A05F0920B0581E291E09093050539
:10437000809304058FEF9FEF9093110580931005B4
:1043800010920B0610925605109258051092570580
:104390000E94901B10920F0610920E06C0921006FB
:1043A000D0921106E0921206F092130683E391E098
:1043B00090930D0680930C0680913C06ADE3B6E029
:1043C0009FEF48EB5BE08C3078F48C93282F30E043
:1043D000F901EE0FFF1F2E0F3F1FF901E85EF94FA5
:1043E000528341838F5F01C09C93139626E0A136D0
:1043F000B20749F780933C06FF90EF90DF90CF9093
:104400000895BB272A3051F4992342F4BDE29095D8
:104410008095709561957F4F8F4F9F4F0C9411221F
:10442000BB27FA01A62F6217710581059105330B91
:1044300030FB66F0AA27660F771F881F991FAA1FF7
:10444000A21710F0A21B63953850A9F7A05DAA33FC
:1044500008F0A95DA19336F7B111B1931082CA019A
:104460000C943222DC01FC01672F71917723E1F774
:10447000329704C07C916D9370836291AE17BF0731
:10448000C8F30895052E97FB1EF400940E9459224C
:1044900057FD07D00E94AB2207FC03D04EF40C94CA
:1044A000592250954095309521953F4F4F4F5F4F82
:1044B000089590958095709561957F4F8F4F9F4F90
:1044C00008950E94CD22A59F900DB49F900DA49FAA
:1044D000800D911D11240895B7FF0C9461220E9454
:1044E0006122821B930B08952F923F924F925F920D
:1044F0006F927F928F929F92AF92BF92CF92DF92F4
:10450000EF92FF920F931F93CF93DF93CDB7DEB758
:10451000CA1BDB0B0FB6F894DEBF0FBECDBF0994EC
:104520002A88398848885F846E847D848C849B8443
:10453000AA84B984C884DF80EE80FD800C811B8151
:10454000AA81B981CE0FD11D0FB6F894DEBF0FBE80
:10455000CDBFED010895A1E21A2EAA1BBB1BFD01E0
:104560000DC0AA1FBB1FEE1FFF1FA217B307E40752
:10457000F50720F0A21BB30BE40BF50B661F771FAA
:10458000881F991F1A9469F760957095809590958A
:104590009B01AC01BD01CF010895A29FB001B39F63
:1045A000C001A39F700D811D1124911DB29F700D3C
:1045B000811D1124911D0895991B79E004C0991F54
:1045C000961708F0961B881F7A95C9F7809508956D
:1045D000AA1BBB1B51E107C0AA1FBB1FA617B70729
:1045E00010F0A61BB70B881F991F5A95A9F7809545
:1045F0009095BC01CD01089597FB072E16F4009409
:1046000007D077FD09D00E94E82207FC05D03EF4D0
:10461000909581959F4F0895709561957F4F08956E
:10462000EE0FFF1F0590F491E02D09940E94CD221A
:10463000B7FF0895821B930B08950F931F93CF9399
:10464000DF938230910510F482E090E0E0916F06F4
:10465000F091700620E030E0A0E0B0E0309719F172
:10466000408151810281138148175907C8F084178E
:10467000950769F4109731F012960C9312971396E0
:104680001C9327C000936F061093700622C021155B
:10469000310519F04217530718F49A01BD01EF01D3
:1046A000DF01F801DBCF21153105F9F0281B390BAB
:1046B0002430310580F48A819B816115710521F0D8
:1046C000FB019383828304C09093700680936F06EE
:1046D000FE01329644C0FE01E20FF31F81939193D5
:1046E00022503109398328833AC020916D063091D8
:1046F0006E06232B41F42091120130911301309367
:104700006E0620936D062091100130911101211544
:10471000310541F42DB73EB7409114015091150178
:10472000241B350BE0916D06F0916E06E217F3073E
:10473000A0F42E1B3F0B2817390778F0AC014E5F11
:104740005F4F2417350748F04E0F5F1F50936E06DA
:1047500040936D068193919302C0E0E0F0E0CF01B9
:10476000DF91CF911F910F910895CF93DF93009721
:1047700009F481C0FC01329713821282A0916F0666
:10478000B0917006109781F420813181820F931FC0
:1047900020916D0630916E062817390751F5F09378
:1047A0006E06E0936D0667C0ED0120E030E0CE17A5
:1047B000DF0740F44A815B819E0141155105F1F00C
:1047C000EA01F5CFD383C28340815181840F951FC5
:1047D000C817D90759F488819981840F951F0296CB
:1047E000918380838A819B81938382832115310504
:1047F00029F4F0937006E0936F063DC0E901FB8356
:10480000EA8349915991C40FD51FEC17FD0761F454
:1048100080819181840F951F0296E9019983888395
:10482000828193819B838A83E0E0F0E012968D91F0
:104830009C911397009719F0FD01DC01F7CF8D9142
:104840009C9111979D012E5F3F4F820F931F2091E6
:104850006D0630916E062817390769F4309729F4F0
:104860001092700610926F0602C013821282B093EB
:104870006E06A0936D06DF91CF910895A0E0B0E0A1
:10488000E4E4F4E20C947822EC01009721F4CB01EB
:104890000E941D23B4C0FC01E60FF71F9C012250AB
:1048A0003109E217F30708F4A8C0D9010D911C9152
:1048B000119706171707B0F00530110508F49BC0D3
:1048C000C80104978617970708F495C0025011098C
:1048D000061B170B019311936D937C93CF010E94DC
:1048E000B52389C05B01A01AB10A4C01800E911E4C
:1048F000A0916F06B0917006612C712CE12CF12C07
:10490000109709F446C08D919C911197A815B9058F
:10491000B1F56C0142E0C40ED11CCA14DB0478F17D
:104920004C018A189B08640142E0C40ED11C129607
:10493000BC9012971396AC91B5E0CB16D10440F021
:10494000B282A38391828082D9016D937C9309C046
:104950000E5F1F4F800F911FF90191838083EB2D14
:10496000FA2FE114F10431F0D7011396FC93EE9382
:10497000129741C0F0937006E0936F063CC0681632
:10498000790608F43C017D0112960D90BC91A02D92
:10499000B7CF80916D0690916E0688169906E1F466
:1049A00066167706C8F48091100190911101009766
:1049B00041F48DB79EB74091140150911501841BAD
:1049C000950BE817F907C8F4F0936E06E0936D06AF
:1049D000F901718360830FC0CB010E941D237C010C
:1049E000009759F0A801BE010E940925CE010E943E
:1049F000B523C70104C0CE0102C080E090E0CDB76E
:104A0000DEB7EEE00C94942281E090E0F8940C94F0
:104A10002825FB01DC0102C001900D92415050405D
:104A2000D8F70895FB01DC0101900D920020E1F719
:104A30000895FB01DC014150504048F001900D9277
:104A40000020C9F701C01D9241505040E0F7089581
:044A5000F894FFCF08
:104A540000E1000000000000FF1300FFFFFFFFFF64
:104A640000007106800000C1808100000000000089
:104A7400005A0A9D0F060B700A7B0A2E0B0A0B00C4
:104A8400000000A3157615D3154A156E155A154B5B
:104A940015463A5C4C6F67696369656C735C507268
:104AA4006F6A6574735C626C6F636B6C794072647B
:104AB40075696E6F5F41494F5F656C656374726FB2
:104AC4006E5C44656275675F4275696C645C424004
:104AD400656C656374726F6E5C61726475696E6F28
:104AE4005C4669726D617461506C75732D333275F7
:104AF400345C4669726D617461506C75732D333228
:104B040075342E696E6F00780031302D626974201F
:104B140061646472657373696E67206E6F74207369
:104B24007570706F7274656400746F6F206D616E60
:104B34007920717565726965730050494E475F430A
:104B44004F4E464947204572726F723A204578634A
:104B54006565646564206E756D626572206F66209C
:104B6400737570706F727465642070696E67206409
:104B7400657669636573005354455050455220432C
:104B84004F4E464947204572726F723A2057726FF2
:104B94006E67204E756D626572206F662061726764
:104BA400756D656E74730061726763203D200053F8
:104BB400544550504552204F50455241544520458C
:104BC40072726F723A204D4F544F52204E4F542000
:104BD400434F4E464947555245440053544550505F
:104BE4004552204649524D5741524520564552534D
:104BF400494F4E204572726F723A204E4F204D4FEE
:104C0400544F525320434F4E464947555245440052
:104C14005354455050455220434F4E464947204532
:104C240072726F723A20554E4B4E4F574E2053546A
:104C3400455050455220434F4D4D414E440049325A
:104C4400433A20546F6F206D616E792062797465E8
:104C540073207265636569766564004932433A205E
:104C6400546F6F206665772062797465732072656E
:104C7400636569766564004D617820736572766F4B
:104C84007320617474616368656400556E6B6E6F44
:0C4C9400776E2070696E206D6F64650003
:00000001FF
