:100000000C947B000C94A3000C94A3000C94D20FCE
:100010000C94A50F0C94780F0C94A3000C946D090C
:100020000C94A3000C94A3000C94A3000C943C1813
:100030000C94A3000C94A3000C94A3000C94A300B4
:100040000C942D120C94A3000C94EF090C94C90984
:100050000C94A3000C94A3000C94A3000C94A30094
:100060000C9480130C94A300A00EC50E8E0ED80E17
:10007000F70E410F1F0F410F390F410F6C0FAF0EDD
:10008000320F2B0F1113171321132F1331133713A3
:1000900041134F1361136313020000000024002773
:1000A000002A0000000000250028002B00000000AE
:1000B0000800020100000304070000000000000027
:1000C00000010204081020408001020408102001F1
:1000D00002040810200404040404040404020202BC
:1000E00002020203030303030300000000230026AF
:1000F000002900009C1D11241FBECFEFD8E0DEBFF9
:10010000CDBF13E0A0E0B1E0E2E3F3E402C005906C
:100110000D92AA33B107D9F726E0AAE3B3E001C0F4
:100120001D92A03AB207E1F710E0CBE7D0E004C09F
:100130002197FE010E947F1FCA37D107C9F70E948D
:10014000FD180C9497210C9400004F925F926F92CF
:100150007F928F929F92AF92BF92CF92DF92EF9257
:10016000FF920F931F93CF93DF93CDB7DEB7C454A5
:10017000D1090FB6F894DEBF0FBECDBF062F7A01AE
:100180008D3609F467C2B8F4803609F4B8C240F479
:10019000803509F4A7C18F3509F457C30C94F408CE
:1001A000893609F49AC28B3609F403C2823611F0FB
:1001B0000C94F408FCC4823709F491C540F48F36DE
:1001C00009F4D4C1803709F444C10C94F408883789
:1001D00009F4E9C08A3709F4A8C1863711F00C94F4
:1001E000F408DA0111962C91922F987125FF03C023
:1001F0008AE391E03FC7FA01808126FB222720F99C
:1002000031E02327983081F170F491110C94F408B7
:1002100091E09093A2048093C4041092A3041092DE
:10022000C50412E007C09031D9F1983109F46EC0CD
:100230000C94F408101778F4F701E10FF11D6181B7
:100240006795662767958081680F8BE096E00E942E
:1002500025171E5FEFCF81E00E94751688E890E0B9
:100260000197F1F70C94F40843816281063071F430
:1002700070E0B0E84B9F600D711D1124F7014581BE
:100280004795442747959481490F06C047954427D1
:100290004795460F6FEF7FEF0E94E20C0C94F40835
:1002A000E0910101E7301CF08AE591E0E3C6DA0154
:1002B00013969C91139712963C91663091F4632F9C
:1002C00070E0B0E89B9F600D711D1124DA01159656
:1002D0009C91159797959927979514964C91940F03
:1002E00006C0979599279795930F6FEF7FEFEF5F74
:1002F000E0930101B5E0EB02F0011124E559FC4F58
:10030000808372836183938324836EC7209101016C
:1003100012163CF490E0622F022E000C770B35E0B1
:100320000FC08FEF809301015FC7349FF001359FAD
:10033000F00D1124E559FC4F4081841739F09F5F7F
:10034000492F50E06417750784F790E085E022C0DC
:100350009830F8F4FA0131968E9FD0018F9FB00D3E
:100360001124A559BC4F3C91849FF001859FF00D4D
:100370001124E559FC4F308311964D915C911297F1
:100380005283418313963C911397338314963C9187
:1003900034839F5F492F50E064177507CCF62150D6
:1003A0002093010121C7FA012181808190E0F0E8CA
:1003B0002F9F800D911D1124009721F090933B03F6
:1003C00080933A038091990681110EC710E08EEE5A
:1003D000810F823028F466E070E0812F0E94000EC9
:1003E0001F5F1431A1F781E08093990610922E04CB
:1003F00010922D041092A3041092C5041092A1042F
:100400008093A00410927B0461E082E10E942E118F
:1004100061E083E10E942E118091B9008E7F80936C
:10042000B9008091B9008D7F8093B90080E28093FC
:10043000B80085E48093BC0087E790E19093300496
:1004400080932F0488E790E19093320480933104E5
:10045000CBC6653008F4C8C6DA011C918EEF810F57
:10046000823108F0C1C611960C9111971296CC906A
:1004700012971396DC9013971496FC90E12FF0E0FE
:10048000EE57F94F80818C30B0F490E0FC01EE0F14
:10049000FF1F8E0F9F1FFC01E45CF94F808190E0ED
:1004A000FC01EE0FFF1F8E0F9F1FFC01E95EF94F4D
:1004B000808186FDE2C54D2D50E0B0E8FB9E400DE9
:1004C000511D1124602F70E0E0E8CE9E600D711D7B
:1004D0001124812F0E94C20D64E070E0812F0E94E0
:1004E000000E82C6DA0111962C9111978C9190E042
:1004F000B0E82B9F800D911D112490936803809389
:1005000067032FB7F89480915F0390916003A091E7
:100510006103B09162032FBF8093630390936403E0
:10052000A0936503B09366035FC6623008F45CC6AF
:10053000FA012181808190E0F0E82F9F800D911DCC
:100540001124009711F481E090E0909303018093CF
:100550000201609102017091030188E290E00E9423
:10056000571F7093AA036093A9033EC6623008F434
:100570003BC6DA0111966C91119770E00230A1F040
:1005800012968C91B0E88B9FC0011124682B792BB7
:10059000033051F0FA01838190E090E4899F902D1F
:1005A00088271124682B792BD7018C910E943C0B52
:1005B0001BC680EF0E9468168CE60E9468161EEF2C
:1005C00084EF810F863038F482E00E9468168AE05A
:1005D0000E94681609C0113039F483E00E94681641
:1005E00088E00E94681608C08DEF810F8230A8F362
:1005F00089EF810F833088F3123130F484E00E9458
:1006000068168EE00E94681680EF810F823030F409
:1006100086E00E94681681E00E9468168FE70E94BB
:1006200068161F5F123109F41CC5123148F680E0CC
:100630000E94681681E00E9468168BE00E9468168E
:1006400081E00E94681681E00E94681681E00E94A5
:100650006816B6CF662309F4C7C5FA01008180EF9A
:100660000E9468168EE60E946816802F0E94681607
:10067000043108F0F6C410E0F801E454FA4F808128
:100680000E946816000F111F980120533A4F7901FC
:10069000D9018C918F770E946816F7018081918132
:1006A0009C012078232B39F0880F892F881F990B04
:1006B0008F770E946816F801E053FA4F808191818C
:1006C0009C012227307C232B09F4CBC4990F880B83
:1006D000990F982F881F8F77C2C480EF0E946816E9
:1006E0008AE60E94681612EF163010F4812F01C0BE
:1006F0008FE70E9468161F5F1630B1F7B2C4DA01A7
:100700008C91809369039091480391119AC011963E
:100710009C912EE031E03093C7042093C60421E67B
:100720002093D1048093CA049093CC04891709F4D0
:1007300085C0883018F4983008F080C028EF280F62
:10074000263020F49850963060F078C08E3030F02B
:100750009E3008F473C0843108F070C0943108F002
:100760006DC01092CE041092CF04E0915D03F09121
:100770005E03309739F426EC34E030935E03209327
:100780005D030BC0248535852115310511F0F90174
:10079000F9CF26EC34E0358724871092D3041092E9
:1007A000D20490E0FC01EB52FF4FE491F0E0EE0F39
:1007B000FF1FE751FF4F259134913093C9042093D7
:1007C000C804232B09F43AC0FC01EF53FF4FE49116
:1007D000E093CB04FC01E355FF4F849181110E940B
:1007E00077128091CC0490E0FC01EF53FF4FE4912D
:1007F000E093CD04FC01E355FF4F849181110E94E9
:10080000771260E08091CA040E947B1160E08091C1
:10081000CC040E947B1161E08091CA040E942E11D9
:1008200061E08091CC040E942E111091CC04809143
:10083000CA040E949715812F0E94971581E080932A
:10084000480381E080936A03CFC4FA0190818181DB
:100850009111A7C193818280912CF0E89F9F800C19
:10086000911C1124DA0115969C9115971496AC9061
:10087000B12CB0E89B9FA00CB11C112490910001F9
:10088000891721F09F3F09F0AFC404C0E8E9F0E008
:10089000149179C080930001E8E9F0E014911F3FC2
:1008A00009F4A2C4113009F448C050F1123009F023
:1008B0006AC01092B0001092B1009091B0009260A6
:1008C0009093B0009091B10091609093B100282F67
:1008D00030E0F901EB52FF4FE491F0E0EE0FFF1F23
:1008E000ED55FF4F45915491509351034093500360
:1008F000F901EF53FF4FE491E093520312E070C40B
:1009000014BC15BC94B5926094BD95B5916095BD2D
:10091000282F30E0F901EB52FF4FE491F0E0EE0FA9
:10092000FF1FED55FF4F45915491F901EF53FF4FD4
:10093000E491E0933D0310E053C4109280001092C4
:100940008100909181009860909381009091810046
:10095000916090938100282F30E0F901EB52FF4F16
:10096000E491F0E0EE0FFF1FED55FF4F45915491DC
:10097000F901EF53FF4FE491E0933C0361E00E94E3
:100980007B1111E089C017FD2FC461E00E947B112B
:10099000812F8D7F09F080C02401092C000C66088E
:1009A000770860E079E08DE390E0A30192010E9476
:1009B000B11E25962CAF3DAF4EAF5FAF25976901B5
:1009C0007A01E1E0CE1AD108E108F108FFEFCF1675
:1009D000D104E104F10409F008F44CC060E271EACA
:1009E00087E090E0A30192010E94B11E69017A01A3
:1009F00081E0C81AD108E108F108123009F59FEF2B
:100A0000C916D104E104F10409F008F4AEC368E4A6
:100A100078EE81E090E0A30192010E94B11E69018D
:100A20007A01A1E0CA1AD108E108F108BFEFCB169C
:100A3000D104E104F10411F008F023C383E025C0E0
:100A4000EFEFCE16D104E104F104B1F0A8F064E2B6
:100A500074EF80E090E0A30192010E94B11E690151
:100A60007A01F1E0CF1AD108E108F108112309F465
:100A700080C346C381E001C082E0111106C095B574
:100A8000987F892B85BD43C085E09091B100987F08
:100A9000892B8093B1003BC02401092C000C66080F
:100AA000770860E079E08DE390E0A30192010E9475
:100AB000B11E69017A01B1E0CB1AD108E108F10851
:100AC000C114D104E1E0EE06F10488F064E274EFB1
:100AD00080E090E0A30192010E94B11E69017A01B9
:100AE000F1E0CF1AD108E108F10883E001C081E00C
:100AF000113069F490918100987F892B8093810057
:100B0000A114B10439F42FEF3FEFA90128C0A114BB
:100B1000B10469F09401220F331FD5010E94851F93
:100B200028EE33E040E050E00E941A1F03C02FEF90
:100B30003FEFA901113099F0123019F1111154C38E
:100B4000C7BC209342033093430340934403509324
:100B5000450380916E00826080936E0045C3D09201
:100B60008900C092880020933E0330933F03409356
:100B700040035093410380916F00826080936F0027
:100B800033C3C092B3002093530330935403409374
:100B900055035093560380917000826080937000DB
:100BA00023C3913009F020C30E9442091DC3209144
:100BB000A7033091A803263031050CF08DC0DA016F
:100BC0008C918093470311969C91119790934603C3
:100BD00014969C9114971396EC90F12CB0E89B9F7F
:100BE000E00CF11C1124F901EB56FC4F80836CE002
:100BF00070E00E94000E6CE070E0809146030E945D
:100C0000000E82E190E00E948C1FDC0140914603BF
:100C10002091470330E0F901EF53FF4FE491149620
:100C2000EC93149750E0FA01EF53FF4FE4911596BF
:100C3000EC9315972B523F4FF9018491E82FF0E088
:100C4000EE0FFF1FED55FF4F8591949117969C93E2
:100C50008E931697FA01EB52FF4FE491F0E0EE0FFE
:100C6000FF1FE751FF4F859194911B969C938E93A4
:100C70001A97F9012491E22FF0E0EE0FFF1FE756DB
:100C8000FF4F8591949119969C938E931897C70165
:100C9000F5EFEF16F1E0FF0614F084EF91E049E381
:100CA000489F9001499F300D1124C9014C961D9613
:100CB0009C938E931C978091A7039091A803FC01AD
:100CC000EE0FFF1FE556FC4FB183A0830196909372
:100CD000A8038093A70388C28BE691E0CBC1DA0119
:100CE0008C918111E0C012968C9112971196CC9044
:100CF000D12CB0E88B9FC00CD11C1124FA011381B8
:100D0000812E912CA480B12C653069F58AE190E0A8
:100D10000E948C1F7C01DC011B961C921E921A976C
:100D20001D921C92FC01168A178A108E118ED78292
:100D3000C68295868486B786A68661E0812F0E944A
:100D40007B1161E0D7011E968C910E947B11F70107
:100D5000118A108A138A128A158A148A82E090E016
:100D6000918780873EC0673009F040C04580512C94
:100D70006680712C8AE190E00E948C1F7C01FC014E
:100D80001386128611821082168A178A108E118E8F
:100D9000D782C68295868486B786A686518A408A7F
:100DA000738A628A61E0812F0E947B1161E0F70102
:100DB00086850E947B1161E0D70150968C910E943C
:100DC0007B1161E0F70182890E947B11D701559662
:100DD0001C921E92549784E090E019969C938E93F7
:100DE0001897F0927F06E0927E06FEC188EA91E0B5
:100DF0000E948B15602F70E080E090E02AE0FE01F9
:100E000031967F01AF010E94701EF7010190002012
:100E1000E9F731978F010E191F09B8016F5F7F4FF6
:100E200080E090E00E94AD206C01009731F0DC0181
:100E30001C92B7010E94812102C000E010E0011560
:100E4000110511F419820EC00F33110510F00FE3D4
:100E500010E0A801B601C7010E948821F701E00F48
:100E6000F11F108288ED91E00E948B15C7010E944E
:100E70008B15C601CC5BDF4F0FB6F894DEBF0FBEFB
:100E8000CDBFDF91CF911F910F91FF90EF90DF9039
:100E9000CF90BF90AF909F908F907F906F905F901A
:100EA0004F900C942420813009F0C7C0FA012281B0
:100EB000822F90E0A0E0B0E0AC01BD01A7E0440FBC
:100EC000551F661F771FAA95D1F7838190E0A0E098
:100ED000B0E01EE0880F991FAA1FBB1F1A95D1F71B
:100EE000482B592B6A2B7B2B81814A015B01882A75
:100EF0008581048110E0F0E88F9F000D111D112401
:100F0000D7011696DC90E0907E06F0907F06E11403
:100F1000F10409F48FC0F70126813781032E000CFC
:100F2000440B550B60E077E883E993E00E94B11E23
:100F3000CA01B901A50194010E94B11ED701129600
:100F40002D933D934D935C931597D11003C011954C
:100F500001951109680117FF04C0CC24DD24C01AD3
:100F6000D10A1016110634F481E090E0F701918364
:100F7000808305C0012B19F0D7011D921C9204E05B
:100F800010E04AE0A42EB12CC114D10409F42CC104
:100F90000E94CE11F70146885788608C718C9B01A6
:100FA000AC012419350946095709428053806480F1
:100FB0007580241535054605570530F3668B778B0C
:100FC000808F918F208131818285938521303105F9
:100FD00059F4019693878287268137818217930778
:100FE000A1F41386128611C0892B29F4F70186819A
:100FF000978193878287D7011A968D919C911B9731
:1010000001971B969C938E931A97B1E0CB1AD10847
:10101000F70120853185828593852530310511F4CE
:10102000B50101C0B8010E946B1FBC01C7010E943D
:10103000A012AACF80EE91E01DC08230C9F4809149
:101040007E0690917F06892B81F080EF0E946816C2
:1010500082E70E94681685E00E94681680E00E9480
:10106000681687EF0E946816BFC08CE092E002C04D
:1010700081E492E00E948B15B7C0812F0E948F0DF2
:101080001ACA64E274EF80E090E0A30192010E942A
:10109000B11E69017A01F1E0CF1AD108E108F10827
:1010A0002FEFC216D104E104F10441F138F162E1FD
:1010B0007AE780E090E0A30192010E94B11E6901ED
:1010C0007A0181E0C81AD108E108F1089FEFC9163A
:1010D000D104E104F10409F008F4D6CC69E07DE321
:1010E00080E090E0A30192010E94B11E69017A01A3
:1010F000A1E0CA1AD108E108F10818C084E0C5CC03
:101100009FEFC916D104E104F10489F180F169E08F
:101110007DE380E090E0A30192010E94B11E69018D
:101120007A0181E0C81AD108E108F1084FEFC4162E
:10113000D104E104F104B9F0B0F025968CAD9DAD79
:10114000AEADBFAD25973AE0B595A7959795879534
:101150003A95D1F76C017D0131E0C31AD108E1085D
:10116000F10887E092CC86E090CC82E08ECC84E0DF
:1011700084CCEFEFCE16D104E104F10479F170F1E3
:1011800069E07DE380E090E0A30192010E94B11E3E
:1011900069017A01A1E0CA1AD108E108F108BFEF9C
:1011A000CB16D104E104F104B9F0B0F025968CAD72
:1011B0009DADAEADBFAD25972AE0B595A7959795A6
:1011C00087952A95D1F76C017D0151E0C51AD108A8
:1011D000E108F10885E053CC84E051CC83E04FCCAA
:1011E00061E00E947B11D8CBCC5BDF4F0FB6F89447
:1011F000DEBF0FBECDBFDF91CF911F910F91FF904A
:10120000EF90DF90CF90BF90AF909F908F907F90A6
:101210006F905F904F900895CF92DF92EF92FF9280
:101220000F931F93CF93DF936C017A018B01C0E082
:10123000D0E0CE15DF0581F0D8016D918D01D6018A
:10124000ED91FC910190F081E02DC6010995892B6B
:1012500011F02196EECF7E01C701DF91CF911F9152
:101260000F91FF90EF90DF90CF9008950E9473212F
:1012700084ED94E00E94301021E0892B09F420E0F5
:10128000822F089590910001891324C0E8E9F0E0CD
:10129000E4919FEF90930001E130B9F098F0E230D3
:1012A000C9F4909170009D7F9093700091E09093AD
:1012B000B0009091B100987F94609093B10010922B
:1012C000B30008C010926E0005C090916F009D7F22
:1012D00090936F0060E00C942E111F920F920FB646
:1012E0000F9211242F933F934F935F936F937F93AC
:1012F0008F939F93AF93BF93EF93FF93809153038B
:1013000090915403A0915503B0915603892B8A2BD9
:101310008B2B51F190915203E0915003F0915103C6
:101320008081892780838091530390915403A091F9
:101330005503B0915603181619061A061B06C4F475
:101340008091530390915403A0915503B09156039B
:101350000197A109B1098093530390935403A0937B
:101360005503B093560304C0809100010E944209C6
:10137000FF91EF91BF91AF919F918F917F916F916D
:101380005F914F913F912F910F900FBE0F901F9043
:1013900018951F920F920FB60F9211242F933F931F
:1013A0004F935F936F937F938F939F93AF93BF936D
:1013B000EF93FF9384ED94E00E949D10FF91EF91D5
:1013C000BF91AF919F918F917F916F915F914F915D
:1013D0003F912F910F900FBE0F901F9018951F9265
:1013E0000F920FB60F9211242F938F939F93EF9329
:1013F000FF93E091E404F091E5048081E091EA0438
:10140000F091EB0482FD12C090818091ED048F5F1A
:101410008F732091EE04821751F0E091ED04F0E01B
:10142000EC52FB4F958F8093ED0401C08081FF91BA
:10143000EF919F918F912F910F900FBE0F901F9062
:101440001895FF920F931F93CF93DF93EC018F8139
:101450002091C0039D813E81F22EF094F3229223CD
:10146000F92A8227F8222F8308851985011511058D
:10147000D9F0D80113969C918F2D892389F0809102
:10148000C003892391E009F490E0F80194838081FE
:101490009181DC01ED91FC910190F081E02D0995A5
:1014A000F80105811681E2CF9BB38C81892349F035
:1014B0009BB3892B8BBBE881F98180818093C0032A
:1014C000C6CFDF91CF911F910F91FF900895CF93D9
:1014D000863080F5409193035091940321E030E0F1
:1014E000672B81F4B90102C0660F771F8A95E2F776
:1014F000CB018095909584239523909394038093BA
:10150000930318C0082E02C0220F331F0A94E2F77B
:10151000242B352B309394032093930390919A06B8
:10152000911108C0C82F0E94B711BC018C2FCF9118
:101530000C944815CF9108958F929F92AF92BF92CD
:10154000CF92DF92EF92FF920F931F93CF93DF938F
:10155000833008F084C0982F990F990F990F58E0A5
:10156000952E990E94E1991510F444E1942E8B0177
:10157000D82FC82ECC0CCC0CCC0CC0E08824839483
:101580005B01BB24C91430F58EEF8C0D8231F8F469
:101590004C2D50E0FA01E454FA4F20812230B8F487
:1015A000882D90E08A219B21DD24D394009709F4B3
:1015B000D12C7A01EE0CFF1C213009F040C0C82963
:1015C000F701E053FA4F8D2D90E091838083880CD2
:1015D000C394D8CFD11108C0F8946BB106270C7F03
:1015E000C023C627CBB929C0D130D1F40C23F8943D
:1015F00095B18C2F8F7380958923902F9F73892BA2
:1016000085B998B1C295C695C695C370C0958C2F03
:1016100089230295069506950370C02FC82B0CC030
:10162000CF70F89488B16C2F660F660F60956823B1
:10163000C023CC0FCC0FC62BC8B9789410C0892B0F
:1016400009F4BECFF701E053FA4F808191810197F1
:1016500009F4B6CF62E08C2D0E947B11B1CFDF91EF
:10166000CF911F910F91FF90EF90DF90CF90BF909F
:10167000AF909F908F9008958F929F92AF92BF925C
:10168000CF92DF92EF92FF920F931F93CF93DF934E
:10169000EB01843108F008C1082F10E0F801E45490
:1016A000FA4F9081933009F494C0943009F0FCC053
:1016B0008250823108F085C0F801EE57F94FE08082
:1016C000F12C6701CC0CDD1C603282E078070CF055
:1016D00042C077FD05C0653B710524F4DB0104C001
:1016E000A0E001C0A4EBB0E0F601EE0DFF1DE45C4C
:1016F000F94F818128E830E04901881A910887FD77
:101700009394880C991C880C991C092C000CAA082D
:10171000BB08828128E532E0281B310987FD33951B
:10172000220F331F220F331FA901330F660B770BD4
:101730009A01AB01281939094A095B090E94DB1E8D
:1017400024EB30E040E050E00E94B11E820E931E78
:10175000A41EB51E01C04B01F601EE0DFF1DE45C99
:10176000F94F20812C3068F5318188E890E0831BA7
:10177000910937FD9395880F991F880F991F881637
:10178000990684F0828148E552E0481B510987FDA3
:101790005395440F551F440F551FC4014815590553
:1017A0000CF4CA014FB7F89430E00297F901EE0F3C
:1017B000FF1F2E0F3F1FF901E95EF94F92838183CE
:1017C0004FBF000F111FF801E053FA4FD183C083C0
:1017D0006BC07B01D82F833049F08BEF800F8230B4
:1017E00028F087EF800F833008F057C061E08D2F1D
:1017F0000E947B11E114F10411F460E005C08FEF49
:10180000E816F10429F461E08D2F0E942E1145C0E5
:10181000F801E355FF4FE491E330F9F048F4E1308B
:10182000B9F0E230A1F584B5806284BDE8BC35C072
:10183000E730E9F0E83019F1E43049F580918000B3
:10184000806280938000F0928B00E0928A0025C035
:1018500084B5806884BDE7BC20C08091800080682A
:1018600080938000F0928900E092880016C08091F9
:10187000B00080688093B000E092B3000EC0809109
:10188000B00080628093B000E092B40006C080E8AF
:10189000E816F1040CF0B7CFB0CF000F111FF8011C
:1018A000E053FA4FF182E082DF91CF911F910F91C7
:1018B000FF90EF90DF90CF90BF90AF909F908F9070
:1018C00008959EEF980F923180F4E82FF0E0DF0149
:1018D000A454BA4F9C91913041F4EE0FFF1FE05396
:1018E000FA4F608371830C942E1108950F931F9308
:1018F000CF93082F10E0F801E95AFC4F9081C62FD2
:10190000C9230A56194F411104C0D8019C91C91727
:1019100071F1682F80917105909172056F70606907
:10192000DC01ED91FC910190F081E02D0995809111
:101930007105909172056C2F6F77DC01ED91FC9130
:101940000190F081E02D09958091710590917205CB
:101950006C2F70E0660F672F661F770BDC01ED912F
:10196000FC910190F081E02D0995F801C083CF91A1
:101970001F910F910895833020F5282F30E0F90151
:10198000E65AFC4F6083672BE1F0F901E95AFC4FFE
:101990009081811103C069B16C7F0FC0813049F41F
:1019A00063B136B16F7340E4349F90011124622B10
:1019B00004C066B16C7366956695692341E00C942A
:1019C000760C0895EF92FF920F931F93CF93DF93BE
:1019D000082FEB01142FF22E6F3F8FEF7807E9F0FD
:1019E00081E08093A2040093C4041092A304109297
:1019F000C5048BE096E00E9425178F2D0E94751676
:101A000080913A0390913B038330910540F0880F19
:101A1000991F04970197F1F702C0C0E0D0E08091D0
:101A2000A1048111FCCF912F113208F090E281E0E6
:101A30008093A1048093A0042FEF20939F04109221
:101A40009E04290F20939D0480937C0480917C0444
:101A5000202F220F822B80937C0480917B04813085
:101A600061F410927B0480917C048093BB00809190
:101A7000BC0083FDF8CF85EC01C085EE8093BC00EF
:101A80008091A1048130E1F380919E04891710F4C4
:101A900090919E04EDE7F4E0ADE0B4E080E08917BA
:101AA00021F021912D938F5FFACF10922E04809315
:101AB0002D04E12EF12C90E0E816F9061CF48BEDD4
:101AC00092E005C08E159F0524F488EF92E00E94F5
:101AD0008B150093CD03C093CE03CDECD3E0CE01A4
:101AE0008D5C93408E159F056CF4219690912D048A
:101AF00080912E04981731F08BE096E00E948910B7
:101B00008983EDCF62E0610F4DEC53E087E7DF9111
:101B1000CF911F910F91FF90EF900C945F15A82F1C
:101B2000B0E0AE57B94F9C91292F30E0F901EE0F8C
:101B3000FF1F2E0F3F1FF901E45CF94FE081F0E039
:101B40009F01220F331FE20FF31FE95EF94F8081DF
:101B50008F7B808380918006981306C0992379F04B
:101B60009150909380060BC0882349F0E091810644
:101B7000EF5FE0938106F0E0E054FC4F90838FEF3D
:101B80008C930895DB01909180069C30A8F53091EC
:101B90008106682F70E0332369F0E32FF0E0E05412
:101BA000FC4F8081FB01EE57F94F80833150309319
:101BB000810607C0FB01EE57F94F90839F5F90931A
:101BC0008006FB01EE57F94F808190E09C01220FC7
:101BD000331F820F931F1A161B0634F414161506B2
:101BE0001CF49A01AD0104C020E639E040E252E065
:101BF000845C994F0C94BC1784E193E00C948B1592
:101C00008F929F92BF92CF92DF92EF92FF920F93AB
:101C10001F93CF93DF93C82ED12CE601CF58DA4F14
:101C2000FE01E55BFF4F90819F3709F455C1963067
:101C300041F490919906992321F06630710509F0DD
:101C40002FC17B01182F0EEF080F0231F8F464301A
:101C50007105E1F0F601EE57F94F80818C30B0F458
:101C600090E0FC01EE0FFF1F8E0F9F1FFC01E45C54
:101C7000F94F808190E0FC01EE0FFF1F8E0F9F1F38
:101C8000FC01E95EF94F808186FD10C152EFB52E4F
:101C9000B10E85E08B1558F061E070E082E0E81647
:101CA000F10411F060E070E08B2D0E94670A0231B0
:101CB00018F5E12FE695E695E695212F2770F0E0DF
:101CC000E95AFC4FE114F10421F08BE0E816F1042D
:101CD00049F481E090E001C0880F2A95EAF79081ED
:101CE000892B09C081E090E001C0880F2A95EAF7AE
:101CF00080959081892380834601880C991CF4018A
:101D0000E053FA4F118210828EE0E816F10408F0D9
:101D1000B8C0F701EC5CFF4F0C947F1F85E08B157A
:101D200008F4DAC0023120F460E0812F0E947B11B8
:101D3000C55BDF4F88818F3709F4CEC082E09FC03A
:101D4000023108F0C9C060E0812F0E947B11C55BA1
:101D5000DF4F88818F3709F4BFC01882BDC00231C0
:101D600008F0BAC062E0812F0E947B11C55BDF4F93
:101D700088818F3711F08BE08883F401E053FA4FAC
:101D800081E090E091838083A7C0023108F0A4C075
:101D900060E0812F0E942E1161E0812F0E947B1153
:101DA000C55BDF4F88818F3709F496C081E067C03B
:101DB000133049F08BEF810F823028F087EF810FCD
:101DC000833008F089C061E0812F0E947B1161E0BF
:101DD000812F0E947B1160E0812F0E942E11C55B34
:101DE000DF4F88818F3709F477C083E048C0023124
:101DF00008F072C0C55BDF4F88818F3711F084E037
:101E00008883F601EE57F94F80818F3F09F452C065
:101E100090E0FC01EE0FFF1F8E0F9F1FFC01E45CA2
:101E2000F94F808190E0FC01EE0FFF1F8E0F9F1F86
:101E3000FC01E95EF94F808186FD4EC03BC0125126
:101E4000123008F049C0C55BDF4F88818F3709F435
:101E500043C086E014C0C55BDF4F88818F37E1F156
:101E60008DE00DC0C55BDF4F88818F37A9F18CE015
:101E700006C0C55BDF4F88818F3771F188E08883AA
:101E80002BC088E293E0DF91CF911F910F91FF90DB
:101E9000EF90DF90CF90BF909F908F900C948B1518
:101EA000109299069FEF90930101CBCE812F0E9453
:101EB0008F0DECCE4FEF5FEF6FEF7FEF812FDF9154
:101EC000CF911F910F91FF90EF90DF90CF90BF9037
:101ED0009F908F900C94C20DDF91CF911F910F9125
:101EE000FF90EF90DF90CF90BF909F908F900895DC
:101EF0001F920F920FB60F9211242F933F934F937F
:101F00005F936F937F938F939F93AF93BF93EF9361
:101F1000FF93E0916006F091610680818093C00399
:101F200080E696E00E94210AFF91EF91BF91AF9168
:101F30009F918F917F916F915F914F913F912F91E1
:101F40000F900FBE0F901F9018951F920F920FB613
:101F50000F9211242F933F934F935F936F937F932F
:101F60008F939F93AF93BF93EF93FF93E0916A0694
:101F7000F0916B0680818093C0038AE696E00E9410
:101F8000210AFF91EF91BF91AF919F918F917F9126
:101F90006F915F914F913F912F910F900FBE0F90D6
:101FA0001F9018951F920F920FB60F9211242F9326
:101FB0003F934F935F936F937F938F939F93AF93D1
:101FC000BF93EF93FF93E0917406F09175068081C3
:101FD0008093C00384E796E00E94210AFF91EF916D
:101FE000BF91AF919F918F917F916F915F914F9131
:101FF0003F912F910F900FBE0F901F901895FC01ED
:10200000538D448D252F30E0842F90E0821B930B5D
:10201000541710F0CF96089501970895FC01918D03
:10202000828D981761F0828DDF01A80FB11D5D963A
:102030008C91928D9F5F9F73928F90E008958FEFA8
:102040009FEF0895FC01918D828D981731F0828D5C
:10205000E80FF11D858D90E008958FEF9FEF0895B3
:10206000FC01918D228D892F90E0805C9F4F821B17
:1020700091098F739927089580E090E0892B29F0CA
:102080000E94380981110C9400000895FC01A2817E
:10209000B3812C919581922387818223992361F0CA
:1020A000882379F08085882321F091858285890FA6
:1020B0008187108612860895811103C081E0808790
:1020C00008952085211108C0992311F081E003C0F3
:1020D000882311F08FEF8287089585ED8093BC00EF
:1020E0008091BC0084FDFCCF1092A1040895089556
:1020F00008950895E0912E0480912D04E81730F49E
:10210000F0E0E35FFB4F808190E008958FEF9FEF59
:10211000089590912E0480912D04981750F4E92F82
:10212000F0E0E35FFB4F208130E09F5F90932E044F
:1021300002C02FEF3FEFC9010895FC01848DDF013C
:10214000A80FB11DA35ABF4F2C91848D90E001962A
:102150008F739927848FA689B7892C93A089B18919
:102160008C91837080648C93938D848D981306C0BA
:102170000288F389E02D80818F7D80830895EF921E
:10218000FF920F931F93CF93DF93EC0181E0888F31
:102190009B8D8C8D981305C0E889F989808185FD18
:1021A00026C0F62E0B8D10E00F5F1F4F0F73112707
:1021B000E02E8C8DE8120CC00FB607FCFACFE88930
:1021C000F989808185FFF5CFCE010E949D10F1CF66
:1021D0008B8DFE01E80FF11DE35AFF4FF0829FB790
:1021E000F8940B8FEA89FB89808180620AC09FB7CF
:1021F000F894EE89FF896083E889F989808183708A
:10220000806480839FBF81E090E0DF91CF911F9138
:102210000F91FF90EF900895CF93DF93EC01888D9D
:102220008823C9F0EA89FB89808185FD05C0A889DA
:10223000B9898C9186FD0FC00FB607FCF5CF808160
:1022400085FFF2CFA889B9898C9185FFEDCFCE01AA
:102250000E949D10E7CFDF91CF91089590E0FC019F
:10226000E355FF4F2491FC01EF53FF4F3491FC01E4
:10227000EB52FF4FE491EE2309F43CC0222339F1E5
:10228000233091F038F42130A9F0223001F584B5E3
:102290008F7D12C0273091F02830A1F02430B9F49E
:1022A000809180008F7D03C0809180008F77809324
:1022B00080000DC084B58F7784BD09C08091B000C7
:1022C0008F7703C08091B0008F7D8093B000F0E0E5
:1022D000EE0FFF1FED55FF4FA591B4919FB7F894F6
:1022E000611104C08C913095382302C0EC913E2BD3
:1022F0003C939FBF0895CF93DF9390E0FC01EF5391
:10230000FF4F2491FC01EB52FF4F8491882361F130
:1023100090E0880F991FFC01E756FF4FC591D491BB
:10232000FC01ED55FF4FA591B491611109C09FB714
:10233000F8948881209582238883EC912E230BC00A
:10234000623061F49FB7F8948881322F30958323EF
:102350008883EC912E2B2C939FBF06C08FB7F894E7
:10236000E8812E2B28838FBFDF91CF9108958E3087
:1023700008F08E508770806480937C0080917A0092
:10238000806480937A0080917A0086FDFCCF8091F2
:1023900078002091790090E0922B08953FB7F8944F
:1023A0008091770490917804A0917904B0917A0497
:1023B00026B5A89B05C02F3F19F00196A11DB11DA0
:1023C0003FBFBA2FA92F982F8827820F911DA11DDB
:1023D000B11DBC01CD0143E0660F771F881F991F17
:1023E0004A95D1F708958F929F92AF92BF92CF9264
:1023F000DF92EF92FF926B017C010E94CE114B01A4
:102400005C01C114D104E104F104F1F00E94CE1189
:10241000DC01CB0188199909AA09BB09883E9340C0
:10242000A105B10570F321E0C21AD108E108F10855
:1024300088EE880E83E0981EA11CB11CC114D10443
:10244000E104F10419F7DDCFFF90EF90DF90CF901A
:10245000BF90AF909F908F9008951F920F920FB6EC
:102460000F9211242F933F938F939F93AF93BF931A
:1024700080915F0390916003A0916103B09162032A
:102480003091760426E0230F2D3720F40296A11D0B
:10249000B11D05C029E8230F0396A11DB11D20938E
:1024A000760480935F0390936003A0936103B093DD
:1024B00062038091770490917804A0917904B0919F
:1024C0007A040196A11DB11D80937704909378043E
:1024D000A0937904B0937A04BF91AF919F918F91AB
:1024E0003F912F910F900FBE0F901F901895833042
:1024F00081F028F4813099F08230A1F0089587307E
:10250000A9F08830B9F08430D1F4809180008F7DBB
:1025100003C0809180008F7780938000089584B5F8
:102520008F7702C084B58F7D84BD08958091B000FF
:102530008F7703C08091B0008F7D8093B0000895A5
:102540000F931F93CF93DF93EC018B0188859985BF
:102550000297F1F46130710569F024F4672BC1F43E
:1025600060E009C06230710559F06330710581F493
:1025700060E007C061E08C850E942E1161E005C01B
:1025800061E08C850E942E1160E08E850E942E11E4
:10259000888599850497B9F501301105B1F04CF49F
:1025A0000115110581F561E08C850E942E1160E016
:1025B00011C002301105B9F00330110521F561E0B9
:1025C0008C850E942E1160E013C060E08C850E9413
:1025D0002E1161E08E850E942E1161E088890E9493
:1025E0002E1160E00DC060E08C850E942E1161E02C
:1025F0008E850E942E1160E088890E942E1161E074
:102600008A890E942E1188859985059709F073C0E3
:102610000A30110508F06FC0F801EE5BFF4F0C9413
:102620007F1F60E08C850E942E1161E051C060E048
:102630008C850E942E1161E08E850E942E1160E033
:102640004BC060E08C850E942E1161E08E850E9457
:102650002E1160E088890E942E1161E041C060E087
:1026600001C061E08C850E942E1161E005C061E02F
:102670008C850E942E1160E08E850E942E1160E0F4
:1026800009C061E08C850E942E1160E08E850E9459
:102690002E1161E088890E942E1161E00DC061E079
:1026A0008C850E942E1160E08E850E942E1161E0C3
:1026B00088890E942E1160E08A890E942E1160E0B4
:1026C00013C061E001C060E08C850E942E1160E0C3
:1026D0008E850E942E1161E088890E942E1160E093
:1026E0008A890E942E1161E08C89DF91CF911F9120
:1026F0000F910C942E11DF91CF911F910F9108959E
:102700001F920F920FB60F9211242F933F934F9366
:102710005F936F937F938F939F93AF93BF93EF9349
:10272000FF938091B900887F803609F49CC068F5DA
:10273000883209F45BC090F4803109F454C038F455
:10274000882309F4F6C0883009F44DC0F6C08831FA
:1027500009F44CC0803209F45DC0EFC0803409F444
:1027600068C048F4803309F455C0883309F0E5C0E7
:1027700080939F04D8C0803509F44FC0883509F490
:102780005DC0883409F0D9C0D6C0883909F4C7C003
:10279000A8F4883709F467C038F4883609F463C0B0
:1027A000803709F460C0C9C0883809F4B8C08039DE
:1027B00009F45FC0803809F0C0C05BC0803B09F4F9
:1027C00086C038F4803A09F466C0883A09F47FC0BC
:1027D000B4C0803C09F4A7C0883C09F4A4C0883B7D
:1027E00009F48AC0AAC080917C0410C090919E0414
:1027F00080919D04981770F5E0919E0481E08E0F02
:1028000080939E04F0E0E358FB4F80818093BB00EF
:1028100085EC86C080939F048EC0E0919E0481E089
:102820008E0F80939E048091BB00F0E0E358FB4F35
:10283000808390919E0480919D046EC0E0919E04DF
:1028400081E08E0F80939E048091BB00F0E0E358FE
:10285000FB4F80838091A00481116DC081E0809343
:102860007B0484EA61C083E08093A1041092750424
:10287000CFCF80917504803208F051C0E09175048B
:1028800081E08E0F809375048091BB00F0E0EB5ADD
:10289000FB4F8083BDCF85EC8093BC001092A104D8
:1028A00080917504803230F4E0917504F0E0EB5AC9
:1028B000FB4F10826091750470E0E0913104F0915B
:1028C000320485E594E009951092750436C084E0E1
:1028D0008093A1041092540410925304E0912F04A9
:1028E000F0913004099580915304811105C081E075
:1028F0008093530410923304E091540481E08E0FCE
:1029000080935404F0E0ED5CFB4F80818093BB002A
:102910009091540480915304981708F479CF85E876
:102920008093BC000AC085EC8093BC001092A10487
:1029300004C010929F040E946D10FF91EF91BF910F
:10294000AF919F918F917F916F915F914F913F9147
:102950002F910F900FBE0F901F9018954091530428
:10296000262F30E0240F311D21323105DCF4209177
:10297000A1042430C9F4FC0180E090E0861758F4EB
:10298000309153042191DC01AD5CBB4FA30FB11D0D
:102990002C930196F3CF80915304680F60935304F6
:1029A00080E0089581E0089582E008950F931F93D9
:1029B000CF93DF93EC0101E715E0D8018D919C9155
:1029C0006C2F6F77DC01ED91FC910190F081E02D8F
:1029D0000995F80180819181CC0FCD2FCC1FDD0BA3
:1029E0006C2F6F77DC01ED91FC910190F081E02D6F
:1029F000DF91CF911F910F91099480917105909172
:102A00007205DC01ED91FC910190F081E02D67EF02
:102A100009948091710590917205DC01ED91FC9112
:102A20000190F081E02D60EF0994CF93DF93DC01FA
:102A3000FB01428386EC94E0918380831296CD91D2
:102A4000DC91139798818381892B888382818D7F84
:102A5000813041F415969C9115978381892B1596A9
:102A60008C93159782818150823040F416969C9108
:102A700016978381892B16968C93169790916800F0
:102A800014968C91892B80936800DF91CF910895E3
:102A9000CF93DF93EB01A0917105B09172058F7018
:102AA000682F606EED91FC9111970190F081E02DFF
:102AB000CD010995CE01DF91CF910C94D614FF92F0
:102AC0000F931F93CF93DF93C82F162FF42E052F4C
:102AD0000E9409158091710590917205DC01ED91BC
:102AE000FC910190F081E02D6C2F0995CF2DD02F16
:102AF000CE01810F911D8C01C017D10729F089915A
:102B000090E00E94D614F8CFDF91CF911F910F91E2
:102B1000FF900C94FD14FC0101900020E9F731971F
:102B2000BF01681B790BAC0181E70C945F15EF9234
:102B3000FF921F93CF93DF9390E0FC01EB52FF4F86
:102B40002491211102C08FEF53C030E0225031098F
:102B50002330310540F4220F331FD901A05FBE4F4F
:102B6000ED90FC9002C0E12CF12CD701ED91FC918D
:102B70001197208117962C93FC01EF53FF4F14916E
:102B8000F70180859185009771F0EC018B81181316
:102B900007C041E0BE01C7010E94151580E028C0B2
:102BA0008D819E81F0CF87E090E00E948C1FDC0138
:102BB000892B19F410920200C6CF81E012968C93F3
:102BC000129716961C921E92159713961C931397A4
:102BD000F70180859185892B19F4B187A08702C000
:102BE000BE83AD8341E0BD01C7010E94151581E0A0
:102BF000DF91CF911F91FF90EF900895CF93DF93D6
:102C00000E9409158091710590917205DC01ED918A
:102C1000FC910190F081E02D69E7099580917105A3
:102C200090917205A0917405B0917505EC01E88151
:102C3000F9810190F081E02D6C91099580917105E9
:102C400090917205A0917405B0917505EC01E88131
:102C5000F9810190F081E02D11966C910995C2E007
:102C600080917305C81760F4E0917405F0917505C3
:102C7000EC0FF11D808190E00E94D614CF5FF0CF61
:102C8000DF91CF910C94FD14CF93DF93C1E7D5E092
:102C900088819981DC01ED91FC910190F081E02D1A
:102CA00069EF099588819981DC01ED91FC91019092
:102CB000F081E02D62E0099588819981DC01ED9138
:102CC000FC910190F081E02D65E0DF91CF910994B6
:102CD000A0917105B0917205ED91FC911197019051
:102CE000F081E02D682FCD010994282F3091C50483
:102CF000313208F04AC08091A1048111FCCF90913B
:102D0000C40442E04093A1042093A0042FEF209339
:102D10009F0410929E0430939D04E4EAF4E0ADE732
:102D2000B4E020E0321721F041914D932F5FFACFAC
:102D300010927C0420917C04990F922B90937C0438
:102D400090917B04913061F410927B0490917C040B
:102D50009093BB009091BC0093FDF8CF95EC01C01F
:102D600095EE9093BC009091A1049230E1F3909184
:102D70009F049F3F79F080919F04803241F08091C1
:102D80009F04803331F084E005C081E003C082E01D
:102D900001C083E01092A3041092C5041092A20413
:102DA0000895109276051092770510927805E9E75C
:102DB000F5E0119285E0E93BF807D9F71092B905E3
:102DC0001092BB051092BA05E0910406F091050639
:102DD000309709F00994089580912D0490E0209196
:102DE0002E04821B91090895089580E090E00895D3
:102DF000CF92DF92EF92FF920F931F93CF93DF93C7
:102E00007C01CB018A012091A204222389F0EB01ED
:102E10006B01C40ED51ECC15DD0569F06991D70193
:102E2000ED91FC910190F081E02DC7010995F3CF60
:102E3000642F0E94AE14C801DF91CF911F910F91B2
:102E4000FF90EF90DF90CF900895CF93DF931F9284
:102E5000CDB7DEB769832091A2042223D1F020915F
:102E6000C504203240F021E030E0FC0133832283AE
:102E700080E090E015C08091A304E82FF0E0EC55CD
:102E8000FB4F998190838F5F8093A3048093C50447
:102E900005C061E0CE0101960E94AE1481E090E091
:102EA0000F90DF91CF9108950F931F93CF93DF93EE
:102EB00081E080939A0680919906882329F01092E8
:102EC00099068FEF8093010110925A0310925703D5
:102ED0001092960610925B03109258031092970678
:102EE00010925C03109259031092980602E816E0C3
:102EF000C0E0DFEF82EF8C0F863018F462E070E004
:102F00000AC08EEF8C0F823120F48C2F0E94420970
:102F100005C061E070E08C2F0E94000EF801D19393
:102F20008F01CF5FC43131F71092A8031092A7032D
:102F3000A5E9B3E0EBE9F3E08FE78D9320813181E0
:102F4000232B11F011821082329693E0E73AF907B1
:102F5000A1F710929403109293031092810610929D
:102F6000800610927F0610927E0610929A06DF91DC
:102F7000CF911F910F910895DF92EF92FF920F93DF
:102F80001F93CF93DF93EC01D62E7A0189018881BC
:102F90008C3008F068C061E08D2D0E947B11888123
:102FA000E82FF0E09F01220F331FE20FF31FE95ECD
:102FB000F94F9D2D9F732081207CD22ED92AD0825B
:102FC00020E232E02E193F0937FF02C02D5F3F4F4C
:102FD0003595279535952795298320E639E0201BDF
:102FE000310B37FF02C02D5F3F4F35952795359543
:102FF00027952A836CE00E944B1F9CE0899FB001BB
:10300000112440E050E09B01240F351FF901EE0F21
:10301000FF1F2E0F3F1FF901E95EF94F908196FDCA
:1030200016C04F5F5F4F4C30510569F781110FC0DB
:103030001092800082E080938100109285001092AF
:103040008400B19A80916F00826080936F00E88164
:10305000F0E0CF01880F991FE80FF91FE95EF94FE3
:103060008081806480838881DF91CF911F910F914F
:10307000FF90EF90DF9008951F920F920FB60F927E
:1030800011242F933F934F935F936F937F938F936D
:103090009F93AF93BF93EF93FF9380919B0687FF1E
:1030A00005C010928500109284001BC020919B06E1
:1030B000022E000C330B80913B0690E02817390755
:1030C00084F480919B06082E000C990BFC01EE0FF6
:1030D000FF1F8E0F9F1FFC01E95EF94F808186FD67
:1030E00015C080919B068F5F80939B0620919B0665
:1030F000022E000C330B80913B0690E02817390715
:10310000C4F480919B068C3064F113C080919B06BF
:10311000082E000C990BFC01EE0FFF1F8E0F9F1F56
:10312000FC01E95EF94F808160E08F730E942E11EF
:10313000D8CF8091840090918500049680329E447F
:1031400018F480E29EE405C080918400909185008F
:10315000049690938900809388008FEF80939B065C
:103160003BC0209184003091850080919B06082E01
:10317000000C990BFC01EE0FFF1F8E0F9F1FFC012F
:10318000E95EF94F81819281820F931F90938900AC
:103190008093880080919B06082E000C990BFC01FF
:1031A000EE0FFF1F8E0F9F1FFC01E95EF94F80811C
:1031B00086FF12C080919B06082E000C990BFC0123
:1031C000EE0FFF1F8E0F9F1FFC01E95EF94F8081FC
:1031D00061E08F730E942E11FF91EF91BF91AF912B
:1031E0009F918F917F916F915F914F913F912F911F
:1031F0000F900FBE0F901F901895789484B5826041
:1032000084BD84B5816084BD85B5826085BD85B58A
:10321000816085BD80916E00816080936E00109208
:103220008100809181008260809381008091810083
:103230008160809381008091800081608093800014
:103240008091B10084608093B1008091B000816072
:103250008093B00080917A00846080937A0080919E
:103260007A00826080937A0080917A008E7F8093CA
:103270007A0080917A00806880937A001092C10071
:1032800081E18093730580917405909175050E948A
:103290002420C0917305D0E0CE0101960E948C1FBE
:1032A0009093750580937405FC01EC0FFD1F10824F
:1032B00012E0DC011C9325E011962C93AE014250E4
:1032C00051096BEC72E002960E9488218CE39BE02E
:1032D0009093F9058093F8058CE99AE09093FB05AB
:1032E0008093FA0587E69AE09093FD058093FC05AC
:1032F0008BEB9CE09093FF058093FE0580E09EE0C1
:10330000909301068093000681E69CE0909303066B
:103310008093020685EA90E0909309068093080660
:1033200084E597E19093050680930406E091E40418
:10333000F091E5041083E091E004F091E104108243
:10334000E091E204F091E30480E180831092EC04C8
:10335000E091E804F091E90486E08083E091E604DE
:10336000F091E704808180618083E091E604F09130
:10337000E704808188608083E091E604F091E704AF
:10338000808180688083E091E604F091E704808189
:103390008F7D808384ED94E0909372058093710516
:1033A00080910A06811140C061E08DE00E947B118E
:1033B000C0E062ED70E080E090E00E94F31161E017
:1033C0008DE00E942E1168E270E080E090E00E94A3
:1033D000F31160E08DE00E942E11CF5FC23049F7FB
:1033E0006AEF70E080E090E00E94F311C0E062EDCF
:1033F00070E080E090E00E94F31161E08DE00E94B7
:103400002E1168E270E080E090E00E94F31160E02D
:103410008DE00E942E11CF5FC53049F76DE770E057
:1034200080E090E00E94F3110E94441680917305A1
:1034300081110E94FE150E9454177724739468EE40
:10344000E62E63E0F62E75E0672EE4E0CE2ED12C5A
:10345000F0E1AF2EB12CA9E38A2E912C80915A0372
:10346000882349F069B18091570368236C7F40E05D
:1034700080E00E94760C80915B03882381F083B109
:1034800096B1682F6F73B0E49B9FC0011124862B07
:1034900060915803682340E081E00E94760C80919F
:1034A0005C03882359F066B16C73669566958091CC
:1034B0005903682340E082E00E94760C80917105F8
:1034C00090917205DC01ED91FC910084F185E02D75
:1034D0000995892B09F42CC1809171059091720591
:1034E000DC01ED91FC910284F385E02D09958F3F7D
:1034F000BFEF9B0719F3382F2091B905222309F458
:1035000067C0873F09F055C01092B90580917905D1
:10351000813751F0893709F03EC0809173058823C7
:1035200069F20E94FE15CACFE0910606F0910706E7
:10353000309721F28091BA059091BB05DC0111977B
:10354000B7FDDC01BD0175956795562F81E795E0C4
:10355000EC0130E002962196351770F4DC011796E5
:103560002C9117972F8318964C9147954427479590
:10357000240F2F833F5FEECFDB01BB27AF58BA4F3D
:1035800017968C911797882311F018961C9289E74B
:1035900095E0099593CFE0910806F09109063097E0
:1035A00009F48CCF6091BA0561504AE755E009955E
:1035B00085CF2091BA053091BB05F901EF58FA4F3C
:1035C00080872F5F3F4F3093BB052093BA0576CF9E
:1035D00020917605222309F469C087FD67C09FEF1B
:1035E000920F90937605E92FF0E0EF58FA4F80871D
:1035F000911164CF80917705882309F45FCF803DD6
:1036000009F445C050F4803901F1803C09F04BC009
:10361000E091FC05F091FD053EC0843F39F1853F06
:1036200051F1803E09F03FC0E091F805F091F905B5
:103630003097C9F18091790560917A0570E0B0E822
:103640008B9F600D711D11242BC0E091FA05F09144
:10365000FB05309741F18091790560917A0570E022
:1036600020E8829F600D711D11241AC0E0910006B0
:10367000F091010604C0E0910206F0910306309734
:1036800091F06091790570E080917A050BC0E0912E
:10369000FE05F091FF05309731F06091790570E0FB
:1036A0008091780509951092770508CF303F38F45E
:1036B000282F207F30E08F708093780502C09C0116
:1036C0003327203F310551F17CF4203C310509F1CD
:1036D00024F420393105C9F0F1CE203D3105C9F07F
:1036E000203E310591F0EACE293F3105F1F034F466
:1036F000C901845F9109029740F0E0CE2F3F310568
:1037000009F0DCCE0E94D116D9CE42E04093760576
:1037100002C07092760520937705D0CE7092B905DD
:103720001092BB051092BA05C9CE0E944416C6CEAF
:103730008FB7F89440915F035091600360916103EB
:10374000709162038FBF2090B8033090B90340900E
:10375000BA035090BB032091020130910301C901CB
:10376000A0E0B0E042195309640975098417950770
:10377000A607B70708F0D2C1820D931DA41DB51D81
:103780008093B8039093B903A093BA03B093BB039B
:103790008091B6039091B7039C012F5F3F4F309308
:1037A000B7032093B6032091A9033091AA032817E9
:1037B00039070CF0D7C01092B7031092B60380916E
:1037C000A7039091A803892B09F4CCC00091B403FE
:1037D0001091B503F801EE0FFF1FE556FC4FC081B5
:1037E000D181E885F98590818C81892B8083EE8158
:1037F000FF8190818C81809589238083C601019708
:10380000F1F7EE81FF8190818C81892B8083C50146
:103810000197F1F7EE81FF8190818C81809589235A
:103820008083E885F98590818C81809589238083C8
:103830000E94CE11DC01CB01805B994BAF4FBF4F93
:103840008E879F87A88BB98BEA85FB8590818D81B8
:10385000892359F00E94CE112E853F8548895989C8
:10386000261737074807590778F7EA85FB859081BF
:103870008D81892371F40E94CE112E853F85488960
:103880005989261737074807590778F780E090E0ED
:103890002DC00E94CE112C853D85DC01CB01820F0D
:1038A000931FA11DB11D8E879F87A88BB98BEA85B9
:1038B000FB8590818D81892361F00E94CE112E8538
:1038C0003F8548895989261737074807590778F7E8
:1038D000DDCF0E94CE112C853D85255031094E85C6
:1038E0005F85241B350BC901860F971FB4010E9409
:1038F000571FCB010093B30398012F5F3F4F3093C5
:10390000B5032093B4032091A7033091A80321505D
:1039100031090217130724F01092B5031092B40373
:103920006F776093B203880F892F881F990B80935C
:10393000B10380EF0E94681683E60E946816E0914A
:10394000B303F0E0EB56FC4F80810E946816809133
:10395000B2030E9468168091B1030E94681687EF37
:103960000E946816CCEBD5E012EF1630B0F48881D7
:10397000823099F48091930390919403012E02C0B8
:10398000959587950A94E2F780FF07C0812F0E94E2
:10399000B711BC01812F0E9448151F5F2196163078
:1039A00021F78091010187FD1BC0C0E02C2F30E082
:1039B00080910101082E000C990B8217930784F067
:1039C000629EF001639EF00D1124E559FC4F618168
:1039D00072812481438180810E94E20CCF5FE6CF17
:1039E00080916A03882309F45DC01092B00310929D
:1039F000AF03E0915D03F0915E03F093AC03E093BD
:103A0000AB03309729F41092AC031092AB0326C09D
:103A10008185811104C00484F585E02DF2CFF093F7
:103A2000AC03E093AB0387FF03C091E0980F91874D
:103A30009185191614F49150918718160CF071C0E5
:103A40002091AD033091AE03D901A80FB11D87FDC0
:103A5000BA95CD019093AE038093AD038091AD03F1
:103A60009091AE03282F2F772093AF03880F892FD3
:103A7000881F990B8F778093B00380EF0E946816A0
:103A800081E60E946816809169030E946816809101
:103A9000AF030E9468168091B0030E94681687EFFA
:103AA0000E9468168091670390916803892BB1F199
:103AB0008FB7F89440915F03509160036091610368
:103AC000709162038FBF8091630390916403A09112
:103AD0006503B0916603481B590B6A0B7B0B209161
:103AE0006703309168032E9DC0012F9D900D3E9D70
:103AF000900D1124A0E0B0E084179507A607B70742
:103B000068F40E94541798E088E10FB6F894A895DD
:103B1000809360000FBE90936000FFCF0E943C1026
:103B20009DCC2091AD033091AE03F901E80FF11D5A
:103B300087FDFA95CF018ECFCF92DF92EF92FF9261
:103B40001092D7041092D60478EEC72E73E0D72EC9
:103B5000E12CF12CC092D804D092D904E092DA047E
:103B6000F092DB048AE191E09093D5048093D40431
:103B700085EC90E09093E1048093E00484EC90E085
:103B80009093E3048093E20480EC90E09093E5044A
:103B90008093E40481EC90E09093E7048093E60442
:103BA00082EC90E09093E9048093E80486EC90E046
:103BB0009093EB048093EA041092ED041092EE04CB
:103BC0001092EF041092F00410920A0610927305FE
:103BD00010927505109274050E94D11610920E066F
:103BE00010920D06C0920F06D0921006E0921106B8
:103BF000F09212068CE291E090930C0680930B06F3
:103C0000EDEEF0E0859194919093750680937406A3
:103C10008BE690E0909377068093760681E0809320
:103C200078061092790610927A0610927D0610920C
:103C30007C06EFEEF0E08591949190936B06809373
:103C40006A068CE690E090936D0680936C0682E0A5
:103C500080936E0610926F06109270061092730693
:103C600010927206E1EFF0E08591949190936106D5
:103C7000809360068DE690E09093630680936206E1
:103C800084E0809364061092650610926606109296
:103C900069061092680680913B06ACE3B6E09FEFA0
:103CA0004CED55E08C3078F48C93282F30E0F901FE
:103CB000EE0FFF1F2E0F3F1FF901E95EF94F5283F0
:103CC00041838F5F01C09C93139626E0A036B20714
:103CD00049F780933B06FF90EF90DF90CF900895D7
:103CE000BB272A3051F4992342F4BDE29095809588
:103CF000709561957F4F8F4F9F4F0C94801EBB270F
:103D0000FA01A62F6217710581059105330B30FB6F
:103D100066F0AA27660F771F881F991FAA1FA21790
:103D200010F0A21B63953850A9F7A05DAA3308F0E4
:103D3000A95DA19336F7B111B1931082CA010C9419
:103D4000A11EDC01FC01672F71917723E1F7329707
:103D500004C07C916D9370836291AE17BF07C8F366
:103D60000895052E97FB1EF400940E94C81E57FD6F
:103D700007D00E941A1F07FC03D04EF40C94C81EF3
:103D800050954095309521953F4F4F4F5F4F089587
:103D900090958095709561957F4F8F4F9F4F0895B7
:103DA0000E943C1FA59F900DB49F900DA49F800D75
:103DB000911D11240895B7FF0C94D01E0E94D01EAF
:103DC000821B930B08952F923F924F925F926F92B6
:103DD0007F928F929F92AF92BF92CF92DF92EF929B
:103DE000FF920F931F93CF93DF93CDB7DEB7CA1B1C
:103DF000DB0B0FB6F894DEBF0FBECDBF09942A8847
:103E0000398848885F846E847D848C849B84AA84EE
:103E1000B984C884DF80EE80FD800C811B81AA817B
:103E2000B981CE0FD11D0FB6F894DEBF0FBECDBF46
:103E3000ED010895A1E21A2EAA1BBB1BFD010DC0C6
:103E4000AA1FBB1FEE1FFF1FA217B307E407F5074A
:103E500020F0A21BB30BE40BF50B661F771F881F26
:103E6000991F1A9469F760957095809590959B01BC
:103E7000AC01BD01CF010895A29FB001B39FC00165
:103E8000A39F700D811D1124911DB29F700D811D86
:103E90001124911D0895991B79E004C0991F96176C
:103EA00008F0961B881F7A95C9F780950895AA1B7C
:103EB000BB1B51E107C0AA1FBB1FA617B70710F015
:103EC000A61BB70B881F991F5A95A9F78095909547
:103ED000BC01CD01089597FB072E16F4009407D07E
:103EE00077FD09D00E94571F07FC05D03EF490953E
:103EF00081959F4F0895709561957F4F0895EE0FBE
:103F0000FF1F0590F491E02D09940E943C1FB7FF1C
:103F10000895821B930B08950F931F93CF93DF9304
:103F20008230910510F482E090E0E0919E06F091DD
:103F30009F0620E030E0A0E0B0E0309719F140812A
:103F400051810281138148175907C8F084179507DA
:103F500069F4109731F012960C93129713961C93F4
:103F600027C000939E0610939F0622C0211531059D
:103F700019F04217530718F49A01BD01EF01DF0150
:103F8000F801DBCF21153105F9F0281B390B24305E
:103F9000310580F48A819B816115710521F0FB0157
:103FA0009383828304C090939F0680939E06FE01B4
:103FB000329644C0FE01E20FF31F81939193225089
:103FC0003109398328833AC020919C0630919D069F
:103FD000232B41F4209106013091070130939D0677
:103FE00020939C0620910401309105012115310593
:103FF00041F42DB73EB74091080150910901241BAF
:10400000350BE0919C06F0919D06E217F307A0F4B2
:104010002E1B3F0B2817390778F0AC014E5F5F4F1E
:104020002417350748F04E0F5F1F50939D064093AD
:104030009C068193919302C0E0E0F0E0CF01DF9114
:10404000CF911F910F910895CF93DF93009709F4BB
:1040500081C0FC01329713821282A0919E06B0911A
:104060009F06109781F420813181820F931F209148
:104070009C0630919D062817390751F5F0939D064F
:10408000E0939C0667C0ED0120E030E0CE17DF072B
:1040900040F44A815B819E0141155105F1F0EA012E
:1040A000F5CFD383C28340815181840F951FC817F8
:1040B000D90759F488819981840F951F02969183BD
:1040C00080838A819B81938382832115310529F422
:1040D000F0939F06E0939E063DC0E901FB83EA83CF
:1040E00049915991C40FD51FEC17FD0761F48081E8
:1040F0009181840F951F0296E901998388838281BB
:1041000093819B838A83E0E0F0E012968D919C91ED
:104110001397009719F0FD01DC01F7CF8D919C9169
:1041200011979D012E5F3F4F820F931F20919C0698
:1041300030919D062817390769F4309729F41092B9
:104140009F0610929E0602C013821282B0939D06B3
:10415000A0939C06DF91CF910895A0E0B0E0E3EB3F
:10416000F0E20C94E71EEC01009721F4CB010E94D1
:104170008C1FB4C0FC01E60FF71F9C0122503109CF
:10418000E217F30708F4A8C0D9010D911C9111970B
:1041900006171707B0F00530110508F49BC0C801D9
:1041A00004978617970708F495C002501109061B5B
:1041B000170B019311936D937C93CF010E942420E0
:1041C00089C05B01A01AB10A4C01800E911EA0911A
:1041D0009E06B0919F06612C712CE12CF12C10975A
:1041E00009F446C08D919C911197A815B905B1F5B8
:1041F0006C0142E0C40ED11CCA14DB0478F14C01FE
:104200008A189B08640142E0C40ED11C1296BC902F
:1042100012971396AC91B5E0CB16D10440F0B28260
:10422000A38391828082D9016D937C9309C00E5F34
:104230001F4F800F911FF90191838083EB2DFA2F7F
:10424000E114F10431F0D7011396FC93EE93129729
:1042500041C0F0939F06E0939E063CC06816790625
:1042600008F43C017D0112960D90BC91A02DB7CFB2
:1042700080919C0690919D0688169906E1F4661639
:104280007706C8F48091040190910501009741F4EC
:104290008DB79EB74091080150910901841B950B81
:1042A000E817F907C8F4F0939D06E0939C06F9011E
:1042B000718360830FC0CB010E948C1F7C0100972B
:1042C00059F0A801BE010E947821CE010E9424204D
:1042D000C70104C0CE0102C080E090E0CDB7DEB7D8
:1042E000EEE00C94031F81E090E0F8940C94972189
:1042F000FB01DC0102C001900D9241505040D8F703
:104300000895FB01DC0101900D920020E1F7089572
:10431000FB01DC014150504048F001900D9200201B
:10432000C9F701C01D9241505040E0F70895F8943C
:02433000FFCFBD
:10433200FFFF13000000A0068000000000004610EE
:1043420074066A06600600000000BF100C09FF0F29
:104352000C1130100E102210000000002517F81664
:10436200F5167910EC1689107A1031302D626974C5
:104372002061646472657373696E67206E6F742066
:10438200737570706F7274656400746F6F206D6105
:104392006E7920717565726965730050494E475F89
:1043A200434F4E464947204572726F723A20457814
:1043B200636565646564206E756D626572206F6603
:1043C20020737570706F727465642070696E6720F7
:1043D20064657669636573005354455050455220B5
:1043E200434F4E464947204572726F723A205772C8
:1043F2006F6E67204E756D626572206F6620617206
:1044020067756D656E74730061726763203D20008D
:1044120053544550504552204F5045524154452027
:104422004572726F723A204D4F544F52204E4F5484
:1044320020434F4E46494755524544005354455038
:10444200504552204649524D5741524520564552F9
:1044520053494F4E204572726F723A204E4F204D93
:104462004F544F525320434F4E46494755524544AD
:10447200005354455050455220434F4E4649472021
:104482004572726F723A20554E4B4E4F574E205323
:1044920054455050455220434F4D4D414E440046E5
:1044A2003A5C4C6F67696369656C735C50726F6AE2
:1044B2006574735C626C6F636B6C7940726475696E
:1044C2006E6F5F41494F5F656C656374726F6E5CBE
:1044D20044656275675F4275696C645C4240656CF5
:1044E200656374726F6E5C61726475696E6F5C464F
:1044F20069726D617461506C75735C4669726D614D
:104502007461506C75732E696E6F004932433A20A4
:10451200546F6F206D616E792062797465732072B9
:1045220065636569766564004932433A20546F6F6A
:1045320020666577206279746573207265636569A8
:10454200766564004D617820736572766F732061C1
:104552007474616368656400556E6B6E6F776E206C
:0A45620070696E206D6F6465000043
:00000001FF
